{
  "address": "0xe336C2e48dBF83eD85Bd6591cE0a335bB5844385",
  "abi": [
    {
      "inputs": [
        {
          "internalType": "contract IVotingEscrow",
          "name": "votingEscrow",
          "type": "address"
        },
        {
          "internalType": "uint256",
          "name": "startTime",
          "type": "uint256"
        }
      ],
      "stateMutability": "nonpayable",
      "type": "constructor"
    },
    {
      "anonymous": false,
      "inputs": [
        {
          "indexed": false,
          "internalType": "contract IERC20",
          "name": "token",
          "type": "address"
        },
        {
          "indexed": false,
          "internalType": "uint256",
          "name": "amount",
          "type": "uint256"
        },
        {
          "indexed": false,
          "internalType": "uint256",
          "name": "lastCheckpointTimestamp",
          "type": "uint256"
        }
      ],
      "name": "TokenCheckpointed",
      "type": "event"
    },
    {
      "anonymous": false,
      "inputs": [
        {
          "indexed": false,
          "internalType": "address",
          "name": "user",
          "type": "address"
        },
        {
          "indexed": false,
          "internalType": "contract IERC20",
          "name": "token",
          "type": "address"
        },
        {
          "indexed": false,
          "internalType": "uint256",
          "name": "amount",
          "type": "uint256"
        },
        {
          "indexed": false,
          "internalType": "uint256",
          "name": "userTokenTimeCursor",
          "type": "uint256"
        }
      ],
      "name": "TokensClaimed",
      "type": "event"
    },
    {
      "inputs": [],
      "name": "checkpoint",
      "outputs": [],
      "stateMutability": "nonpayable",
      "type": "function"
    },
    {
      "inputs": [
        {
          "internalType": "contract IERC20",
          "name": "token",
          "type": "address"
        }
      ],
      "name": "checkpointToken",
      "outputs": [],
      "stateMutability": "nonpayable",
      "type": "function"
    },
    {
      "inputs": [
        {
          "internalType": "contract IERC20[]",
          "name": "tokens",
          "type": "address[]"
        }
      ],
      "name": "checkpointTokens",
      "outputs": [],
      "stateMutability": "nonpayable",
      "type": "function"
    },
    {
      "inputs": [
        {
          "internalType": "address",
          "name": "user",
          "type": "address"
        }
      ],
      "name": "checkpointUser",
      "outputs": [],
      "stateMutability": "nonpayable",
      "type": "function"
    },
    {
      "inputs": [
        {
          "internalType": "address",
          "name": "user",
          "type": "address"
        },
        {
          "internalType": "contract IERC20",
          "name": "token",
          "type": "address"
        }
      ],
      "name": "claimToken",
      "outputs": [
        {
          "internalType": "uint256",
          "name": "",
          "type": "uint256"
        }
      ],
      "stateMutability": "nonpayable",
      "type": "function"
    },
    {
      "inputs": [
        {
          "internalType": "address",
          "name": "user",
          "type": "address"
        },
        {
          "internalType": "contract IERC20[]",
          "name": "tokens",
          "type": "address[]"
        }
      ],
      "name": "claimTokens",
      "outputs": [
        {
          "internalType": "uint256[]",
          "name": "",
          "type": "uint256[]"
        }
      ],
      "stateMutability": "nonpayable",
      "type": "function"
    },
    {
      "inputs": [
        {
          "internalType": "contract IERC20",
          "name": "token",
          "type": "address"
        },
        {
          "internalType": "uint256",
          "name": "amount",
          "type": "uint256"
        }
      ],
      "name": "depositToken",
      "outputs": [],
      "stateMutability": "nonpayable",
      "type": "function"
    },
    {
      "inputs": [
        {
          "internalType": "contract IERC20[]",
          "name": "tokens",
          "type": "address[]"
        },
        {
          "internalType": "uint256[]",
          "name": "amounts",
          "type": "uint256[]"
        }
      ],
      "name": "depositTokens",
      "outputs": [],
      "stateMutability": "nonpayable",
      "type": "function"
    },
    {
      "inputs": [],
      "name": "getTimeCursor",
      "outputs": [
        {
          "internalType": "uint256",
          "name": "",
          "type": "uint256"
        }
      ],
      "stateMutability": "view",
      "type": "function"
    },
    {
      "inputs": [
        {
          "internalType": "contract IERC20",
          "name": "token",
          "type": "address"
        }
      ],
      "name": "getTokenLastBalance",
      "outputs": [
        {
          "internalType": "uint256",
          "name": "",
          "type": "uint256"
        }
      ],
      "stateMutability": "view",
      "type": "function"
    },
    {
      "inputs": [
        {
          "internalType": "contract IERC20",
          "name": "token",
          "type": "address"
        }
      ],
      "name": "getTokenTimeCursor",
      "outputs": [
        {
          "internalType": "uint256",
          "name": "",
          "type": "uint256"
        }
      ],
      "stateMutability": "view",
      "type": "function"
    },
    {
      "inputs": [
        {
          "internalType": "contract IERC20",
          "name": "token",
          "type": "address"
        },
        {
          "internalType": "uint256",
          "name": "timestamp",
          "type": "uint256"
        }
      ],
      "name": "getTokensDistributedInWeek",
      "outputs": [
        {
          "internalType": "uint256",
          "name": "",
          "type": "uint256"
        }
      ],
      "stateMutability": "view",
      "type": "function"
    },
    {
      "inputs": [
        {
          "internalType": "uint256",
          "name": "timestamp",
          "type": "uint256"
        }
      ],
      "name": "getTotalSupplyAtTimestamp",
      "outputs": [
        {
          "internalType": "uint256",
          "name": "",
          "type": "uint256"
        }
      ],
      "stateMutability": "view",
      "type": "function"
    },
    {
      "inputs": [
        {
          "internalType": "address",
          "name": "user",
          "type": "address"
        },
        {
          "internalType": "uint256",
          "name": "timestamp",
          "type": "uint256"
        }
      ],
      "name": "getUserBalanceAtTimestamp",
      "outputs": [
        {
          "internalType": "uint256",
          "name": "",
          "type": "uint256"
        }
      ],
      "stateMutability": "view",
      "type": "function"
    },
    {
      "inputs": [
        {
          "internalType": "address",
          "name": "user",
          "type": "address"
        }
      ],
      "name": "getUserTimeCursor",
      "outputs": [
        {
          "internalType": "uint256",
          "name": "",
          "type": "uint256"
        }
      ],
      "stateMutability": "view",
      "type": "function"
    },
    {
      "inputs": [
        {
          "internalType": "address",
          "name": "user",
          "type": "address"
        },
        {
          "internalType": "contract IERC20",
          "name": "token",
          "type": "address"
        }
      ],
      "name": "getUserTokenTimeCursor",
      "outputs": [
        {
          "internalType": "uint256",
          "name": "",
          "type": "uint256"
        }
      ],
      "stateMutability": "view",
      "type": "function"
    },
    {
      "inputs": [],
      "name": "getVotingEscrow",
      "outputs": [
        {
          "internalType": "contract IVotingEscrow",
          "name": "",
          "type": "address"
        }
      ],
      "stateMutability": "view",
      "type": "function"
    }
  ],
  "transactionHash": "0x024d67d8c3d3b447daed049d5549a4192afad563f4888522e4a175b283d49808",
  "args": [
    "0xf183287df9cB613c16989C16BF60537592fA736c",
    1659898800
  ],
  "numDeployments": 1,
  "solcInputHash": "83dc9dc786783028b462be361f92498e",
  "bytecode": "0x60c06040523480156200001157600080fd5b50604051620020033803806200200383398101604081905262000034916200015d565b60016000556001600160601b0319606083901b16608052620000568162000151565b90506000620000654262000151565b905080821015620000935760405162461bcd60e51b81526004016200008a90620001b0565b60405180910390fd5b80821415620001415760405163bd85b03960e01b81526000906001600160a01b0385169063bd85b03990620000cd9085906004016200022d565b60206040518083038186803b158015620000e657600080fd5b505afa158015620000fb573d6000803e3d6000fd5b505050506040513d601f19601f8201168201806040525081019062000121919062000197565b11620001415760405162461bcd60e51b81526004016200008a90620001e5565b5060a08190526001555062000236565b62093a80908190040290565b6000806040838503121562000170578182fd5b82516001600160a01b038116811462000187578283fd5b6020939093015192949293505050565b600060208284031215620001a9578081fd5b5051919050565b6020808252818101527f43616e6e6f74207374617274206265666f72652063757272656e74207765656b604082015260600190565b60208082526028908201527f5a65726f20746f74616c20737570706c7920726573756c747320696e206c6f736040820152677420746f6b656e7360c01b606082015260800190565b90815260200190565b60805160601c60a051611d796200028a600039806104bf528061085852806109a35280610d21525080610276528061077a52806109105280610ac3528061121e52806112f252806115d35250611d796000f3fe608060405234801561001057600080fd5b506004361061011b5760003560e01c806382aa5ad4116100b2578063acbc142811610081578063ca31879d11610066578063ca31879d1461023b578063d3dc4ca11461024e578063de681faf146102615761011b565b8063acbc142814610220578063c2c4c5c1146102335761011b565b806382aa5ad4146101d2578063876e69a1146101da57806388720467146101ed578063905d10ac1461020d5761011b565b80633902b9bc116100ee5780633902b9bc146101865780634f3c5090146101995780637b8d6221146101ac5780638050a7ee146101bf5761011b565b806308b0308a1461012057806314866e081461013e5780632308805b14610153578063338b5dea14610173575b600080fd5b610128610274565b6040516101359190611b95565b60405180910390f35b61015161014c36600461197f565b610298565b005b61016661016136600461197f565b6102b4565b6040516101359190611d18565b610151610181366004611a26565b610306565b61015161019436600461197f565b610352565b6101666101a7366004611b65565b610365565b6101516101ba366004611a91565b610377565b6101666101cd3660046119ee565b61045a565b61016661046f565b6101666101e836600461197f565b610475565b6102006101fb36600461199b565b6104b3565b6040516101359190611c12565b61015161021b366004611a51565b6105ed565b61016661022e36600461197f565b610622565b610151610660565b6101666102493660046119ee565b61067a565b61016661025c366004611a26565b6106b7565b61016661026f366004611a26565b6106ec565b7f000000000000000000000000000000000000000000000000000000000000000090565b6102a0610721565b6102a98161073a565b6102b1610c92565b50565b73ffffffffffffffffffffffffffffffffffffffff811660009081526003602052604090205470010000000000000000000000000000000090046fffffffffffffffffffffffffffffffff165b919050565b61030e610721565b610319826000610c99565b61033b73ffffffffffffffffffffffffffffffffffffffff83163330846110c3565b610346826001610c99565b61034e610c92565b5050565b61035a610721565b6102a9816001610c99565b60009081526002602052604090205490565b61037f610721565b6103898382611158565b8260005b8181101561044a576103c08686838181106103a457fe5b90506020020160208101906103b9919061197f565b6000610c99565b61041733308686858181106103d157fe5b905060200201358989868181106103e457fe5b90506020020160208101906103f9919061197f565b73ffffffffffffffffffffffffffffffffffffffff169291906110c3565b61044286868381811061042657fe5b905060200201602081019061043b919061197f565b6001610c99565b60010161038d565b5050610454610c92565b50505050565b60006104668383611165565b90505b92915050565b60015490565b73ffffffffffffffffffffffffffffffffffffffff1660009081526005602052604090205468010000000000000000900467ffffffffffffffff1690565b60606104bd610721565b7f0000000000000000000000000000000000000000000000000000000000000000421161051f576040517f08c379a000000000000000000000000000000000000000000000000000000000815260040161051690611cbb565b60405180910390fd5b6105276111fd565b6105308461073a565b8160008167ffffffffffffffff8111801561054a57600080fd5b50604051908082528060200260200182016040528015610574578160200160208202803683370190505b50905060005b828110156105da576105918686838181106103a457fe5b6105bb878787848181106105a157fe5b90506020020160208101906105b6919061197f565b61139d565b8282815181106105c757fe5b602090810291909101015260010161057a565b509150506105e6610c92565b9392505050565b6105f5610721565b8060005b818110156106185761061084848381811061042657fe5b6001016105f9565b505061034e610c92565b73ffffffffffffffffffffffffffffffffffffffff1660009081526003602052604090205468010000000000000000900467ffffffffffffffff1690565b610668610721565b6106706111fd565b610678610c92565b565b6000610684610721565b61068c6111fd565b610697826000610c99565b6106a08361073a565b60006106ac848461139d565b915050610469610c92565b73ffffffffffffffffffffffffffffffffffffffff919091166000908152600460209081526040808320938352929052205490565b73ffffffffffffffffffffffffffffffffffffffff919091166000908152600660209081526040808320938352929052205490565b61073360026000541415610190611561565b6002600055565b6040517f010ae75700000000000000000000000000000000000000000000000000000000815260009073ffffffffffffffffffffffffffffffffffffffff7f0000000000000000000000000000000000000000000000000000000000000000169063010ae757906107af908590600401611b95565b60206040518083038186803b1580156107c757600080fd5b505afa1580156107db573d6000803e3d6000fd5b505050506040513d601f19601f820116820180604052508101906107ff9190611b7d565b90508061080c57506102b1565b73ffffffffffffffffffffffffffffffffffffffff82166000908152600560205260408120805490916801000000000000000090910467ffffffffffffffff1690816108845761087d857f00000000000000000000000000000000000000000000000000000000000000008661156f565b90506108c7565b61088d4261168b565b82141561089d57505050506102b1565b50815470010000000000000000000000000000000090046fffffffffffffffffffffffffffffffff165b806108d0575060015b6040517f28d09d4700000000000000000000000000000000000000000000000000000000815260009073ffffffffffffffffffffffffffffffffffffffff7f000000000000000000000000000000000000000000000000000000000000000016906328d09d47906109479089908690600401611bec565b60806040518083038186803b15801561095f57600080fd5b505afa158015610973573d6000803e3d6000fd5b505050506040513d601f19601f820116820180604052508101906109979190611afa565b905082610a09576109d47f00000000000000000000000000000000000000000000000000000000000000006109cf8360400151611697565b6116a7565b84547fffffffffffffffffffffffffffffffffffffffffffffffff00000000000000001667ffffffffffffffff821617855592505b610a116118f6565b60005b6032811015610bf75742851115610a2a57610bf7565b82604001518510158015610a3e5750868411155b15610b525760018401935082915086841115610a865760405180608001604052806000600f0b81526020016000600f0b81526020016000815260200160008152509250610b4d565b6040517f28d09d4700000000000000000000000000000000000000000000000000000000815273ffffffffffffffffffffffffffffffffffffffff7f000000000000000000000000000000000000000000000000000000000000000016906328d09d4790610afa908b908890600401611bec565b60806040518083038186803b158015610b1257600080fd5b505afa158015610b26573d6000803e3d6000fd5b505050506040513d601f19601f82011682018060405250810190610b4a9190611afa565b92505b610bef565b6000826040015186039050600081846020015102600f0b8460000151600f0b13610b7d576000610b8e565b81846020015102846000015103600f0b5b905080158015610b9d57508886115b15610bb457610bab42611697565b96505050610bf7565b73ffffffffffffffffffffffffffffffffffffffff8a1660009081526006602090815260408083208a84529091529020555062093a80909401935b600101610a14565b505083546fffffffffffffffffffffffffffffffff167fffffffffffffffffffffffffffffffffffffffffffffffffffffffffffffffff9290920167ffffffffffffffff90811670010000000000000000000000000000000002929092177fffffffffffffffffffffffffffffffff0000000000000000ffffffffffffffff1668010000000000000000939092169290920217909155505050565b6001600055565b73ffffffffffffffffffffffffffffffffffffffff82166000908152600360205260408120805490916801000000000000000090910467ffffffffffffffff169081610d7d57429150610ceb4261168b565b83547fffffffffffffffffffffffffffffffffffffffffffffffff00000000000000001667ffffffffffffffff919091161783557f00000000000000000000000000000000000000000000000000000000000000004211610d78576040517f08c379a000000000000000000000000000000000000000000000000000000000815260040161051690611cbb565b610dcf565b814203905083610dcf576000610d928361168b565b610d9b4261168b565b14905060006201518042610dae42611697565b03109050818015610dbd575080155b15610dcc57505050505061034e565b50505b82547fffffffffffffffffffffffffffffffff0000000000000000ffffffffffffffff16680100000000000000004267ffffffffffffffff16021783556040517f70a0823100000000000000000000000000000000000000000000000000000000815260009073ffffffffffffffffffffffffffffffffffffffff8716906370a0823190610e61903090600401611b95565b60206040518083038186803b158015610e7957600080fd5b505afa158015610e8d573d6000803e3d6000fd5b505050506040513d601f19601f82011682018060405250810190610eb19190611b7d565b8454909150600090610eea90839070010000000000000000000000000000000090046fffffffffffffffffffffffffffffffff166116be565b905080610efb57505050505061034e565b6fffffffffffffffffffffffffffffffff821115610f45576040517f08c379a000000000000000000000000000000000000000000000000000000000815260040161051690611c84565b84546fffffffffffffffffffffffffffffffff8084167001000000000000000000000000000000000291161785556000610f7e8561168b565b73ffffffffffffffffffffffffffffffffffffffff8916600090815260046020526040812091925090815b601481101561107b578362093a80019250824210156110195786158015610fcf57508742145b15610fed576000848152602083905260409020805486019055611014565b86884203860281610ffa57fe5b600086815260208590526040902080549290910490910190555b61107b565b8615801561102657508783145b1561104457600084815260208390526040902080548601905561106b565b8688840386028161105157fe5b600086815260208590526040902080549290910490910190555b9196508692508291600101610fa9565b507f9b7f1a85a4c9b4e59e1b6527d9969c50cdfb3a1a467d0c4a51fb0ed8bf07f1308a85896040516110af93929190611c56565b60405180910390a150505050505050505050565b6040805173ffffffffffffffffffffffffffffffffffffffff80861660248301528416604482015260648082018490528251808303909101815260849091019091526020810180517bffffffffffffffffffffffffffffffffffffffffffffffffffffffff167f23b872dd000000000000000000000000000000000000000000000000000000001790526104549085906116cc565b61034e8183146067611561565b73ffffffffffffffffffffffffffffffffffffffff808316600090815260076020908152604080832093851683529290529081205480156111a7579050610469565b73ffffffffffffffffffffffffffffffffffffffff808516600090815260056020908152604080832054938716835260039091529020546111f59167ffffffffffffffff90811691166116a7565b949350505050565b600154600061120b4261168b565b90508082111561121c575050610678565b7f000000000000000000000000000000000000000000000000000000000000000073ffffffffffffffffffffffffffffffffffffffff1663c2c4c5c16040518163ffffffff1660e01b8152600401600060405180830381600087803b15801561128457600080fd5b505af1158015611298573d6000803e3d6000fd5b5050505060005b601481101561139657818311156112b557611396565b6040517fbd85b03900000000000000000000000000000000000000000000000000000000815273ffffffffffffffffffffffffffffffffffffffff7f0000000000000000000000000000000000000000000000000000000000000000169063bd85b03990611327908690600401611d18565b60206040518083038186803b15801561133f57600080fd5b505afa158015611353573d6000803e3d6000fd5b505050506040513d601f19601f820116820180604052508101906113779190611b7d565b60008481526002602052604090205562093a809092019160010161129f565b5050600155565b73ffffffffffffffffffffffffffffffffffffffff81166000908152600360205260408120816113cd8585611165565b82549091506000906113f49068010000000000000000900467ffffffffffffffff1661168b565b73ffffffffffffffffffffffffffffffffffffffff8087166000908152600460209081526040808320938b16835260069091528120929350909190805b60148110156114855784861061144657611485565b6000868152600260209081526040808320548683528184205492889052922054028161146e57fe5b62093a809790970196049190910190600101611431565b5073ffffffffffffffffffffffffffffffffffffffff808a166000908152600760209081526040808320938c1683529290522085905580156115555785546fffffffffffffffffffffffffffffffff7001000000000000000000000000000000008083048216849003821602911617865561151773ffffffffffffffffffffffffffffffffffffffff89168a836117e1565b7fff097c7d8b1957a4ff09ef1361b5fb54dcede3941ba836d0beb9d10bec725de68989838860405161154c9493929190611bb6565b60405180910390a15b98975050505050505050565b8161034e5761034e81611873565b60008082815b60808110156116805781831061158a57611680565b6040517f28d09d4700000000000000000000000000000000000000000000000000000000815260028385018101049060009073ffffffffffffffffffffffffffffffffffffffff7f000000000000000000000000000000000000000000000000000000000000000016906328d09d479061160a908c908690600401611bec565b60806040518083038186803b15801561162257600080fd5b505afa158015611636573d6000803e3d6000fd5b505050506040513d601f19601f8201168201806040525081019061165a9190611afa565b90508781604001511161166f57819450611676565b6001820393505b5050600101611575565b509095945050505050565b62093a80908190040290565b600061046962093a7f830161168b565b6000818310156116b75781610466565b5090919050565b6000610466838360016118e0565b6000808373ffffffffffffffffffffffffffffffffffffffff16836040518082805190602001908083835b6020831061173457805182527fffffffffffffffffffffffffffffffffffffffffffffffffffffffffffffffe090920191602091820191016116f7565b6001836020036101000a0380198251168184511680821785525050505050509050019150506000604051808303816000865af19150503d8060008114611796576040519150601f19603f3d011682016040523d82523d6000602084013e61179b565b606091505b509150915060008214156117b3573d6000803e3d6000fd5b6104548151600014806117d957508180602001905160208110156117d657600080fd5b50515b6101a2611561565b6040805173ffffffffffffffffffffffffffffffffffffffff8416602482015260448082018490528251808303909101815260649091019091526020810180517bffffffffffffffffffffffffffffffffffffffffffffffffffffffff167fa9059cbb0000000000000000000000000000000000000000000000000000000017905261186e9084906116cc565b505050565b7f08c379a0000000000000000000000000000000000000000000000000000000006000908152602060045260076024526642414c23000030600a808404818106603090810160081b95839006959095019082900491820690940160101b939093010160c81b604452606490fd5b60006118ef8484111583611561565b5050900390565b60405180608001604052806000600f0b81526020016000600f0b815260200160008152602001600081525090565b60008083601f840112611935578182fd5b50813567ffffffffffffffff81111561194c578182fd5b602083019150836020808302850101111561196657600080fd5b9250929050565b8051600f81900b811461030157600080fd5b600060208284031215611990578081fd5b81356105e681611d21565b6000806000604084860312156119af578182fd5b83356119ba81611d21565b9250602084013567ffffffffffffffff8111156119d5578283fd5b6119e186828701611924565b9497909650939450505050565b60008060408385031215611a00578182fd5b8235611a0b81611d21565b91506020830135611a1b81611d21565b809150509250929050565b60008060408385031215611a38578182fd5b8235611a4381611d21565b946020939093013593505050565b60008060208385031215611a63578182fd5b823567ffffffffffffffff811115611a79578283fd5b611a8585828601611924565b90969095509350505050565b60008060008060408587031215611aa6578081fd5b843567ffffffffffffffff80821115611abd578283fd5b611ac988838901611924565b90965094506020870135915080821115611ae1578283fd5b50611aee87828801611924565b95989497509550505050565b600060808284031215611b0b578081fd5b6040516080810181811067ffffffffffffffff82111715611b2857fe5b604052611b348361196d565b8152611b426020840161196d565b602082015260408301516040820152606083015160608201528091505092915050565b600060208284031215611b76578081fd5b5035919050565b600060208284031215611b8e578081fd5b5051919050565b73ffffffffffffffffffffffffffffffffffffffff91909116815260200190565b73ffffffffffffffffffffffffffffffffffffffff94851681529290931660208301526040820152606081019190915260800190565b73ffffffffffffffffffffffffffffffffffffffff929092168252602082015260400190565b6020808252825182820181905260009190848201906040850190845b81811015611c4a57835183529284019291840191600101611c2e565b50909695505050505050565b73ffffffffffffffffffffffffffffffffffffffff9390931683526020830191909152604082015260600190565b6020808252601e908201527f4d6178696d756d20746f6b656e2062616c616e63652065786365656465640000604082015260600190565b60208082526024908201527f46656520646973747269627574696f6e20686173206e6f74207374617274656460408201527f2079657400000000000000000000000000000000000000000000000000000000606082015260800190565b90815260200190565b73ffffffffffffffffffffffffffffffffffffffff811681146102b157600080fdfea2646970667358221220c0ab9d5769f9336c0a5f3f7000387eab204d194177e109f2fa1d18009ab0f58764736f6c63430007060033",
  "devdoc": {
    "details": "Supports distributing arbitrarily many different tokens. In order to start distributing a new token to veBAL holders simply transfer the tokens to the `FeeDistributor` contract and then call `checkpointToken`.",
    "kind": "dev",
    "methods": {
      "checkpointToken(address)": {
        "details": "Any `token` balance held by the FeeDistributor above that which is returned by `getTokenLastBalance` will be distributed evenly across the time period since `token` was last checkpointed. This function will be called automatically before claiming tokens to ensure the contract is properly updated.",
        "params": {
          "token": "- The ERC20 token address to be checkpointed."
        }
      },
      "checkpointTokens(address[])": {
        "details": "A version of `checkpointToken` which supports checkpointing multiple tokens. See `checkpointToken` for more details.",
        "params": {
          "tokens": "- An array of ERC20 token addresses to be checkpointed."
        }
      },
      "checkpointUser(address)": {
        "params": {
          "user": "- The address of the user to be checkpointed."
        }
      },
      "claimToken(address,address)": {
        "details": "It's not necessary to explicitly checkpoint before calling this function, it will ensure the FeeDistributor is up to date before calculating the amount of tokens to be claimed.",
        "params": {
          "token": "- The ERC20 token address to be claimed.",
          "user": "- The user on behalf of which to claim."
        },
        "returns": {
          "_0": "The amount of `token` sent to `user` as a result of claiming."
        }
      },
      "claimTokens(address,address[])": {
        "details": "A version of `claimToken` which supports claiming multiple `tokens` on behalf of `user`. See `claimToken` for more details.",
        "params": {
          "tokens": "- An array of ERC20 token addresses to be claimed.",
          "user": "- The user on behalf of which to claim."
        },
        "returns": {
          "_0": "An array of the amounts of each token in `tokens` sent to `user` as a result of claiming."
        }
      },
      "depositToken(address,uint256)": {
        "details": "Sending tokens directly to the FeeDistributor instead of using `depositToken` may result in tokens being retroactively distributed to past weeks, or for the distribution to carry over to future weeks. If for some reason `depositToken` cannot be called, in order to ensure that all tokens are correctly distributed manually call `checkpointToken` before and after the token transfer.",
        "params": {
          "amount": "- The amount of tokens to deposit.",
          "token": "- The ERC20 token address to distribute."
        }
      },
      "depositTokens(address[],uint256[])": {
        "details": "A version of `depositToken` which supports depositing multiple `tokens` at once. See `depositToken` for more details.",
        "params": {
          "amounts": "- An array of token amounts to deposit.",
          "tokens": "- An array of ERC20 token addresses to distribute."
        }
      },
      "getTokenTimeCursor(address)": {
        "params": {
          "token": "- The ERC20 token address to query."
        }
      },
      "getTokensDistributedInWeek(address,uint256)": {
        "params": {
          "timestamp": "- The timestamp corresponding to the beginning of the week of interest.",
          "token": "- The ERC20 token address to query."
        }
      },
      "getTotalSupplyAtTimestamp(uint256)": {
        "details": "Only timestamps which fall on Thursdays 00:00:00 UTC will return correct values. This function requires the contract to have been checkpointed past `timestamp` so that the supply is cached.",
        "params": {
          "timestamp": "- The timestamp at which to read the cached total supply at."
        }
      },
      "getUserBalanceAtTimestamp(address,uint256)": {
        "details": "Only timestamps which fall on Thursdays 00:00:00 UTC will return correct values. This function requires `user` to have been checkpointed past `timestamp` so that their balance is cached.",
        "params": {
          "timestamp": "- The timestamp at which to read the `user`'s cached balance at.",
          "user": "- The address of the user of which to read the cached balance of."
        }
      },
      "getUserTimeCursor(address)": {
        "params": {
          "user": "- The address of the user to query."
        }
      },
      "getUserTokenTimeCursor(address,address)": {
        "params": {
          "token": "- The ERC20 token address to query.",
          "user": "- The address of the user to query."
        }
      }
    },
    "title": "Fee Distributor",
    "version": 1
  },
  "userdoc": {
    "kind": "user",
    "methods": {
      "checkpoint()": {
        "notice": "Caches the total supply of veBAL at the beginning of each week. This function will be called automatically before claiming tokens to ensure the contract is properly updated."
      },
      "checkpointToken(address)": {
        "notice": "Assigns any newly-received tokens held by the FeeDistributor to weekly distributions."
      },
      "checkpointTokens(address[])": {
        "notice": "Assigns any newly-received tokens held by the FeeDistributor to weekly distributions."
      },
      "checkpointUser(address)": {
        "notice": "Caches the user's balance of veBAL at the beginning of each week. This function will be called automatically before claiming tokens to ensure the contract is properly updated."
      },
      "claimToken(address,address)": {
        "notice": "Claims all pending distributions of the provided token for a user."
      },
      "claimTokens(address,address[])": {
        "notice": "Claims a number of tokens on behalf of a user."
      },
      "depositToken(address,uint256)": {
        "notice": "Deposits tokens to be distributed in the current week."
      },
      "depositTokens(address[],uint256[])": {
        "notice": "Deposits tokens to be distributed in the current week."
      },
      "getTimeCursor()": {
        "notice": "Returns the global time cursor representing the most earliest uncheckpointed week."
      },
      "getTokenLastBalance(address)": {
        "notice": "Returns the FeeDistributor's cached balance of `token`."
      },
      "getTokenTimeCursor(address)": {
        "notice": "Returns the token-level time cursor storing the timestamp at up to which tokens have been distributed."
      },
      "getTokensDistributedInWeek(address,uint256)": {
        "notice": "Returns the amount of `token` which the FeeDistributor received in the week beginning at `timestamp`."
      },
      "getTotalSupplyAtTimestamp(uint256)": {
        "notice": "Returns the cached total supply of veBAL as of the provided timestamp."
      },
      "getUserBalanceAtTimestamp(address,uint256)": {
        "notice": "Returns the user's cached balance of veBAL as of the provided timestamp."
      },
      "getUserTimeCursor(address)": {
        "notice": "Returns the user-level time cursor representing the most earliest uncheckpointed week."
      },
      "getUserTokenTimeCursor(address,address)": {
        "notice": "Returns the user-level time cursor storing the timestamp of the latest token distribution claimed."
      },
      "getVotingEscrow()": {
        "notice": "Returns the VotingEscrow (veBAL) token contract"
      }
    },
    "notice": "Distributes any tokens transferred to the contract (e.g. Protocol fees and any BAL emissions) among veBAL holders proportionally based on a snapshot of the week at which the tokens are sent to the FeeDistributor contract.",
    "version": 1
  },
  "storageLayout": {
    "storage": [
      {
        "astId": 3300,
        "contract": "@aurora-balancer-labs/v2-liquidity-mining/contracts/fee-distribution/FeeDistributor.sol:FeeDistributor",
        "label": "_status",
        "offset": 0,
        "slot": "0",
        "type": "t_uint256"
      },
      {
        "astId": 1483,
        "contract": "@aurora-balancer-labs/v2-liquidity-mining/contracts/fee-distribution/FeeDistributor.sol:FeeDistributor",
        "label": "_timeCursor",
        "offset": 0,
        "slot": "1",
        "type": "t_uint256"
      },
      {
        "astId": 1487,
        "contract": "@aurora-balancer-labs/v2-liquidity-mining/contracts/fee-distribution/FeeDistributor.sol:FeeDistributor",
        "label": "_veSupplyCache",
        "offset": 0,
        "slot": "2",
        "type": "t_mapping(t_uint256,t_uint256)"
      },
      {
        "astId": 1498,
        "contract": "@aurora-balancer-labs/v2-liquidity-mining/contracts/fee-distribution/FeeDistributor.sol:FeeDistributor",
        "label": "_tokenState",
        "offset": 0,
        "slot": "3",
        "type": "t_mapping(t_contract(IERC20)887,t_struct(TokenState)1494_storage)"
      },
      {
        "astId": 1504,
        "contract": "@aurora-balancer-labs/v2-liquidity-mining/contracts/fee-distribution/FeeDistributor.sol:FeeDistributor",
        "label": "_tokensPerWeek",
        "offset": 0,
        "slot": "4",
        "type": "t_mapping(t_contract(IERC20)887,t_mapping(t_uint256,t_uint256))"
      },
      {
        "astId": 1515,
        "contract": "@aurora-balancer-labs/v2-liquidity-mining/contracts/fee-distribution/FeeDistributor.sol:FeeDistributor",
        "label": "_userState",
        "offset": 0,
        "slot": "5",
        "type": "t_mapping(t_address,t_struct(UserState)1511_storage)"
      },
      {
        "astId": 1521,
        "contract": "@aurora-balancer-labs/v2-liquidity-mining/contracts/fee-distribution/FeeDistributor.sol:FeeDistributor",
        "label": "_userBalanceAtTimestamp",
        "offset": 0,
        "slot": "6",
        "type": "t_mapping(t_address,t_mapping(t_uint256,t_uint256))"
      },
      {
        "astId": 1527,
        "contract": "@aurora-balancer-labs/v2-liquidity-mining/contracts/fee-distribution/FeeDistributor.sol:FeeDistributor",
        "label": "_userTokenTimeCursor",
        "offset": 0,
        "slot": "7",
        "type": "t_mapping(t_address,t_mapping(t_contract(IERC20)887,t_uint256))"
      }
    ],
    "types": {
      "t_address": {
        "encoding": "inplace",
        "label": "address",
        "numberOfBytes": "20"
      },
      "t_contract(IERC20)887": {
        "encoding": "inplace",
        "label": "contract IERC20",
        "numberOfBytes": "20"
      },
      "t_mapping(t_address,t_mapping(t_contract(IERC20)887,t_uint256))": {
        "encoding": "mapping",
        "key": "t_address",
        "label": "mapping(address => mapping(contract IERC20 => uint256))",
        "numberOfBytes": "32",
        "value": "t_mapping(t_contract(IERC20)887,t_uint256)"
      },
      "t_mapping(t_address,t_mapping(t_uint256,t_uint256))": {
        "encoding": "mapping",
        "key": "t_address",
        "label": "mapping(address => mapping(uint256 => uint256))",
        "numberOfBytes": "32",
        "value": "t_mapping(t_uint256,t_uint256)"
      },
      "t_mapping(t_address,t_struct(UserState)1511_storage)": {
        "encoding": "mapping",
        "key": "t_address",
        "label": "mapping(address => struct FeeDistributor.UserState)",
        "numberOfBytes": "32",
        "value": "t_struct(UserState)1511_storage"
      },
      "t_mapping(t_contract(IERC20)887,t_mapping(t_uint256,t_uint256))": {
        "encoding": "mapping",
        "key": "t_contract(IERC20)887",
        "label": "mapping(contract IERC20 => mapping(uint256 => uint256))",
        "numberOfBytes": "32",
        "value": "t_mapping(t_uint256,t_uint256)"
      },
      "t_mapping(t_contract(IERC20)887,t_struct(TokenState)1494_storage)": {
        "encoding": "mapping",
        "key": "t_contract(IERC20)887",
        "label": "mapping(contract IERC20 => struct FeeDistributor.TokenState)",
        "numberOfBytes": "32",
        "value": "t_struct(TokenState)1494_storage"
      },
      "t_mapping(t_contract(IERC20)887,t_uint256)": {
        "encoding": "mapping",
        "key": "t_contract(IERC20)887",
        "label": "mapping(contract IERC20 => uint256)",
        "numberOfBytes": "32",
        "value": "t_uint256"
      },
      "t_mapping(t_uint256,t_uint256)": {
        "encoding": "mapping",
        "key": "t_uint256",
        "label": "mapping(uint256 => uint256)",
        "numberOfBytes": "32",
        "value": "t_uint256"
      },
      "t_struct(TokenState)1494_storage": {
        "encoding": "inplace",
        "label": "struct FeeDistributor.TokenState",
        "members": [
          {
            "astId": 1489,
            "contract": "@aurora-balancer-labs/v2-liquidity-mining/contracts/fee-distribution/FeeDistributor.sol:FeeDistributor",
            "label": "startTime",
            "offset": 0,
            "slot": "0",
            "type": "t_uint64"
          },
          {
            "astId": 1491,
            "contract": "@aurora-balancer-labs/v2-liquidity-mining/contracts/fee-distribution/FeeDistributor.sol:FeeDistributor",
            "label": "timeCursor",
            "offset": 8,
            "slot": "0",
            "type": "t_uint64"
          },
          {
            "astId": 1493,
            "contract": "@aurora-balancer-labs/v2-liquidity-mining/contracts/fee-distribution/FeeDistributor.sol:FeeDistributor",
            "label": "cachedBalance",
            "offset": 16,
            "slot": "0",
            "type": "t_uint128"
          }
        ],
        "numberOfBytes": "32"
      },
      "t_struct(UserState)1511_storage": {
        "encoding": "inplace",
        "label": "struct FeeDistributor.UserState",
        "members": [
          {
            "astId": 1506,
            "contract": "@aurora-balancer-labs/v2-liquidity-mining/contracts/fee-distribution/FeeDistributor.sol:FeeDistributor",
            "label": "startTime",
            "offset": 0,
            "slot": "0",
            "type": "t_uint64"
          },
          {
            "astId": 1508,
            "contract": "@aurora-balancer-labs/v2-liquidity-mining/contracts/fee-distribution/FeeDistributor.sol:FeeDistributor",
            "label": "timeCursor",
            "offset": 8,
            "slot": "0",
            "type": "t_uint64"
          },
          {
            "astId": 1510,
            "contract": "@aurora-balancer-labs/v2-liquidity-mining/contracts/fee-distribution/FeeDistributor.sol:FeeDistributor",
            "label": "lastEpochCheckpointed",
            "offset": 16,
            "slot": "0",
            "type": "t_uint128"
          }
        ],
        "numberOfBytes": "32"
      },
      "t_uint128": {
        "encoding": "inplace",
        "label": "uint128",
        "numberOfBytes": "16"
      },
      "t_uint256": {
        "encoding": "inplace",
        "label": "uint256",
        "numberOfBytes": "32"
      },
      "t_uint64": {
        "encoding": "inplace",
        "label": "uint64",
        "numberOfBytes": "8"
      }
    }
  }
}