{
  "address": "0x362A1844be1209073Fa31561c5c1d6D893255B42",
  "abi": [
    {
      "inputs": [
        {
          "internalType": "address",
          "name": "_owner",
          "type": "address"
        },
        {
          "internalType": "address",
          "name": "_timelock_address",
          "type": "address"
        },
        {
          "internalType": "address",
          "name": "_curator_address",
          "type": "address"
        },
        {
          "internalType": "address",
          "name": "_reward_token_address",
          "type": "address"
        },
        {
          "internalType": "address",
          "name": "_gauge_controller_address",
          "type": "address"
        },
        {
          "internalType": "uint256",
          "name": "_global_emission_rate",
          "type": "uint256"
        }
      ],
      "stateMutability": "nonpayable",
      "type": "constructor"
    },
    {
      "anonymous": false,
      "inputs": [
        {
          "indexed": false,
          "internalType": "bool",
          "name": "distibutions_state",
          "type": "bool"
        }
      ],
      "name": "DistributionsToggled",
      "type": "event"
    },
    {
      "anonymous": false,
      "inputs": [
        {
          "indexed": false,
          "internalType": "address",
          "name": "gauge_address",
          "type": "address"
        },
        {
          "indexed": false,
          "internalType": "bool",
          "name": "is_middleman",
          "type": "bool"
        },
        {
          "indexed": false,
          "internalType": "bool",
          "name": "is_active",
          "type": "bool"
        }
      ],
      "name": "GaugeStateChanged",
      "type": "event"
    },
    {
      "anonymous": false,
      "inputs": [
        {
          "indexed": false,
          "internalType": "address",
          "name": "oldOwner",
          "type": "address"
        },
        {
          "indexed": false,
          "internalType": "address",
          "name": "newOwner",
          "type": "address"
        }
      ],
      "name": "OwnerChanged",
      "type": "event"
    },
    {
      "anonymous": false,
      "inputs": [
        {
          "indexed": false,
          "internalType": "address",
          "name": "newOwner",
          "type": "address"
        }
      ],
      "name": "OwnerNominated",
      "type": "event"
    },
    {
      "anonymous": false,
      "inputs": [
        {
          "indexed": false,
          "internalType": "address",
          "name": "token",
          "type": "address"
        },
        {
          "indexed": false,
          "internalType": "uint256",
          "name": "amount",
          "type": "uint256"
        }
      ],
      "name": "RecoveredERC20",
      "type": "event"
    },
    {
      "anonymous": false,
      "inputs": [
        {
          "indexed": true,
          "internalType": "address",
          "name": "gauge_address",
          "type": "address"
        },
        {
          "indexed": false,
          "internalType": "uint256",
          "name": "reward_amount",
          "type": "uint256"
        }
      ],
      "name": "RewardDistributed",
      "type": "event"
    },
    {
      "inputs": [],
      "name": "acceptOwnership",
      "outputs": [],
      "stateMutability": "nonpayable",
      "type": "function"
    },
    {
      "inputs": [],
      "name": "curator_address",
      "outputs": [
        {
          "internalType": "address",
          "name": "",
          "type": "address"
        }
      ],
      "stateMutability": "view",
      "type": "function"
    },
    {
      "inputs": [
        {
          "internalType": "address",
          "name": "gauge_address",
          "type": "address"
        }
      ],
      "name": "currentReward",
      "outputs": [
        {
          "internalType": "uint256",
          "name": "reward_amount",
          "type": "uint256"
        }
      ],
      "stateMutability": "view",
      "type": "function"
    },
    {
      "inputs": [
        {
          "internalType": "address",
          "name": "gauge_address",
          "type": "address"
        }
      ],
      "name": "distributeReward",
      "outputs": [
        {
          "internalType": "uint256",
          "name": "weeks_elapsed",
          "type": "uint256"
        },
        {
          "internalType": "uint256",
          "name": "reward_tally",
          "type": "uint256"
        }
      ],
      "stateMutability": "nonpayable",
      "type": "function"
    },
    {
      "inputs": [],
      "name": "distributionsOn",
      "outputs": [
        {
          "internalType": "bool",
          "name": "",
          "type": "bool"
        }
      ],
      "stateMutability": "view",
      "type": "function"
    },
    {
      "inputs": [],
      "name": "gauge_controller",
      "outputs": [
        {
          "internalType": "contract IGaugeController",
          "name": "",
          "type": "address"
        }
      ],
      "stateMutability": "view",
      "type": "function"
    },
    {
      "inputs": [
        {
          "internalType": "address",
          "name": "",
          "type": "address"
        }
      ],
      "name": "gauge_whitelist",
      "outputs": [
        {
          "internalType": "bool",
          "name": "",
          "type": "bool"
        }
      ],
      "stateMutability": "view",
      "type": "function"
    },
    {
      "inputs": [],
      "name": "global_emission_rate",
      "outputs": [
        {
          "internalType": "uint256",
          "name": "",
          "type": "uint256"
        }
      ],
      "stateMutability": "view",
      "type": "function"
    },
    {
      "inputs": [
        {
          "internalType": "address",
          "name": "",
          "type": "address"
        }
      ],
      "name": "is_middleman",
      "outputs": [
        {
          "internalType": "bool",
          "name": "",
          "type": "bool"
        }
      ],
      "stateMutability": "view",
      "type": "function"
    },
    {
      "inputs": [
        {
          "internalType": "address",
          "name": "",
          "type": "address"
        }
      ],
      "name": "last_time_gauge_paid",
      "outputs": [
        {
          "internalType": "uint256",
          "name": "",
          "type": "uint256"
        }
      ],
      "stateMutability": "view",
      "type": "function"
    },
    {
      "inputs": [
        {
          "internalType": "address",
          "name": "_owner",
          "type": "address"
        }
      ],
      "name": "nominateNewOwner",
      "outputs": [],
      "stateMutability": "nonpayable",
      "type": "function"
    },
    {
      "inputs": [],
      "name": "nominatedOwner",
      "outputs": [
        {
          "internalType": "address",
          "name": "",
          "type": "address"
        }
      ],
      "stateMutability": "view",
      "type": "function"
    },
    {
      "inputs": [],
      "name": "owner",
      "outputs": [
        {
          "internalType": "address",
          "name": "",
          "type": "address"
        }
      ],
      "stateMutability": "view",
      "type": "function"
    },
    {
      "inputs": [
        {
          "internalType": "address",
          "name": "tokenAddress",
          "type": "address"
        },
        {
          "internalType": "uint256",
          "name": "tokenAmount",
          "type": "uint256"
        }
      ],
      "name": "recoverERC20",
      "outputs": [],
      "stateMutability": "nonpayable",
      "type": "function"
    },
    {
      "inputs": [],
      "name": "reward_token_address",
      "outputs": [
        {
          "internalType": "address",
          "name": "",
          "type": "address"
        }
      ],
      "stateMutability": "view",
      "type": "function"
    },
    {
      "inputs": [
        {
          "internalType": "address",
          "name": "_new_curator_address",
          "type": "address"
        }
      ],
      "name": "setCurator",
      "outputs": [],
      "stateMutability": "nonpayable",
      "type": "function"
    },
    {
      "inputs": [
        {
          "internalType": "address",
          "name": "_gauge_controller_address",
          "type": "address"
        }
      ],
      "name": "setGaugeController",
      "outputs": [],
      "stateMutability": "nonpayable",
      "type": "function"
    },
    {
      "inputs": [
        {
          "internalType": "address",
          "name": "_gauge_address",
          "type": "address"
        },
        {
          "internalType": "bool",
          "name": "_is_middleman",
          "type": "bool"
        },
        {
          "internalType": "bool",
          "name": "_is_active",
          "type": "bool"
        }
      ],
      "name": "setGaugeState",
      "outputs": [],
      "stateMutability": "nonpayable",
      "type": "function"
    },
    {
      "inputs": [
        {
          "internalType": "uint256",
          "name": "_global_emission_rate",
          "type": "uint256"
        }
      ],
      "name": "setGlobalEmissionRate",
      "outputs": [],
      "stateMutability": "nonpayable",
      "type": "function"
    },
    {
      "inputs": [
        {
          "internalType": "address",
          "name": "_new_timelock",
          "type": "address"
        }
      ],
      "name": "setTimelock",
      "outputs": [],
      "stateMutability": "nonpayable",
      "type": "function"
    },
    {
      "inputs": [],
      "name": "timelock_address",
      "outputs": [
        {
          "internalType": "address",
          "name": "",
          "type": "address"
        }
      ],
      "stateMutability": "view",
      "type": "function"
    },
    {
      "inputs": [],
      "name": "toggleDistributions",
      "outputs": [],
      "stateMutability": "nonpayable",
      "type": "function"
    }
  ],
  "transactionHash": "0x9628dc80d11d765fa5595ba8c33a61a1418a468c9fd6aa9c1af9df56cf156ceb",
  "args": [
    "0x56f34826Cc63151f74FA8f701E4f73C5EAae52AD",
    "0x90523c113517A59f6BEBC123b75612Aea9FD3140",
    "0xfecBad5D60725EB6fd10f8936e02fa203fd27E4b",
    "0x8888801aF4d980682e47f1A9036e589479e835C5",
    "0x16dff045De4421E836A42FC2e98d4Ec9015bd470",
    0
  ],
  "numDeployments": 2,
  "solcInputHash": "024a35284e104ed8092caf64de90af06",
  "bytecode": "0x60a060405260016002553480156200001657600080fd5b506040516200194c3803806200194c833981016040819052620000399162000166565b856001600160a01b038116620000955760405162461bcd60e51b815260206004820152601960248201527f4f776e657220616464726573732063616e6e6f74206265203000000000000000604482015260640160405180910390fd5b600080546001600160a01b0319166001600160a01b03831690811782556040805192835260208301919091527fb532073b38c83145e3e5135377a08bf9aab55bc0fd7c1179cd4fb995d2a5159c910160405180910390a150600580546001600160a01b03199081166001600160a01b039687161790915560048054821696861696909617909555918316608052600380549094169216919091179091556009805460ff19166001179055600a5550620001de565b80516001600160a01b03811681146200016157600080fd5b919050565b60008060008060008060c087890312156200018057600080fd5b6200018b8762000149565b95506200019b6020880162000149565b9450620001ab6040880162000149565b9350620001bb6060880162000149565b9250620001cb6080880162000149565b915060a087015190509295509295509295565b6080516117446200020860003960008181610297015281816109360152610a4301526117446000f3fe608060405234801561001057600080fd5b50600436106101815760003560e01c806379ba5097116100d8578063c1d56c741161008c578063dc6663c711610066578063dc6663c714610390578063e81e17c6146103b0578063e90956cf146103d057600080fd5b8063c1d56c741461033d578063c92073c114610350578063d8b9a0181461037057600080fd5b80638da5cb5b116100bd5780638da5cb5b146102f75780639d18e4b014610317578063bdacb3031461032a57600080fd5b806379ba5097146102dc5780638980f11f146102e457600080fd5b80632fd37b081161013a578063570b1e9911610114578063570b1e991461027f578063678a2226146102925780636ca81c1c146102b957600080fd5b80632fd37b081461020f578063305d6d5f1461023257806353a47bb71461023a57600080fd5b80630a3be7571161016b5780630a3be757146101c85780631627540c146101df5780631f8a7edf146101f257600080fd5b806291d2b814610186578063092193ab1461019b575b600080fd5b61019961019436600461150b565b6103e3565b005b6101ae6101a936600461150b565b6104d2565b604080519283526020830191909152015b60405180910390f35b6101d1600a5481565b6040519081526020016101bf565b6101996101ed36600461150b565b610ac8565b6009546101ff9060ff1681565b60405190151581526020016101bf565b6101ff61021d36600461150b565b60066020526000908152604090205460ff1681565b610199610be8565b60015461025a9073ffffffffffffffffffffffffffffffffffffffff1681565b60405173ffffffffffffffffffffffffffffffffffffffff90911681526020016101bf565b61019961028d36600461153e565b610d18565b61025a7f000000000000000000000000000000000000000000000000000000000000000081565b6101ff6102c736600461150b565b60076020526000908152604090205460ff1681565b610199610e65565b6101996102f2366004611587565b610fb0565b60005461025a9073ffffffffffffffffffffffffffffffffffffffff1681565b6101d161032536600461150b565b6110cd565b61019961033836600461150b565b6111a7565b61019961034b3660046115b1565b611291565b60055461025a9073ffffffffffffffffffffffffffffffffffffffff1681565b60035461025a9073ffffffffffffffffffffffffffffffffffffffff1681565b60045461025a9073ffffffffffffffffffffffffffffffffffffffff1681565b6101d16103be36600461150b565b60086020526000908152604090205481565b6101996103de36600461150b565b611339565b60005473ffffffffffffffffffffffffffffffffffffffff16331480610420575060045473ffffffffffffffffffffffffffffffffffffffff1633145b61048b576040517f08c379a000000000000000000000000000000000000000000000000000000000815260206004820152601560248201527f4e6f74206f776e6572206f722074696d656c6f636b000000000000000000000060448201526064015b60405180910390fd5b600380547fffffffffffffffffffffffff00000000000000000000000000000000000000001673ffffffffffffffffffffffffffffffffffffffff92909216919091179055565b600954600090819060ff161515600114610548576040517f08c379a000000000000000000000000000000000000000000000000000000000815260206004820152601560248201527f446973747269627574696f6e7320617265206f666600000000000000000000006044820152606401610482565b6002546001146105b4576040517f08c379a000000000000000000000000000000000000000000000000000000000815260206004820152600a60248201527f5245454e5452414e4359000000000000000000000000000000000000000000006044820152606401610482565b6002805573ffffffffffffffffffffffffffffffffffffffff831660009081526006602052604090205460ff16610647576040517f08c379a000000000000000000000000000000000000000000000000000000000815260206004820152601560248201527f4761756765206e6f742077686974656c697374656400000000000000000000006044820152606401610482565b73ffffffffffffffffffffffffffffffffffffffff83166000908152600860205260408120549081900361067e57600192506106d4565b73ffffffffffffffffffffffffffffffffffffffff841660009081526008602052604090205462093a80906106b390426115f9565b6106bd9190611610565b9250826000036106d4576000809250925050610abc565b6000915060005b838110156108ae57600081600003610790576003546040517f6472eee100000000000000000000000000000000000000000000000000000000815273ffffffffffffffffffffffffffffffffffffffff888116600483015242602483015290911690636472eee1906044016020604051808303816000875af1158015610765573d6000803e3d6000fd5b505050506040513d601f19601f82011682018060405250810190610789919061164b565b905061085b565b60035473ffffffffffffffffffffffffffffffffffffffff1663d3078c94876107bc8562093a80611664565b6107c690426115f9565b6040517fffffffff0000000000000000000000000000000000000000000000000000000060e085901b16815273ffffffffffffffffffffffffffffffffffffffff90921660048301526024820152604401602060405180830381865afa158015610834573d6000803e3d6000fd5b505050506040513d601f19601f82011682018060405250810190610858919061164b565b90505b6000670de0b6b3a764000082600a546108749190611664565b61087e9190611610565b905061088d62093a8082611664565b61089790866116a1565b9450505080806108a6906116b9565b9150506106db565b5073ffffffffffffffffffffffffffffffffffffffff84166000908152600860209081526040808320429055600790915290205460ff1615610a29576040517f095ea7b300000000000000000000000000000000000000000000000000000000815273ffffffffffffffffffffffffffffffffffffffff8581166004830152602482018490527f0000000000000000000000000000000000000000000000000000000000000000169063095ea7b3906044016020604051808303816000875af115801561097f573d6000803e3d6000fd5b505050506040513d601f19601f820116820180604052508101906109a391906116f1565b506040517f4ae3decf0000000000000000000000000000000000000000000000000000000081526004810183905273ffffffffffffffffffffffffffffffffffffffff851690634ae3decf90602401600060405180830381600087803b158015610a0c57600080fd5b505af1158015610a20573d6000803e3d6000fd5b50505050610a6a565b610a6a73ffffffffffffffffffffffffffffffffffffffff7f0000000000000000000000000000000000000000000000000000000000000000168584611423565b8373ffffffffffffffffffffffffffffffffffffffff167fe34918ff1c7084970068b53fd71ad6d8b04e9f15d3886cbf006443e6cdc52ea683604051610ab291815260200190565b60405180910390a2505b60016002559092909150565b60005473ffffffffffffffffffffffffffffffffffffffff163314610b6f576040517f08c379a000000000000000000000000000000000000000000000000000000000815260206004820152602f60248201527f4f6e6c792074686520636f6e7472616374206f776e6572206d6179207065726660448201527f6f726d207468697320616374696f6e00000000000000000000000000000000006064820152608401610482565b600180547fffffffffffffffffffffffff00000000000000000000000000000000000000001673ffffffffffffffffffffffffffffffffffffffff83169081179091556040519081527f906a1c6bd7e3091ea86693dd029a831c19049ce77f1dce2ce0bab1cacbabce229060200160405180910390a150565b60005473ffffffffffffffffffffffffffffffffffffffff16331480610c25575060055473ffffffffffffffffffffffffffffffffffffffff1633145b80610c47575060045473ffffffffffffffffffffffffffffffffffffffff1633145b610cad576040517f08c379a000000000000000000000000000000000000000000000000000000000815260206004820152601f60248201527f4e6f74206f776e65722c2063757261746f722c206f722074696d656c6f636b006044820152606401610482565b6009805460ff808216157fffffffffffffffffffffffffffffffffffffffffffffffffffffffffffffff0090921682179092556040519116151581527fa47e236370e478b9d163098c7c1f4f67b6efbb6683eeb0a669f04f302653779d9060200160405180910390a1565b60005473ffffffffffffffffffffffffffffffffffffffff16331480610d55575060045473ffffffffffffffffffffffffffffffffffffffff1633145b610dbb576040517f08c379a000000000000000000000000000000000000000000000000000000000815260206004820152601560248201527f4e6f74206f776e6572206f722074696d656c6f636b00000000000000000000006044820152606401610482565b73ffffffffffffffffffffffffffffffffffffffff8316600081815260076020908152604080832080548715157fffffffffffffffffffffffffffffffffffffffffffffffffffffffffffffff009182168117909255600684529382902080548715159516851790558151948552918401919091528201527f404f22d93b56a7e73713d7bbe543b016084d4d75b4d9177e8b8ab251f6e877d09060600160405180910390a1505050565b60015473ffffffffffffffffffffffffffffffffffffffff163314610f0c576040517f08c379a000000000000000000000000000000000000000000000000000000000815260206004820152603560248201527f596f75206d757374206265206e6f6d696e61746564206265666f726520796f7560448201527f2063616e20616363657074206f776e65727368697000000000000000000000006064820152608401610482565b6000546001546040805173ffffffffffffffffffffffffffffffffffffffff93841681529290911660208301527fb532073b38c83145e3e5135377a08bf9aab55bc0fd7c1179cd4fb995d2a5159c910160405180910390a160018054600080547fffffffffffffffffffffffff000000000000000000000000000000000000000090811673ffffffffffffffffffffffffffffffffffffffff841617909155169055565b60005473ffffffffffffffffffffffffffffffffffffffff16331480610fed575060045473ffffffffffffffffffffffffffffffffffffffff1633145b611053576040517f08c379a000000000000000000000000000000000000000000000000000000000815260206004820152601560248201527f4e6f74206f776e6572206f722074696d656c6f636b00000000000000000000006044820152606401610482565b60005461107a9073ffffffffffffffffffffffffffffffffffffffff848116911683611423565b6040805173ffffffffffffffffffffffffffffffffffffffff84168152602081018390527f55350610fe57096d8c0ffa30beede987326bccfcb0b4415804164d0dd50ce8b1910160405180910390a15050565b6003546040517fd3078c9400000000000000000000000000000000000000000000000000000000815273ffffffffffffffffffffffffffffffffffffffff8381166004830152426024830152600092839291169063d3078c9490604401602060405180830381865afa158015611147573d6000803e3d6000fd5b505050506040513d601f19601f8201168201806040525081019061116b919061164b565b90506000670de0b6b3a764000082600a546111869190611664565b6111909190611610565b905061119f62093a8082611664565b949350505050565b60005473ffffffffffffffffffffffffffffffffffffffff163314806111e4575060045473ffffffffffffffffffffffffffffffffffffffff1633145b61124a576040517f08c379a000000000000000000000000000000000000000000000000000000000815260206004820152601560248201527f4e6f74206f776e6572206f722074696d656c6f636b00000000000000000000006044820152606401610482565b600480547fffffffffffffffffffffffff00000000000000000000000000000000000000001673ffffffffffffffffffffffffffffffffffffffff92909216919091179055565b60005473ffffffffffffffffffffffffffffffffffffffff163314806112ce575060045473ffffffffffffffffffffffffffffffffffffffff1633145b611334576040517f08c379a000000000000000000000000000000000000000000000000000000000815260206004820152601560248201527f4e6f74206f776e6572206f722074696d656c6f636b00000000000000000000006044820152606401610482565b600a55565b60005473ffffffffffffffffffffffffffffffffffffffff16331480611376575060045473ffffffffffffffffffffffffffffffffffffffff1633145b6113dc576040517f08c379a000000000000000000000000000000000000000000000000000000000815260206004820152601560248201527f4e6f74206f776e6572206f722074696d656c6f636b00000000000000000000006044820152606401610482565b600580547fffffffffffffffffffffffff00000000000000000000000000000000000000001673ffffffffffffffffffffffffffffffffffffffff92909216919091179055565b60006040517fa9059cbb000000000000000000000000000000000000000000000000000000008152836004820152826024820152602060006044836000895af13d15601f3d11600160005114161716915050806114dc576040517f08c379a000000000000000000000000000000000000000000000000000000000815260206004820152600f60248201527f5452414e534645525f4641494c454400000000000000000000000000000000006044820152606401610482565b50505050565b803573ffffffffffffffffffffffffffffffffffffffff8116811461150657600080fd5b919050565b60006020828403121561151d57600080fd5b611526826114e2565b9392505050565b801515811461153b57600080fd5b50565b60008060006060848603121561155357600080fd5b61155c846114e2565b9250602084013561156c8161152d565b9150604084013561157c8161152d565b809150509250925092565b6000806040838503121561159a57600080fd5b6115a3836114e2565b946020939093013593505050565b6000602082840312156115c357600080fd5b5035919050565b7f4e487b7100000000000000000000000000000000000000000000000000000000600052601160045260246000fd5b60008282101561160b5761160b6115ca565b500390565b600082611646577f4e487b7100000000000000000000000000000000000000000000000000000000600052601260045260246000fd5b500490565b60006020828403121561165d57600080fd5b5051919050565b6000817fffffffffffffffffffffffffffffffffffffffffffffffffffffffffffffffff048311821515161561169c5761169c6115ca565b500290565b600082198211156116b4576116b46115ca565b500190565b60007fffffffffffffffffffffffffffffffffffffffffffffffffffffffffffffffff82036116ea576116ea6115ca565b5060010190565b60006020828403121561170357600080fd5b81516115268161152d56fea2646970667358221220036a74b10d6271247c13d6e557d6e5034f22725b0e2f4e10ffd66ea6db85373464736f6c634300080f0033",
  "devdoc": {
    "kind": "dev",
    "methods": {},
    "version": 1
  },
  "userdoc": {
    "kind": "user",
    "methods": {},
    "version": 1
  },
  "storageLayout": {
    "storage": [
      {
        "astId": 1679,
        "contract": "contracts/Gauge/GaugeRewardsDistributor.sol:GaugeRewardsDistributor",
        "label": "owner",
        "offset": 0,
        "slot": "0",
        "type": "t_address"
      },
      {
        "astId": 1681,
        "contract": "contracts/Gauge/GaugeRewardsDistributor.sol:GaugeRewardsDistributor",
        "label": "nominatedOwner",
        "offset": 0,
        "slot": "1",
        "type": "t_address"
      },
      {
        "astId": 2170,
        "contract": "contracts/Gauge/GaugeRewardsDistributor.sol:GaugeRewardsDistributor",
        "label": "locked",
        "offset": 0,
        "slot": "2",
        "type": "t_uint256"
      },
      {
        "astId": 291,
        "contract": "contracts/Gauge/GaugeRewardsDistributor.sol:GaugeRewardsDistributor",
        "label": "gauge_controller",
        "offset": 0,
        "slot": "3",
        "type": "t_contract(IGaugeController)1004"
      },
      {
        "astId": 293,
        "contract": "contracts/Gauge/GaugeRewardsDistributor.sol:GaugeRewardsDistributor",
        "label": "timelock_address",
        "offset": 0,
        "slot": "4",
        "type": "t_address"
      },
      {
        "astId": 295,
        "contract": "contracts/Gauge/GaugeRewardsDistributor.sol:GaugeRewardsDistributor",
        "label": "curator_address",
        "offset": 0,
        "slot": "5",
        "type": "t_address"
      },
      {
        "astId": 305,
        "contract": "contracts/Gauge/GaugeRewardsDistributor.sol:GaugeRewardsDistributor",
        "label": "gauge_whitelist",
        "offset": 0,
        "slot": "6",
        "type": "t_mapping(t_address,t_bool)"
      },
      {
        "astId": 309,
        "contract": "contracts/Gauge/GaugeRewardsDistributor.sol:GaugeRewardsDistributor",
        "label": "is_middleman",
        "offset": 0,
        "slot": "7",
        "type": "t_mapping(t_address,t_bool)"
      },
      {
        "astId": 313,
        "contract": "contracts/Gauge/GaugeRewardsDistributor.sol:GaugeRewardsDistributor",
        "label": "last_time_gauge_paid",
        "offset": 0,
        "slot": "8",
        "type": "t_mapping(t_address,t_uint256)"
      },
      {
        "astId": 315,
        "contract": "contracts/Gauge/GaugeRewardsDistributor.sol:GaugeRewardsDistributor",
        "label": "distributionsOn",
        "offset": 0,
        "slot": "9",
        "type": "t_bool"
      },
      {
        "astId": 317,
        "contract": "contracts/Gauge/GaugeRewardsDistributor.sol:GaugeRewardsDistributor",
        "label": "global_emission_rate",
        "offset": 0,
        "slot": "10",
        "type": "t_uint256"
      }
    ],
    "types": {
      "t_address": {
        "encoding": "inplace",
        "label": "address",
        "numberOfBytes": "20"
      },
      "t_bool": {
        "encoding": "inplace",
        "label": "bool",
        "numberOfBytes": "1"
      },
      "t_contract(IGaugeController)1004": {
        "encoding": "inplace",
        "label": "contract IGaugeController",
        "numberOfBytes": "20"
      },
      "t_mapping(t_address,t_bool)": {
        "encoding": "mapping",
        "key": "t_address",
        "label": "mapping(address => bool)",
        "numberOfBytes": "32",
        "value": "t_bool"
      },
      "t_mapping(t_address,t_uint256)": {
        "encoding": "mapping",
        "key": "t_address",
        "label": "mapping(address => uint256)",
        "numberOfBytes": "32",
        "value": "t_uint256"
      },
      "t_uint256": {
        "encoding": "inplace",
        "label": "uint256",
        "numberOfBytes": "32"
      }
    }
  }
}