{
  "address": "0x196f3487a7a29fB1af89d19A53bCfDEa60830566",
  "abi": [
    {
      "inputs": [
        {
          "internalType": "address",
          "name": "_owner",
          "type": "address"
        },
        {
          "internalType": "address",
          "name": "_timelock_address",
          "type": "address"
        },
        {
          "internalType": "address",
          "name": "_curator_address",
          "type": "address"
        },
        {
          "internalType": "address",
          "name": "_reward_token_address",
          "type": "address"
        },
        {
          "internalType": "address",
          "name": "_gauge_controller_address",
          "type": "address"
        }
      ],
      "stateMutability": "nonpayable",
      "type": "constructor"
    },
    {
      "anonymous": false,
      "inputs": [
        {
          "indexed": false,
          "internalType": "bool",
          "name": "distibutions_state",
          "type": "bool"
        }
      ],
      "name": "DistributionsToggled",
      "type": "event"
    },
    {
      "anonymous": false,
      "inputs": [
        {
          "indexed": false,
          "internalType": "address",
          "name": "gauge_address",
          "type": "address"
        },
        {
          "indexed": false,
          "internalType": "bool",
          "name": "is_middleman",
          "type": "bool"
        },
        {
          "indexed": false,
          "internalType": "bool",
          "name": "is_active",
          "type": "bool"
        }
      ],
      "name": "GaugeStateChanged",
      "type": "event"
    },
    {
      "anonymous": false,
      "inputs": [
        {
          "indexed": false,
          "internalType": "address",
          "name": "oldOwner",
          "type": "address"
        },
        {
          "indexed": false,
          "internalType": "address",
          "name": "newOwner",
          "type": "address"
        }
      ],
      "name": "OwnerChanged",
      "type": "event"
    },
    {
      "anonymous": false,
      "inputs": [
        {
          "indexed": false,
          "internalType": "address",
          "name": "newOwner",
          "type": "address"
        }
      ],
      "name": "OwnerNominated",
      "type": "event"
    },
    {
      "anonymous": false,
      "inputs": [
        {
          "indexed": false,
          "internalType": "address",
          "name": "token",
          "type": "address"
        },
        {
          "indexed": false,
          "internalType": "uint256",
          "name": "amount",
          "type": "uint256"
        }
      ],
      "name": "RecoveredERC20",
      "type": "event"
    },
    {
      "anonymous": false,
      "inputs": [
        {
          "indexed": true,
          "internalType": "address",
          "name": "gauge_address",
          "type": "address"
        },
        {
          "indexed": false,
          "internalType": "uint256",
          "name": "reward_amount",
          "type": "uint256"
        }
      ],
      "name": "RewardDistributed",
      "type": "event"
    },
    {
      "inputs": [],
      "name": "acceptOwnership",
      "outputs": [],
      "stateMutability": "nonpayable",
      "type": "function"
    },
    {
      "inputs": [],
      "name": "curator_address",
      "outputs": [
        {
          "internalType": "address",
          "name": "",
          "type": "address"
        }
      ],
      "stateMutability": "view",
      "type": "function"
    },
    {
      "inputs": [
        {
          "internalType": "address",
          "name": "gauge_address",
          "type": "address"
        }
      ],
      "name": "currentReward",
      "outputs": [
        {
          "internalType": "uint256",
          "name": "reward_amount",
          "type": "uint256"
        }
      ],
      "stateMutability": "view",
      "type": "function"
    },
    {
      "inputs": [
        {
          "internalType": "address",
          "name": "gauge_address",
          "type": "address"
        }
      ],
      "name": "distributeReward",
      "outputs": [
        {
          "internalType": "uint256",
          "name": "weeks_elapsed",
          "type": "uint256"
        },
        {
          "internalType": "uint256",
          "name": "reward_tally",
          "type": "uint256"
        }
      ],
      "stateMutability": "nonpayable",
      "type": "function"
    },
    {
      "inputs": [],
      "name": "distributionsOn",
      "outputs": [
        {
          "internalType": "bool",
          "name": "",
          "type": "bool"
        }
      ],
      "stateMutability": "view",
      "type": "function"
    },
    {
      "inputs": [],
      "name": "gauge_controller",
      "outputs": [
        {
          "internalType": "contract IGaugeController",
          "name": "",
          "type": "address"
        }
      ],
      "stateMutability": "view",
      "type": "function"
    },
    {
      "inputs": [
        {
          "internalType": "address",
          "name": "",
          "type": "address"
        }
      ],
      "name": "gauge_whitelist",
      "outputs": [
        {
          "internalType": "bool",
          "name": "",
          "type": "bool"
        }
      ],
      "stateMutability": "view",
      "type": "function"
    },
    {
      "inputs": [
        {
          "internalType": "address",
          "name": "",
          "type": "address"
        }
      ],
      "name": "is_middleman",
      "outputs": [
        {
          "internalType": "bool",
          "name": "",
          "type": "bool"
        }
      ],
      "stateMutability": "view",
      "type": "function"
    },
    {
      "inputs": [
        {
          "internalType": "address",
          "name": "",
          "type": "address"
        }
      ],
      "name": "last_time_gauge_paid",
      "outputs": [
        {
          "internalType": "uint256",
          "name": "",
          "type": "uint256"
        }
      ],
      "stateMutability": "view",
      "type": "function"
    },
    {
      "inputs": [
        {
          "internalType": "address",
          "name": "_owner",
          "type": "address"
        }
      ],
      "name": "nominateNewOwner",
      "outputs": [],
      "stateMutability": "nonpayable",
      "type": "function"
    },
    {
      "inputs": [],
      "name": "nominatedOwner",
      "outputs": [
        {
          "internalType": "address",
          "name": "",
          "type": "address"
        }
      ],
      "stateMutability": "view",
      "type": "function"
    },
    {
      "inputs": [],
      "name": "owner",
      "outputs": [
        {
          "internalType": "address",
          "name": "",
          "type": "address"
        }
      ],
      "stateMutability": "view",
      "type": "function"
    },
    {
      "inputs": [
        {
          "internalType": "address",
          "name": "tokenAddress",
          "type": "address"
        },
        {
          "internalType": "uint256",
          "name": "tokenAmount",
          "type": "uint256"
        }
      ],
      "name": "recoverERC20",
      "outputs": [],
      "stateMutability": "nonpayable",
      "type": "function"
    },
    {
      "inputs": [],
      "name": "reward_token_address",
      "outputs": [
        {
          "internalType": "address",
          "name": "",
          "type": "address"
        }
      ],
      "stateMutability": "view",
      "type": "function"
    },
    {
      "inputs": [
        {
          "internalType": "address",
          "name": "_new_curator_address",
          "type": "address"
        }
      ],
      "name": "setCurator",
      "outputs": [],
      "stateMutability": "nonpayable",
      "type": "function"
    },
    {
      "inputs": [
        {
          "internalType": "address",
          "name": "_gauge_controller_address",
          "type": "address"
        }
      ],
      "name": "setGaugeController",
      "outputs": [],
      "stateMutability": "nonpayable",
      "type": "function"
    },
    {
      "inputs": [
        {
          "internalType": "address",
          "name": "_gauge_address",
          "type": "address"
        },
        {
          "internalType": "bool",
          "name": "_is_middleman",
          "type": "bool"
        },
        {
          "internalType": "bool",
          "name": "_is_active",
          "type": "bool"
        }
      ],
      "name": "setGaugeState",
      "outputs": [],
      "stateMutability": "nonpayable",
      "type": "function"
    },
    {
      "inputs": [
        {
          "internalType": "address",
          "name": "_new_timelock",
          "type": "address"
        }
      ],
      "name": "setTimelock",
      "outputs": [],
      "stateMutability": "nonpayable",
      "type": "function"
    },
    {
      "inputs": [],
      "name": "timelock_address",
      "outputs": [
        {
          "internalType": "address",
          "name": "",
          "type": "address"
        }
      ],
      "stateMutability": "view",
      "type": "function"
    },
    {
      "inputs": [],
      "name": "toggleDistributions",
      "outputs": [],
      "stateMutability": "nonpayable",
      "type": "function"
    }
  ],
  "transactionHash": "0x633b20a59eeb127d994d760ed22f1e9a9d5b0051c0ca3b58ac2025b48863af81",
  "args": [
    "0x56f34826Cc63151f74FA8f701E4f73C5EAae52AD",
    "0x90523c113517A59f6BEBC123b75612Aea9FD3140",
    "0xfecBad5D60725EB6fd10f8936e02fa203fd27E4b",
    "0x8888801aF4d980682e47f1A9036e589479e835C5",
    "0x16dff045De4421E836A42FC2e98d4Ec9015bd470"
  ],
  "numDeployments": 1,
  "solcInputHash": "9c77b049f25e999927feb7dd9ab15623",
  "bytecode": "0x60a060405260016002553480156200001657600080fd5b50604051620019663803806200196683398101604081905262000039916200015f565b846001600160a01b038116620000955760405162461bcd60e51b815260206004820152601960248201527f4f776e657220616464726573732063616e6e6f74206265203000000000000000604482015260640160405180910390fd5b600080546001600160a01b0319166001600160a01b03831690811782556040805192835260208301919091527fb532073b38c83145e3e5135377a08bf9aab55bc0fd7c1179cd4fb995d2a5159c910160405180910390a150600580546001600160a01b03199081166001600160a01b039586161790915560048054821695851695909517909455908216608052600380549093169116179055506009805460ff19166001179055620001cf565b80516001600160a01b03811681146200015a57600080fd5b919050565b600080600080600060a086880312156200017857600080fd5b620001838662000142565b9450620001936020870162000142565b9350620001a36040870162000142565b9250620001b36060870162000142565b9150620001c36080870162000142565b90509295509295909350565b60805161176d620001f96000396000818161026a015281816109920152610a9f015261176d6000f3fe608060405234801561001057600080fd5b506004361061016b5760003560e01c806379ba5097116100cd578063c92073c111610081578063dc6663c711610066578063dc6663c71461035e578063e81e17c61461037e578063e90956cf1461039e57600080fd5b8063c92073c11461031e578063d8b9a0181461033e57600080fd5b80638da5cb5b116100b25780638da5cb5b146102ca5780639d18e4b0146102ea578063bdacb3031461030b57600080fd5b806379ba5097146102af5780638980f11f146102b757600080fd5b8063305d6d5f11610124578063570b1e9911610109578063570b1e9914610252578063678a2226146102655780636ca81c1c1461028c57600080fd5b8063305d6d5f1461020557806353a47bb71461020d57600080fd5b80631627540c116101555780631627540c146101b25780631f8a7edf146101c55780632fd37b08146101e257600080fd5b806291d2b814610170578063092193ab14610185575b600080fd5b61018361017e36600461154d565b6103b1565b005b61019861019336600461154d565b6104a0565b604080519283526020830191909152015b60405180910390f35b6101836101c036600461154d565b610b24565b6009546101d29060ff1681565b60405190151581526020016101a9565b6101d26101f036600461154d565b60066020526000908152604090205460ff1681565b610183610c44565b60015461022d9073ffffffffffffffffffffffffffffffffffffffff1681565b60405173ffffffffffffffffffffffffffffffffffffffff90911681526020016101a9565b610183610260366004611580565b610d74565b61022d7f000000000000000000000000000000000000000000000000000000000000000081565b6101d261029a36600461154d565b60076020526000908152604090205460ff1681565b610183610ec1565b6101836102c53660046115c9565b61100c565b60005461022d9073ffffffffffffffffffffffffffffffffffffffff1681565b6102fd6102f836600461154d565b611129565b6040519081526020016101a9565b61018361031936600461154d565b611291565b60055461022d9073ffffffffffffffffffffffffffffffffffffffff1681565b60035461022d9073ffffffffffffffffffffffffffffffffffffffff1681565b60045461022d9073ffffffffffffffffffffffffffffffffffffffff1681565b6102fd61038c36600461154d565b60086020526000908152604090205481565b6101836103ac36600461154d565b61137b565b60005473ffffffffffffffffffffffffffffffffffffffff163314806103ee575060045473ffffffffffffffffffffffffffffffffffffffff1633145b610459576040517f08c379a000000000000000000000000000000000000000000000000000000000815260206004820152601560248201527f4e6f74206f776e6572206f722074696d656c6f636b000000000000000000000060448201526064015b60405180910390fd5b600380547fffffffffffffffffffffffff00000000000000000000000000000000000000001673ffffffffffffffffffffffffffffffffffffffff92909216919091179055565b600954600090819060ff161515600114610516576040517f08c379a000000000000000000000000000000000000000000000000000000000815260206004820152601560248201527f446973747269627574696f6e7320617265206f666600000000000000000000006044820152606401610450565b600254600114610582576040517f08c379a000000000000000000000000000000000000000000000000000000000815260206004820152600a60248201527f5245454e5452414e4359000000000000000000000000000000000000000000006044820152606401610450565b6002805573ffffffffffffffffffffffffffffffffffffffff831660009081526006602052604090205460ff16610615576040517f08c379a000000000000000000000000000000000000000000000000000000000815260206004820152601560248201527f4761756765206e6f742077686974656c697374656400000000000000000000006044820152606401610450565b73ffffffffffffffffffffffffffffffffffffffff83166000908152600860205260408120549081900361064c57600192506106a2565b73ffffffffffffffffffffffffffffffffffffffff841660009081526008602052604090205462093a80906106819042611622565b61068b9190611639565b9250826000036106a2576000809250925050610b18565b6000915060005b8381101561090a5760008160000361075e576003546040517f6472eee100000000000000000000000000000000000000000000000000000000815273ffffffffffffffffffffffffffffffffffffffff888116600483015242602483015290911690636472eee1906044016020604051808303816000875af1158015610733573d6000803e3d6000fd5b505050506040513d601f19601f820116820180604052508101906107579190611674565b9050610829565b60035473ffffffffffffffffffffffffffffffffffffffff1663d3078c948761078a8562093a8061168d565b6107949042611622565b6040517fffffffff0000000000000000000000000000000000000000000000000000000060e085901b16815273ffffffffffffffffffffffffffffffffffffffff90921660048301526024820152604401602060405180830381865afa158015610802573d6000803e3d6000fd5b505050506040513d601f19601f820116820180604052508101906108269190611674565b90505b6000670de0b6b3a764000082600360009054906101000a900473ffffffffffffffffffffffffffffffffffffffff1673ffffffffffffffffffffffffffffffffffffffff16630a3be7576040518163ffffffff1660e01b8152600401602060405180830381865afa1580156108a2573d6000803e3d6000fd5b505050506040513d601f19601f820116820180604052508101906108c69190611674565b6108d0919061168d565b6108da9190611639565b90506108e962093a808261168d565b6108f390866116ca565b945050508080610902906116e2565b9150506106a9565b5073ffffffffffffffffffffffffffffffffffffffff84166000908152600860209081526040808320429055600790915290205460ff1615610a85576040517f095ea7b300000000000000000000000000000000000000000000000000000000815273ffffffffffffffffffffffffffffffffffffffff8581166004830152602482018490527f0000000000000000000000000000000000000000000000000000000000000000169063095ea7b3906044016020604051808303816000875af11580156109db573d6000803e3d6000fd5b505050506040513d601f19601f820116820180604052508101906109ff919061171a565b506040517f4ae3decf0000000000000000000000000000000000000000000000000000000081526004810183905273ffffffffffffffffffffffffffffffffffffffff851690634ae3decf90602401600060405180830381600087803b158015610a6857600080fd5b505af1158015610a7c573d6000803e3d6000fd5b50505050610ac6565b610ac673ffffffffffffffffffffffffffffffffffffffff7f0000000000000000000000000000000000000000000000000000000000000000168584611465565b8373ffffffffffffffffffffffffffffffffffffffff167fe34918ff1c7084970068b53fd71ad6d8b04e9f15d3886cbf006443e6cdc52ea683604051610b0e91815260200190565b60405180910390a2505b60016002559092909150565b60005473ffffffffffffffffffffffffffffffffffffffff163314610bcb576040517f08c379a000000000000000000000000000000000000000000000000000000000815260206004820152602f60248201527f4f6e6c792074686520636f6e7472616374206f776e6572206d6179207065726660448201527f6f726d207468697320616374696f6e00000000000000000000000000000000006064820152608401610450565b600180547fffffffffffffffffffffffff00000000000000000000000000000000000000001673ffffffffffffffffffffffffffffffffffffffff83169081179091556040519081527f906a1c6bd7e3091ea86693dd029a831c19049ce77f1dce2ce0bab1cacbabce229060200160405180910390a150565b60005473ffffffffffffffffffffffffffffffffffffffff16331480610c81575060055473ffffffffffffffffffffffffffffffffffffffff1633145b80610ca3575060045473ffffffffffffffffffffffffffffffffffffffff1633145b610d09576040517f08c379a000000000000000000000000000000000000000000000000000000000815260206004820152601f60248201527f4e6f74206f776e65722c2063757261746f722c206f722074696d656c6f636b006044820152606401610450565b6009805460ff808216157fffffffffffffffffffffffffffffffffffffffffffffffffffffffffffffff0090921682179092556040519116151581527fa47e236370e478b9d163098c7c1f4f67b6efbb6683eeb0a669f04f302653779d9060200160405180910390a1565b60005473ffffffffffffffffffffffffffffffffffffffff16331480610db1575060045473ffffffffffffffffffffffffffffffffffffffff1633145b610e17576040517f08c379a000000000000000000000000000000000000000000000000000000000815260206004820152601560248201527f4e6f74206f776e6572206f722074696d656c6f636b00000000000000000000006044820152606401610450565b73ffffffffffffffffffffffffffffffffffffffff8316600081815260076020908152604080832080548715157fffffffffffffffffffffffffffffffffffffffffffffffffffffffffffffff009182168117909255600684529382902080548715159516851790558151948552918401919091528201527f404f22d93b56a7e73713d7bbe543b016084d4d75b4d9177e8b8ab251f6e877d09060600160405180910390a1505050565b60015473ffffffffffffffffffffffffffffffffffffffff163314610f68576040517f08c379a000000000000000000000000000000000000000000000000000000000815260206004820152603560248201527f596f75206d757374206265206e6f6d696e61746564206265666f726520796f7560448201527f2063616e20616363657074206f776e65727368697000000000000000000000006064820152608401610450565b6000546001546040805173ffffffffffffffffffffffffffffffffffffffff93841681529290911660208301527fb532073b38c83145e3e5135377a08bf9aab55bc0fd7c1179cd4fb995d2a5159c910160405180910390a160018054600080547fffffffffffffffffffffffff000000000000000000000000000000000000000090811673ffffffffffffffffffffffffffffffffffffffff841617909155169055565b60005473ffffffffffffffffffffffffffffffffffffffff16331480611049575060045473ffffffffffffffffffffffffffffffffffffffff1633145b6110af576040517f08c379a000000000000000000000000000000000000000000000000000000000815260206004820152601560248201527f4e6f74206f776e6572206f722074696d656c6f636b00000000000000000000006044820152606401610450565b6000546110d69073ffffffffffffffffffffffffffffffffffffffff848116911683611465565b6040805173ffffffffffffffffffffffffffffffffffffffff84168152602081018390527f55350610fe57096d8c0ffa30beede987326bccfcb0b4415804164d0dd50ce8b1910160405180910390a15050565b6003546040517fd3078c9400000000000000000000000000000000000000000000000000000000815273ffffffffffffffffffffffffffffffffffffffff8381166004830152426024830152600092839291169063d3078c9490604401602060405180830381865afa1580156111a3573d6000803e3d6000fd5b505050506040513d601f19601f820116820180604052508101906111c79190611674565b90506000670de0b6b3a764000082600360009054906101000a900473ffffffffffffffffffffffffffffffffffffffff1673ffffffffffffffffffffffffffffffffffffffff16630a3be7576040518163ffffffff1660e01b8152600401602060405180830381865afa158015611242573d6000803e3d6000fd5b505050506040513d601f19601f820116820180604052508101906112669190611674565b611270919061168d565b61127a9190611639565b905061128962093a808261168d565b949350505050565b60005473ffffffffffffffffffffffffffffffffffffffff163314806112ce575060045473ffffffffffffffffffffffffffffffffffffffff1633145b611334576040517f08c379a000000000000000000000000000000000000000000000000000000000815260206004820152601560248201527f4e6f74206f776e6572206f722074696d656c6f636b00000000000000000000006044820152606401610450565b600480547fffffffffffffffffffffffff00000000000000000000000000000000000000001673ffffffffffffffffffffffffffffffffffffffff92909216919091179055565b60005473ffffffffffffffffffffffffffffffffffffffff163314806113b8575060045473ffffffffffffffffffffffffffffffffffffffff1633145b61141e576040517f08c379a000000000000000000000000000000000000000000000000000000000815260206004820152601560248201527f4e6f74206f776e6572206f722074696d656c6f636b00000000000000000000006044820152606401610450565b600580547fffffffffffffffffffffffff00000000000000000000000000000000000000001673ffffffffffffffffffffffffffffffffffffffff92909216919091179055565b60006040517fa9059cbb000000000000000000000000000000000000000000000000000000008152836004820152826024820152602060006044836000895af13d15601f3d116001600051141617169150508061151e576040517f08c379a000000000000000000000000000000000000000000000000000000000815260206004820152600f60248201527f5452414e534645525f4641494c454400000000000000000000000000000000006044820152606401610450565b50505050565b803573ffffffffffffffffffffffffffffffffffffffff8116811461154857600080fd5b919050565b60006020828403121561155f57600080fd5b61156882611524565b9392505050565b801515811461157d57600080fd5b50565b60008060006060848603121561159557600080fd5b61159e84611524565b925060208401356115ae8161156f565b915060408401356115be8161156f565b809150509250925092565b600080604083850312156115dc57600080fd5b6115e583611524565b946020939093013593505050565b7f4e487b7100000000000000000000000000000000000000000000000000000000600052601160045260246000fd5b600082821015611634576116346115f3565b500390565b60008261166f577f4e487b7100000000000000000000000000000000000000000000000000000000600052601260045260246000fd5b500490565b60006020828403121561168657600080fd5b5051919050565b6000817fffffffffffffffffffffffffffffffffffffffffffffffffffffffffffffffff04831182151516156116c5576116c56115f3565b500290565b600082198211156116dd576116dd6115f3565b500190565b60007fffffffffffffffffffffffffffffffffffffffffffffffffffffffffffffffff8203611713576117136115f3565b5060010190565b60006020828403121561172c57600080fd5b81516115688161156f56fea26469706673582212207949751917b3a42b091e157dd79eb2b57d24860562a53081000db7099631a26364736f6c634300080f0033",
  "devdoc": {
    "kind": "dev",
    "methods": {},
    "version": 1
  },
  "userdoc": {
    "kind": "user",
    "methods": {},
    "version": 1
  },
  "storageLayout": {
    "storage": [
      {
        "astId": 1687,
        "contract": "contracts/Gauge/GaugeRewardsDistributor.sol:GaugeRewardsDistributor",
        "label": "owner",
        "offset": 0,
        "slot": "0",
        "type": "t_address"
      },
      {
        "astId": 1689,
        "contract": "contracts/Gauge/GaugeRewardsDistributor.sol:GaugeRewardsDistributor",
        "label": "nominatedOwner",
        "offset": 0,
        "slot": "1",
        "type": "t_address"
      },
      {
        "astId": 2178,
        "contract": "contracts/Gauge/GaugeRewardsDistributor.sol:GaugeRewardsDistributor",
        "label": "locked",
        "offset": 0,
        "slot": "2",
        "type": "t_uint256"
      },
      {
        "astId": 291,
        "contract": "contracts/Gauge/GaugeRewardsDistributor.sol:GaugeRewardsDistributor",
        "label": "gauge_controller",
        "offset": 0,
        "slot": "3",
        "type": "t_contract(IGaugeController)1012"
      },
      {
        "astId": 293,
        "contract": "contracts/Gauge/GaugeRewardsDistributor.sol:GaugeRewardsDistributor",
        "label": "timelock_address",
        "offset": 0,
        "slot": "4",
        "type": "t_address"
      },
      {
        "astId": 295,
        "contract": "contracts/Gauge/GaugeRewardsDistributor.sol:GaugeRewardsDistributor",
        "label": "curator_address",
        "offset": 0,
        "slot": "5",
        "type": "t_address"
      },
      {
        "astId": 305,
        "contract": "contracts/Gauge/GaugeRewardsDistributor.sol:GaugeRewardsDistributor",
        "label": "gauge_whitelist",
        "offset": 0,
        "slot": "6",
        "type": "t_mapping(t_address,t_bool)"
      },
      {
        "astId": 309,
        "contract": "contracts/Gauge/GaugeRewardsDistributor.sol:GaugeRewardsDistributor",
        "label": "is_middleman",
        "offset": 0,
        "slot": "7",
        "type": "t_mapping(t_address,t_bool)"
      },
      {
        "astId": 313,
        "contract": "contracts/Gauge/GaugeRewardsDistributor.sol:GaugeRewardsDistributor",
        "label": "last_time_gauge_paid",
        "offset": 0,
        "slot": "8",
        "type": "t_mapping(t_address,t_uint256)"
      },
      {
        "astId": 315,
        "contract": "contracts/Gauge/GaugeRewardsDistributor.sol:GaugeRewardsDistributor",
        "label": "distributionsOn",
        "offset": 0,
        "slot": "9",
        "type": "t_bool"
      }
    ],
    "types": {
      "t_address": {
        "encoding": "inplace",
        "label": "address",
        "numberOfBytes": "20"
      },
      "t_bool": {
        "encoding": "inplace",
        "label": "bool",
        "numberOfBytes": "1"
      },
      "t_contract(IGaugeController)1012": {
        "encoding": "inplace",
        "label": "contract IGaugeController",
        "numberOfBytes": "20"
      },
      "t_mapping(t_address,t_bool)": {
        "encoding": "mapping",
        "key": "t_address",
        "label": "mapping(address => bool)",
        "numberOfBytes": "32",
        "value": "t_bool"
      },
      "t_mapping(t_address,t_uint256)": {
        "encoding": "mapping",
        "key": "t_address",
        "label": "mapping(address => uint256)",
        "numberOfBytes": "32",
        "value": "t_uint256"
      },
      "t_uint256": {
        "encoding": "inplace",
        "label": "uint256",
        "numberOfBytes": "32"
      }
    }
  }
}