{
  "address": "0x16dff045De4421E836A42FC2e98d4Ec9015bd470",
  "abi": [
    {
      "name": "AddType",
      "inputs": [
        {
          "name": "name",
          "type": "string",
          "indexed": false
        },
        {
          "name": "type_id",
          "type": "int128",
          "indexed": false
        }
      ],
      "anonymous": false,
      "type": "event"
    },
    {
      "name": "NewTypeWeight",
      "inputs": [
        {
          "name": "type_id",
          "type": "int128",
          "indexed": false
        },
        {
          "name": "time",
          "type": "uint256",
          "indexed": false
        },
        {
          "name": "weight",
          "type": "uint256",
          "indexed": false
        },
        {
          "name": "total_weight",
          "type": "uint256",
          "indexed": false
        }
      ],
      "anonymous": false,
      "type": "event"
    },
    {
      "name": "NewGaugeWeight",
      "inputs": [
        {
          "name": "gauge_address",
          "type": "address",
          "indexed": false
        },
        {
          "name": "time",
          "type": "uint256",
          "indexed": false
        },
        {
          "name": "weight",
          "type": "uint256",
          "indexed": false
        },
        {
          "name": "total_weight",
          "type": "uint256",
          "indexed": false
        }
      ],
      "anonymous": false,
      "type": "event"
    },
    {
      "name": "VoteForGauge",
      "inputs": [
        {
          "name": "time",
          "type": "uint256",
          "indexed": false
        },
        {
          "name": "user",
          "type": "address",
          "indexed": false
        },
        {
          "name": "gauge_addr",
          "type": "address",
          "indexed": false
        },
        {
          "name": "weight",
          "type": "uint256",
          "indexed": false
        }
      ],
      "anonymous": false,
      "type": "event"
    },
    {
      "name": "NewGauge",
      "inputs": [
        {
          "name": "addr",
          "type": "address",
          "indexed": false
        },
        {
          "name": "gauge_type",
          "type": "int128",
          "indexed": false
        },
        {
          "name": "weight",
          "type": "uint256",
          "indexed": false
        }
      ],
      "anonymous": false,
      "type": "event"
    },
    {
      "stateMutability": "nonpayable",
      "type": "constructor",
      "inputs": [
        {
          "name": "_voting_escrow",
          "type": "address"
        },
        {
          "name": "_admin",
          "type": "address"
        }
      ],
      "outputs": []
    },
    {
      "stateMutability": "view",
      "type": "function",
      "name": "token",
      "inputs": [],
      "outputs": [
        {
          "name": "",
          "type": "address"
        }
      ]
    },
    {
      "stateMutability": "view",
      "type": "function",
      "name": "voting_escrow",
      "inputs": [],
      "outputs": [
        {
          "name": "",
          "type": "address"
        }
      ]
    },
    {
      "stateMutability": "view",
      "type": "function",
      "name": "admin",
      "inputs": [],
      "outputs": [
        {
          "name": "",
          "type": "address"
        }
      ]
    },
    {
      "stateMutability": "view",
      "type": "function",
      "name": "gauge_exists",
      "inputs": [
        {
          "name": "_addr",
          "type": "address"
        }
      ],
      "outputs": [
        {
          "name": "",
          "type": "bool"
        }
      ]
    },
    {
      "stateMutability": "view",
      "type": "function",
      "name": "gauge_types",
      "inputs": [
        {
          "name": "_addr",
          "type": "address"
        }
      ],
      "outputs": [
        {
          "name": "",
          "type": "int128"
        }
      ]
    },
    {
      "stateMutability": "nonpayable",
      "type": "function",
      "name": "add_gauge",
      "inputs": [
        {
          "name": "addr",
          "type": "address"
        },
        {
          "name": "gauge_type",
          "type": "int128"
        }
      ],
      "outputs": []
    },
    {
      "stateMutability": "nonpayable",
      "type": "function",
      "name": "add_gauge",
      "inputs": [
        {
          "name": "addr",
          "type": "address"
        },
        {
          "name": "gauge_type",
          "type": "int128"
        },
        {
          "name": "weight",
          "type": "uint256"
        }
      ],
      "outputs": []
    },
    {
      "stateMutability": "nonpayable",
      "type": "function",
      "name": "checkpoint",
      "inputs": [],
      "outputs": []
    },
    {
      "stateMutability": "nonpayable",
      "type": "function",
      "name": "checkpoint_gauge",
      "inputs": [
        {
          "name": "addr",
          "type": "address"
        }
      ],
      "outputs": []
    },
    {
      "stateMutability": "view",
      "type": "function",
      "name": "gauge_relative_weight",
      "inputs": [
        {
          "name": "addr",
          "type": "address"
        }
      ],
      "outputs": [
        {
          "name": "",
          "type": "uint256"
        }
      ]
    },
    {
      "stateMutability": "view",
      "type": "function",
      "name": "gauge_relative_weight",
      "inputs": [
        {
          "name": "addr",
          "type": "address"
        },
        {
          "name": "time",
          "type": "uint256"
        }
      ],
      "outputs": [
        {
          "name": "",
          "type": "uint256"
        }
      ]
    },
    {
      "stateMutability": "nonpayable",
      "type": "function",
      "name": "gauge_relative_weight_write",
      "inputs": [
        {
          "name": "addr",
          "type": "address"
        }
      ],
      "outputs": [
        {
          "name": "",
          "type": "uint256"
        }
      ]
    },
    {
      "stateMutability": "nonpayable",
      "type": "function",
      "name": "gauge_relative_weight_write",
      "inputs": [
        {
          "name": "addr",
          "type": "address"
        },
        {
          "name": "time",
          "type": "uint256"
        }
      ],
      "outputs": [
        {
          "name": "",
          "type": "uint256"
        }
      ]
    },
    {
      "stateMutability": "nonpayable",
      "type": "function",
      "name": "add_type",
      "inputs": [
        {
          "name": "_name",
          "type": "string"
        }
      ],
      "outputs": []
    },
    {
      "stateMutability": "nonpayable",
      "type": "function",
      "name": "add_type",
      "inputs": [
        {
          "name": "_name",
          "type": "string"
        },
        {
          "name": "weight",
          "type": "uint256"
        }
      ],
      "outputs": []
    },
    {
      "stateMutability": "nonpayable",
      "type": "function",
      "name": "change_type_weight",
      "inputs": [
        {
          "name": "type_id",
          "type": "int128"
        },
        {
          "name": "weight",
          "type": "uint256"
        }
      ],
      "outputs": []
    },
    {
      "stateMutability": "nonpayable",
      "type": "function",
      "name": "change_gauge_weight",
      "inputs": [
        {
          "name": "addr",
          "type": "address"
        },
        {
          "name": "weight",
          "type": "uint256"
        }
      ],
      "outputs": []
    },
    {
      "stateMutability": "nonpayable",
      "type": "function",
      "name": "vote_for_many_gauge_weights",
      "inputs": [
        {
          "name": "_gauge_addrs",
          "type": "address[8]"
        },
        {
          "name": "_user_weight",
          "type": "uint256[8]"
        }
      ],
      "outputs": []
    },
    {
      "stateMutability": "nonpayable",
      "type": "function",
      "name": "vote_for_gauge_weights",
      "inputs": [
        {
          "name": "_gauge_addr",
          "type": "address"
        },
        {
          "name": "_user_weight",
          "type": "uint256"
        }
      ],
      "outputs": []
    },
    {
      "stateMutability": "view",
      "type": "function",
      "name": "get_gauge_weight",
      "inputs": [
        {
          "name": "addr",
          "type": "address"
        }
      ],
      "outputs": [
        {
          "name": "",
          "type": "uint256"
        }
      ]
    },
    {
      "stateMutability": "view",
      "type": "function",
      "name": "get_type_weight",
      "inputs": [
        {
          "name": "type_id",
          "type": "int128"
        }
      ],
      "outputs": [
        {
          "name": "",
          "type": "uint256"
        }
      ]
    },
    {
      "stateMutability": "view",
      "type": "function",
      "name": "get_total_weight",
      "inputs": [],
      "outputs": [
        {
          "name": "",
          "type": "uint256"
        }
      ]
    },
    {
      "stateMutability": "view",
      "type": "function",
      "name": "get_weights_sum_per_type",
      "inputs": [
        {
          "name": "type_id",
          "type": "int128"
        }
      ],
      "outputs": [
        {
          "name": "",
          "type": "uint256"
        }
      ]
    },
    {
      "stateMutability": "view",
      "type": "function",
      "name": "n_gauge_types",
      "inputs": [],
      "outputs": [
        {
          "name": "",
          "type": "int128"
        }
      ]
    },
    {
      "stateMutability": "view",
      "type": "function",
      "name": "n_gauges",
      "inputs": [],
      "outputs": [
        {
          "name": "",
          "type": "int128"
        }
      ]
    },
    {
      "stateMutability": "view",
      "type": "function",
      "name": "gauge_type_names",
      "inputs": [
        {
          "name": "arg0",
          "type": "int128"
        }
      ],
      "outputs": [
        {
          "name": "",
          "type": "string"
        }
      ]
    },
    {
      "stateMutability": "view",
      "type": "function",
      "name": "gauges",
      "inputs": [
        {
          "name": "arg0",
          "type": "uint256"
        }
      ],
      "outputs": [
        {
          "name": "",
          "type": "address"
        }
      ]
    },
    {
      "stateMutability": "view",
      "type": "function",
      "name": "vote_user_slopes",
      "inputs": [
        {
          "name": "arg0",
          "type": "address"
        },
        {
          "name": "arg1",
          "type": "address"
        }
      ],
      "outputs": [
        {
          "name": "",
          "type": "tuple",
          "components": [
            {
              "name": "slope",
              "type": "uint256"
            },
            {
              "name": "power",
              "type": "uint256"
            },
            {
              "name": "end",
              "type": "uint256"
            }
          ]
        }
      ]
    },
    {
      "stateMutability": "view",
      "type": "function",
      "name": "vote_user_power",
      "inputs": [
        {
          "name": "arg0",
          "type": "address"
        }
      ],
      "outputs": [
        {
          "name": "",
          "type": "uint256"
        }
      ]
    },
    {
      "stateMutability": "view",
      "type": "function",
      "name": "last_user_vote",
      "inputs": [
        {
          "name": "arg0",
          "type": "address"
        },
        {
          "name": "arg1",
          "type": "address"
        }
      ],
      "outputs": [
        {
          "name": "",
          "type": "uint256"
        }
      ]
    },
    {
      "stateMutability": "view",
      "type": "function",
      "name": "points_weight",
      "inputs": [
        {
          "name": "arg0",
          "type": "address"
        },
        {
          "name": "arg1",
          "type": "uint256"
        }
      ],
      "outputs": [
        {
          "name": "",
          "type": "tuple",
          "components": [
            {
              "name": "bias",
              "type": "uint256"
            },
            {
              "name": "slope",
              "type": "uint256"
            }
          ]
        }
      ]
    },
    {
      "stateMutability": "view",
      "type": "function",
      "name": "time_weight",
      "inputs": [
        {
          "name": "arg0",
          "type": "address"
        }
      ],
      "outputs": [
        {
          "name": "",
          "type": "uint256"
        }
      ]
    },
    {
      "stateMutability": "view",
      "type": "function",
      "name": "points_sum",
      "inputs": [
        {
          "name": "arg0",
          "type": "int128"
        },
        {
          "name": "arg1",
          "type": "uint256"
        }
      ],
      "outputs": [
        {
          "name": "",
          "type": "tuple",
          "components": [
            {
              "name": "bias",
              "type": "uint256"
            },
            {
              "name": "slope",
              "type": "uint256"
            }
          ]
        }
      ]
    },
    {
      "stateMutability": "view",
      "type": "function",
      "name": "time_sum",
      "inputs": [
        {
          "name": "arg0",
          "type": "uint256"
        }
      ],
      "outputs": [
        {
          "name": "",
          "type": "uint256"
        }
      ]
    },
    {
      "stateMutability": "view",
      "type": "function",
      "name": "points_total",
      "inputs": [
        {
          "name": "arg0",
          "type": "uint256"
        }
      ],
      "outputs": [
        {
          "name": "",
          "type": "uint256"
        }
      ]
    },
    {
      "stateMutability": "view",
      "type": "function",
      "name": "time_total",
      "inputs": [],
      "outputs": [
        {
          "name": "",
          "type": "uint256"
        }
      ]
    },
    {
      "stateMutability": "view",
      "type": "function",
      "name": "points_type_weight",
      "inputs": [
        {
          "name": "arg0",
          "type": "int128"
        },
        {
          "name": "arg1",
          "type": "uint256"
        }
      ],
      "outputs": [
        {
          "name": "",
          "type": "uint256"
        }
      ]
    },
    {
      "stateMutability": "view",
      "type": "function",
      "name": "time_type_weight",
      "inputs": [
        {
          "name": "arg0",
          "type": "uint256"
        }
      ],
      "outputs": [
        {
          "name": "",
          "type": "uint256"
        }
      ]
    }
  ],
  "transactionHash": "0xad8b02f03af4970a88b104b3f4bb3f5ddf3f5691535c6f5fe187b75e5178ebeb",
  "args": [
    "0xf183287df9cB613c16989C16BF60537592fA736c",
    "0x56f34826Cc63151f74FA8f701E4f73C5EAae52AD"
  ],
  "numDeployments": 1,
  "bytecode": "0x602061233c6000396000518060a01c61233757604052602061235c6000396000518060a01c6123375760605234612337576040511561233757606051156123375760405163fc0c546a608052602060806004609c845afa610065573d600060003e3d6000fd5b60203d10612337576080518060a01c6123375760c05260c090505161226f5260405161228f526060516122af524262093a808104905062093a8081028162093a80820418612337579050637735940e5561226f6100c7610000396122cf610000f36003361161000c57610e57565b60003560e01c3461225f5763fc0c546a811861003e576004361861225f57602061226f60003960005160405260206040f35b63dfe050318118610065576004361861225f57602061228f60003960005160405260206040f35b63f851a440811861008c576004361861225f5760206122af60003960005160405260206040f35b6361df1bf981186100d3576024361861225f576004358060a01c61225f57604052633b9aca0460405160205260005260406000205460605260006060511360805260206080f35b633f9095b7811861012f576024361861225f576004358060a01c61225f57604052633b9aca046040516020526000526040600020546060526060511561225f576060516001810380600f0b811861225f57905060805260206080f35b633a04f900811861014d576044361861225f57600061024052610168565b6318dfe9218118610410576064361861225f57604435610240525b6004358060a01c61225f576102005260243580600f0b811861225f576102205260206122af600039600051331861225f5760006102205112156101ac5760006101b5565b60015461022051125b1561225f57633b9aca046102005160205260005260406000205461225f5760025461026052610260516001810180600f0b811861225f5790506002556102005161026051633b9ac9ff811161225f5760040155610220516001810180600f0b811861225f579050633b9aca04610200516020526000526040600020554262093a80810181811061225f57905062093a808104905062093a8081028162093a8082041861225f579050610280526102405115610381576102205160405261027c6102c0610e5d565b6102c0516102a052610220516040526102966102e0610f43565b6102e0516102c0526102a96103006110c6565b610300516102e052610240516102c05180820182811061225f5790509050633b9aca0b610220516020526000526040600020806102805160205260005260406000209050556102805161022051633b9ac9ff811161225f57633b9aca0d01556102e0516102a0516102405180820281158383830414171561225f579050905080820182811061225f5790509050637735940d6102805160205260005260406000205561028051637735940e5561024051633b9aca08610200516020526000526040600020806102805160205260005260406000209050555b61022051633b9ac9ff811161225f57633b9aca0d01546103b6576102805161022051633b9ac9ff811161225f57633b9aca0d01555b61028051633b9aca0a610200516020526000526040600020557ffd55b3191f9c9dd92f4f134dd700e7d76f6a0c836a08687023d6d38f03ebd877610200516102a052610220516102c052610240516102e05260606102a0a1005b63c2c4c5c18118610434576004361861225f5761042e6102006110c6565b61020050005b63615e5237811861047d576024361861225f576004358060a01c61225f576102005261020051604052610468610220611299565b610220506104776102206110c6565b61022050005b636207d866811861049a576024361861225f5742610140526104b5565b63d3078c9481186104e4576044361861225f57602435610140525b6004358060a01c61225f5761012052602061012051604052610140516060526104df61016061141a565b610160f35b6395cfcec38118610501576024361861225f57426102205261051c565b636472eee18118610570576044361861225f57602435610220525b6004358060a01c61225f57610200526102005160405261053d610240611299565b6102405061054c6102406110c6565b610240506020610200516040526102205160605261056b61024061141a565b610240f35b6326e56d5e811861058e576044361061225f5760006103a0526105a9565b6392d0d23281186106f6576064361061225f576024356103a0525b600435600401604081351161225f57803580610340526020820181816103603750505060206122af600039600051331861225f576001546103c052610340518060036103c051602052600052604060002055600160036103c051602052600052604060002001600082601f0160051c6002811161225f57801561064057905b8060051b610360015181840155600101818118610628575b505050506103c0516001810180600f0b811861225f5790506001556103a051156106f4576103c051610200526103a0516102205261067c611530565b7f6fbe76157c712f16b5a3c44ed48baa04e3450bc3fab0c020e848aca72bbccc846040806103e052806103e001610340518082526020820181818361036060045afa5050508051806020830101601f82600003163682375050601f19601f825160200101169050810190506103c051610400526103e0a15b005b63db1ca2608118610744576044361861225f5760043580600f0b811861225f576103405260206122af600039600051331861225f57610340516102005260243561022052610742611530565b005b63d4d2646e8118610790576044361861225f576004358060a01c61225f576103a05260206122af600039600051331861225f576103a051610200526024356102205261078e6116b3565b005b632e4e99a181186108a557610204361861225f576004358060a01c61225f57610560526024358060a01c61225f57610580526044358060a01c61225f576105a0526064358060a01c61225f576105c0526084358060a01c61225f576105e05260a4358060a01c61225f576106005260c4358060a01c61225f576106205260e4358060a01c61225f57610640526002600054181561225f57600260005560006008905b8061066052610660516007811161225f5760051b61056001516108545761089c565b3361020052610660516007811161225f5760051b610560015161022052610660516007811161225f5760051b6101040135610240526108916118e7565b600101818118610832575b50506003600055005b63d713632881186108e5576044361861225f576004358060a01c61225f576105605233610200526105605161022052602435610240526108e36118e7565b005b634e791a3a8118610945576024361861225f576004358060a01c61225f57604052633b9aca08604051602052600052604060002080633b9aca0a604051602052600052604060002054602052600052604060002090505460605260206060f35b6372fdccfa81186109a8576024361861225f5760043580600f0b811861225f57604052637735940f604051602052600052604060002080604051633b9ac9ff811161225f5763773594100154602052600052604060002090505460605260206060f35b636977ff9281186109db576004361861225f57637735940d637735940e5460205260005260406000205460405260206040f35b636f214a6a8118610a3e576024361861225f5760043580600f0b811861225f57604052633b9aca0b604051602052600052604060002080604051633b9ac9ff811161225f57633b9aca0d0154602052600052604060002090505460605260206060f35b639fba03a18118610a5d576004361861225f5760015460405260206040f35b63e93841d08118610a7c576004361861225f5760025460405260206040f35b63d958a8fc8118610b26576024361861225f5760043580600f0b811861225f57604052602080606052600360405160205260005260406000208160600181548082526001830160208301600083601f0160051c6002811161225f578015610af557905b808401548160051b840152600101818118610adf575b50505050508051806020830101601f82600003163682375050601f19601f8251602001011690509050810190506060f35b63b05391878118610b54576024361861225f57600435633b9ac9ff811161225f576004015460405260206040f35b630f467f988118610bc3576044361861225f576004358060a01c61225f576040526024358060a01c61225f57606052633b9aca05604051602052600052604060002080606051602052600052604060002090508054608052600181015460a052600281015460c0525060606080f35b63411e74b58118610c01576024361861225f576004358060a01c61225f57604052633b9aca0660405160205260005260406000205460605260206060f35b637e418fa08118610c5e576044361861225f576004358060a01c61225f576040526024358060a01c61225f57606052633b9aca07604051602052600052604060002080606051602052600052604060002090505460805260206080f35b63edba52738118610cb7576044361861225f576004358060a01c61225f57604052633b9aca0860405160205260005260406000208060243560205260005260406000209050805460605260018101546080525060406060f35b63a4d7a2508118610cf5576024361861225f576004358060a01c61225f57604052633b9aca0a60405160205260005260406000205460605260206060f35b63a9b48c018118610d50576044361861225f5760043580600f0b811861225f57604052633b9aca0b60405160205260005260406000208060243560205260005260406000209050805460605260018101546080525060406060f35b635a5491588118610d81576024361861225f57600435633b9ac9ff811161225f57633b9aca0d015460405260206040f35b631142916b8118610db1576024361861225f57637735940d60043560205260005260406000205460405260206040f35b63513872bd8118610dd3576004361861225f57637735940e5460405260206040f35b63afd2bb498118610e24576044361861225f5760043580600f0b811861225f57604052637735940f604051602052600052604060002080602435602052600052604060002090505460605260206060f35b6351ce6b598118610e55576024361861225f57600435633b9ac9ff811161225f576377359410015460405260206040f35b505b60006000fd5b604051633b9ac9ff811161225f576377359410015460605260605115610f3b57637735940f604051602052600052604060002080606051602052600052604060002090505460805260006101f4905b8060a052426060511115610ebf57610f2a565b60605162093a80810181811061225f579050606052608051637735940f6040516020526000526040600020806060516020526000526040600020905055426060511115610f1f57606051604051633b9ac9ff811161225f57637735941001555b600101818118610eac575b5050608051815250610f4156610f41565b60008152505b565b604051633b9ac9ff811161225f57633b9aca0d0154606052606051156110be57633b9aca0b604051602052600052604060002080606051602052600052604060002090508054608052600181015460a0525060006101f4905b8060c052426060511115610faf576110ad565b60605162093a80810181811061225f57905060605260a05162093a8081028162093a8082041861225f57905060e05260e05160805111610ff45760403660803761104d565b60805160e05180820382811161225f5790509050608052633b9aca0c60405160205260005260406000208060605160205260005260406000209050546101005260a0516101005180820382811161225f579050905060a0525b633b9aca0b60405160205260005260406000208060605160205260005260406000209050608051815560a0516001820155504260605111156110a257606051604051633b9ac9ff811161225f57633b9aca0d01555b600101818118610f9c575b50506080518152506110c4566110c4565b60008152505b565b637735940e546101205260015461014052426101205111156110fa576101205162093a80810381811161225f579050610120525b637735940d610120516020526000526040600020546101605260006064905b806101805261014051610180511861113057611167565b610180516040526111426101a0610f43565b6101a050610180516040526111586101a0610e5d565b6101a050600101818118611119575b505060006101f4905b8061018052426101205111156111855761128e565b6101205162093a80810181811061225f5790506101205260006101605260006064905b806101a052610140516101a051186111bf57611252565b633b9aca0b6101a0516020526000526040600020806101205160205260005260406000209050546101c052637735940f6101a0516020526000526040600020806101205160205260005260406000209050546101e052610160516101c0516101e05180820281158383830414171561225f579050905080820182811061225f5790509050610160526001018181186111a8575b505061016051637735940d61012051602052600052604060002055426101205111156112835761012051637735940e555b600101818118611170575b505061016051815250565b633b9aca0a6040516020526000526040600020546060526060511561141257633b9aca08604051602052600052604060002080606051602052600052604060002090508054608052600181015460a0525060006101f4905b8060c05242606051111561130457611401565b60605162093a80810181811061225f57905060605260a05162093a8081028162093a8082041861225f57905060e05260e05160805111611349576040366080376113a2565b60805160e05180820382811161225f5790509050608052633b9aca0960405160205260005260406000208060605160205260005260406000209050546101005260a0516101005180820382811161225f579050905060a0525b633b9aca0860405160205260005260406000208060605160205260005260406000209050608051815560a0516001820155504260605111156113f657606051633b9aca0a6040516020526000526040600020555b6001018181186112f1575b505060805181525061141856611418565b60008152505b565b60605162093a808104905062093a8081028162093a8082041861225f579050608052637735940d60805160205260005260406000205460a05260a0511561152857633b9aca046040516020526000526040600020546001810380600f0b811861225f57905060c052637735940f60c051602052600052604060002080608051602052600052604060002090505460e052633b9aca0860405160205260005260406000208060805160205260005260406000209050546101005260e051670de0b6b3a7640000810281670de0b6b3a764000082041861225f5790506101005180820281158383830414171561225f579050905060a051801561225f578082049050905081525061152e5661152e565b60008152505b565b61020051604052611542610260610e5d565b61026051610240526102005160405261155c610280610f43565b610280516102605261156f6102a06110c6565b6102a051610280524262093a80810181811061225f57905062093a808104905062093a8081028162093a8082041861225f5790506102a05261028051610260516102205180820281158383830414171561225f579050905080820182811061225f5790509050610260516102405180820281158383830414171561225f579050905080820382811161225f57905090506102805261028051637735940d6102a05160205260005260406000205561022051637735940f610200516020526000526040600020806102a05160205260005260406000209050556102a051637735940e556102a05161020051633b9ac9ff811161225f57637735941001557e170bcdc909b6ac6e12d020fe8942256312cdcd555fb6d712899eba56d2f901610200516102c0526102a0516102e0526102205161030052610280516103205260806102c0a1565b633b9aca04610200516020526000526040600020546001810380600f0b811861225f57905061024052610200516040526116ee610280611299565b6102805161026052610240516040526117086102a0610e5d565b6102a05161028052610240516040526117226102c0610f43565b6102c0516102a0526117356102e06110c6565b6102e0516102c0524262093a80810181811061225f57905062093a808104905062093a8081028162093a8082041861225f5790506102e05261022051633b9aca08610200516020526000526040600020806102e05160205260005260406000209050556102e051633b9aca0a610200516020526000526040600020556102a0516102205180820182811061225f57905090506102605180820382811161225f57905090506103005261030051633b9aca0b610240516020526000526040600020806102e05160205260005260406000209050556102e05161024051633b9ac9ff811161225f57633b9aca0d01556102c051610300516102805180820281158383830414171561225f579050905080820182811061225f57905090506102a0516102805180820281158383830414171561225f579050905080820382811161225f57905090506102c0526102c051637735940d6102e0516020526000526040600020556102e051637735940e557f54c0cf3647e6cdb2fc0a7876e60ba77563fceedf2e06c01c597f8dccb9e6bd726102005161032052426103405261022051610360526102c051610380526080610320a1565b602061228f600039600051637c74a17461028052610200516102a0526020610280602461029c845afa61191f573d600060003e3d6000fd5b60203d1061225f576102805180600f0b811861225f576102c0526102c09050516000811261225f5761026052602061228f60003960005163adc635896102a052610200516102c05260206102a060246102bc845afa611983573d600060003e3d6000fd5b60203d1061225f576102a0905051610280526002546102a0524262093a80810181811061225f57905062093a808104905062093a8081028162093a8082041861225f5790506102c0526102c0516102805111611a3f5760206102e0527f596f757220746f6b656e206c6f636b206578706972657320746f6f20736f6f6e610300526102e0506102e0518061030001601f826000031636823750506308c379a06102a05260206102c052601f19601f6102e05101166044016102bcfd5b6000610240511015611a52576000611a5c565b6127106102405111155b611ac657601e6102e0527f596f75207573656420616c6c20796f757220766f74696e6720706f7765720000610300526102e0506102e0518061030001601f826000031636823750506308c379a06102a05260206102c052601f19601f6102e05101166044016102bcfd5b633b9aca0761020051602052600052604060002080610220516020526000526040600020905054620d2f00810181811061225f579050421015611b695760146102e0527f43616e6e6f7420766f746520736f206f6674656e000000000000000000000000610300526102e0506102e0518061030001601f826000031636823750506308c379a06102a05260206102c052601f19601f6102e05101166044016102bcfd5b633b9aca04610220516020526000526040600020546001810380600f0b811861225f5790506102e05260006102e0511215611c0457600f610300527f4761756765206e6f7420616464656400000000000000000000000000000000006103205261030050610300518061032001601f826000031636823750506308c379a06102c05260206102e052601f19601f6103005101166044016102dcfd5b633b9aca05610200516020526000526040600020806102205160205260005260406000209050805461030052600181015461032052600281015461034052506000610360526102c051610340511115611c7257610340516102c05180820382811161225f5790509050610360525b610300516103605180820281158383830414171561225f579050905061038052610260516102405180820281158383830414171561225f5790509050612710810490506103a052610240516103c052610280516103e052610280516102c05180820382811161225f5790509050610400526103a0516104005180820281158383830414171561225f579050905061042052633b9aca066102005160205260005260406000205461044052610440516103c05180820182811061225f57905090506103205180820382811161225f57905090506104405261044051633b9aca06610200516020526000526040600020556000610440511015611d74576000611d7e565b6127106104405111155b611de8576013610460527f5573656420746f6f206d75636820706f776572000000000000000000000000006104805261046050610460518061048001601f826000031636823750506308c379a061042052602061044052601f19601f61046051011660440161043cfd5b61022051604052611dfa610480611299565b6104805161046052633b9aca08610220516020526000526040600020806102c0516020526000526040600020905060018101905054610480526102e051604052611e456104c0610f43565b6104c0516104a052633b9aca0b6102e0516020526000526040600020806102c05160205260005260406000209050600181019050546104c052610460516104205180820182811061225f579050905061038051808281188284110218905090506103805180820382811161225f5790509050633b9aca08610220516020526000526040600020806102c05160205260005260406000209050556104a0516104205180820182811061225f579050905061038051808281188284110218905090506103805180820382811161225f5790509050633b9aca0b6102e0516020526000526040600020806102c05160205260005260406000209050556102c0516103405111611fd657633b9aca08610220516020526000526040600020806102c0516020526000526040600020905060018101905080546103a05180820182811061225f5790509050815550633b9aca0b6102e0516020526000526040600020806102c0516020526000526040600020905060018101905080546103a05180820182811061225f57905090508155506120a3565b610480516103a05180820182811061225f579050905061030051808281188284110218905090506103005180820382811161225f5790509050633b9aca08610220516020526000526040600020806102c05160205260005260406000209050600181019050556104c0516103a05180820182811061225f579050905061030051808281188284110218905090506103005180820382811161225f5790509050633b9aca0b6102e0516020526000526040600020806102c05160205260005260406000209050600181019050555b4261034051111561212957633b9aca0961022051602052600052604060002080610340516020526000526040600020905080546103005180820382811161225f5790509050815550633b9aca0c6102e051602052600052604060002080610340516020526000526040600020905080546103005180820382811161225f57905090508155505b633b9aca09610220516020526000526040600020806103e0516020526000526040600020905080546103a05180820182811061225f5790509050815550633b9aca0c6102e0516020526000526040600020806103e0516020526000526040600020905080546103a05180820182811061225f57905090508155506121ae6104e06110c6565b6104e050633b9aca056102005160205260005260406000208061022051602052600052604060002090506103a05181556103c05160018201556103e05160028201555042633b9aca07610200516020526000526040600020806102205160205260005260406000209050557f45ca9a4c8d0119eb329e580d28fe689e484e1be230da8037ade9547d2d25cc91426104e05261020051610500526102205161052052610240516105405260806104e0a1565b600080fda165767970657283000304005b600080fd"
}