{
  "address": "0x2470c7b811f43bAAE862FC9de0BfC5B6284eA57F",
  "abi": [
    {
      "inputs": [
        {
          "internalType": "address",
          "name": "_owner",
          "type": "address"
        },
        {
          "internalType": "address",
          "name": "_emittedToken",
          "type": "address"
        },
        {
          "internalType": "address",
          "name": "_timelock_address",
          "type": "address"
        },
        {
          "internalType": "address",
          "name": "_veMPH_address",
          "type": "address"
        }
      ],
      "stateMutability": "nonpayable",
      "type": "constructor"
    },
    {
      "anonymous": false,
      "inputs": [],
      "name": "DefaultInitialization",
      "type": "event"
    },
    {
      "anonymous": false,
      "inputs": [
        {
          "indexed": true,
          "internalType": "address",
          "name": "user",
          "type": "address"
        },
        {
          "indexed": false,
          "internalType": "uint256",
          "name": "yield",
          "type": "uint256"
        },
        {
          "indexed": false,
          "internalType": "address",
          "name": "token_address",
          "type": "address"
        }
      ],
      "name": "OldYieldCollected",
      "type": "event"
    },
    {
      "anonymous": false,
      "inputs": [
        {
          "indexed": false,
          "internalType": "address",
          "name": "oldOwner",
          "type": "address"
        },
        {
          "indexed": false,
          "internalType": "address",
          "name": "newOwner",
          "type": "address"
        }
      ],
      "name": "OwnerChanged",
      "type": "event"
    },
    {
      "anonymous": false,
      "inputs": [
        {
          "indexed": false,
          "internalType": "address",
          "name": "newOwner",
          "type": "address"
        }
      ],
      "name": "OwnerNominated",
      "type": "event"
    },
    {
      "anonymous": false,
      "inputs": [
        {
          "indexed": false,
          "internalType": "address",
          "name": "token",
          "type": "address"
        },
        {
          "indexed": false,
          "internalType": "uint256",
          "name": "amount",
          "type": "uint256"
        }
      ],
      "name": "RecoveredERC20",
      "type": "event"
    },
    {
      "anonymous": false,
      "inputs": [
        {
          "indexed": false,
          "internalType": "uint256",
          "name": "reward",
          "type": "uint256"
        },
        {
          "indexed": false,
          "internalType": "uint256",
          "name": "yieldRate",
          "type": "uint256"
        }
      ],
      "name": "RewardAdded",
      "type": "event"
    },
    {
      "anonymous": false,
      "inputs": [
        {
          "indexed": true,
          "internalType": "address",
          "name": "user",
          "type": "address"
        },
        {
          "indexed": false,
          "internalType": "uint256",
          "name": "yield",
          "type": "uint256"
        },
        {
          "indexed": false,
          "internalType": "address",
          "name": "token_address",
          "type": "address"
        }
      ],
      "name": "YieldCollected",
      "type": "event"
    },
    {
      "anonymous": false,
      "inputs": [
        {
          "indexed": false,
          "internalType": "uint256",
          "name": "newDuration",
          "type": "uint256"
        }
      ],
      "name": "YieldDurationUpdated",
      "type": "event"
    },
    {
      "anonymous": false,
      "inputs": [
        {
          "indexed": false,
          "internalType": "address",
          "name": "token",
          "type": "address"
        },
        {
          "indexed": false,
          "internalType": "uint256",
          "name": "yieldRate",
          "type": "uint256"
        }
      ],
      "name": "YieldPeriodRenewed",
      "type": "event"
    },
    {
      "inputs": [],
      "name": "acceptOwnership",
      "outputs": [],
      "stateMutability": "nonpayable",
      "type": "function"
    },
    {
      "inputs": [],
      "name": "checkpoint",
      "outputs": [],
      "stateMutability": "nonpayable",
      "type": "function"
    },
    {
      "inputs": [
        {
          "internalType": "address",
          "name": "user_addr",
          "type": "address"
        }
      ],
      "name": "checkpointOtherUser",
      "outputs": [],
      "stateMutability": "nonpayable",
      "type": "function"
    },
    {
      "inputs": [
        {
          "internalType": "address",
          "name": "account",
          "type": "address"
        }
      ],
      "name": "earned",
      "outputs": [
        {
          "internalType": "uint256",
          "name": "",
          "type": "uint256"
        }
      ],
      "stateMutability": "view",
      "type": "function"
    },
    {
      "inputs": [
        {
          "internalType": "address",
          "name": "account",
          "type": "address"
        }
      ],
      "name": "eligibleCurrentVeMPH",
      "outputs": [
        {
          "internalType": "uint256",
          "name": "eligible_vemph_bal",
          "type": "uint256"
        },
        {
          "internalType": "uint256",
          "name": "stored_ending_timestamp",
          "type": "uint256"
        }
      ],
      "stateMutability": "view",
      "type": "function"
    },
    {
      "inputs": [],
      "name": "emittedToken",
      "outputs": [
        {
          "internalType": "contract ERC20",
          "name": "",
          "type": "address"
        }
      ],
      "stateMutability": "view",
      "type": "function"
    },
    {
      "inputs": [],
      "name": "emitted_token_address",
      "outputs": [
        {
          "internalType": "address",
          "name": "",
          "type": "address"
        }
      ],
      "stateMutability": "view",
      "type": "function"
    },
    {
      "inputs": [],
      "name": "fractionParticipating",
      "outputs": [
        {
          "internalType": "uint256",
          "name": "",
          "type": "uint256"
        }
      ],
      "stateMutability": "view",
      "type": "function"
    },
    {
      "inputs": [],
      "name": "getYield",
      "outputs": [
        {
          "internalType": "uint256",
          "name": "yield0",
          "type": "uint256"
        }
      ],
      "stateMutability": "nonpayable",
      "type": "function"
    },
    {
      "inputs": [],
      "name": "getYieldForDuration",
      "outputs": [
        {
          "internalType": "uint256",
          "name": "",
          "type": "uint256"
        }
      ],
      "stateMutability": "view",
      "type": "function"
    },
    {
      "inputs": [
        {
          "internalType": "address",
          "name": "",
          "type": "address"
        }
      ],
      "name": "greylist",
      "outputs": [
        {
          "internalType": "bool",
          "name": "",
          "type": "bool"
        }
      ],
      "stateMutability": "view",
      "type": "function"
    },
    {
      "inputs": [
        {
          "internalType": "address",
          "name": "_address",
          "type": "address"
        }
      ],
      "name": "greylistAddress",
      "outputs": [],
      "stateMutability": "nonpayable",
      "type": "function"
    },
    {
      "inputs": [],
      "name": "lastTimeYieldApplicable",
      "outputs": [
        {
          "internalType": "uint256",
          "name": "",
          "type": "uint256"
        }
      ],
      "stateMutability": "view",
      "type": "function"
    },
    {
      "inputs": [],
      "name": "lastUpdateTime",
      "outputs": [
        {
          "internalType": "uint256",
          "name": "",
          "type": "uint256"
        }
      ],
      "stateMutability": "view",
      "type": "function"
    },
    {
      "inputs": [
        {
          "internalType": "address",
          "name": "_owner",
          "type": "address"
        }
      ],
      "name": "nominateNewOwner",
      "outputs": [],
      "stateMutability": "nonpayable",
      "type": "function"
    },
    {
      "inputs": [],
      "name": "nominatedOwner",
      "outputs": [
        {
          "internalType": "address",
          "name": "",
          "type": "address"
        }
      ],
      "stateMutability": "view",
      "type": "function"
    },
    {
      "inputs": [
        {
          "internalType": "uint256",
          "name": "amount",
          "type": "uint256"
        }
      ],
      "name": "notifyRewardAmount",
      "outputs": [],
      "stateMutability": "nonpayable",
      "type": "function"
    },
    {
      "inputs": [],
      "name": "owner",
      "outputs": [
        {
          "internalType": "address",
          "name": "",
          "type": "address"
        }
      ],
      "stateMutability": "view",
      "type": "function"
    },
    {
      "inputs": [],
      "name": "periodFinish",
      "outputs": [
        {
          "internalType": "uint256",
          "name": "",
          "type": "uint256"
        }
      ],
      "stateMutability": "view",
      "type": "function"
    },
    {
      "inputs": [
        {
          "internalType": "address",
          "name": "tokenAddress",
          "type": "address"
        },
        {
          "internalType": "uint256",
          "name": "tokenAmount",
          "type": "uint256"
        }
      ],
      "name": "recoverERC20",
      "outputs": [],
      "stateMutability": "nonpayable",
      "type": "function"
    },
    {
      "inputs": [
        {
          "internalType": "address",
          "name": "",
          "type": "address"
        }
      ],
      "name": "reward_notifiers",
      "outputs": [
        {
          "internalType": "bool",
          "name": "",
          "type": "bool"
        }
      ],
      "stateMutability": "view",
      "type": "function"
    },
    {
      "inputs": [
        {
          "internalType": "bool",
          "name": "_yieldCollectionPaused",
          "type": "bool"
        }
      ],
      "name": "setPauses",
      "outputs": [],
      "stateMutability": "nonpayable",
      "type": "function"
    },
    {
      "inputs": [
        {
          "internalType": "address",
          "name": "_new_timelock",
          "type": "address"
        }
      ],
      "name": "setTimelock",
      "outputs": [],
      "stateMutability": "nonpayable",
      "type": "function"
    },
    {
      "inputs": [
        {
          "internalType": "uint256",
          "name": "_yieldDuration",
          "type": "uint256"
        }
      ],
      "name": "setYieldDuration",
      "outputs": [],
      "stateMutability": "nonpayable",
      "type": "function"
    },
    {
      "inputs": [
        {
          "internalType": "uint256",
          "name": "_new_rate0",
          "type": "uint256"
        },
        {
          "internalType": "bool",
          "name": "sync_too",
          "type": "bool"
        }
      ],
      "name": "setYieldRate",
      "outputs": [],
      "stateMutability": "nonpayable",
      "type": "function"
    },
    {
      "inputs": [],
      "name": "sync",
      "outputs": [],
      "stateMutability": "nonpayable",
      "type": "function"
    },
    {
      "inputs": [],
      "name": "timelock_address",
      "outputs": [
        {
          "internalType": "address",
          "name": "",
          "type": "address"
        }
      ],
      "stateMutability": "view",
      "type": "function"
    },
    {
      "inputs": [
        {
          "internalType": "address",
          "name": "notifier_addr",
          "type": "address"
        }
      ],
      "name": "toggleRewardNotifier",
      "outputs": [],
      "stateMutability": "nonpayable",
      "type": "function"
    },
    {
      "inputs": [],
      "name": "totalVeMPHParticipating",
      "outputs": [
        {
          "internalType": "uint256",
          "name": "",
          "type": "uint256"
        }
      ],
      "stateMutability": "view",
      "type": "function"
    },
    {
      "inputs": [],
      "name": "totalVeMPHSupplyStored",
      "outputs": [
        {
          "internalType": "uint256",
          "name": "",
          "type": "uint256"
        }
      ],
      "stateMutability": "view",
      "type": "function"
    },
    {
      "inputs": [
        {
          "internalType": "address",
          "name": "",
          "type": "address"
        }
      ],
      "name": "userIsInitialized",
      "outputs": [
        {
          "internalType": "bool",
          "name": "",
          "type": "bool"
        }
      ],
      "stateMutability": "view",
      "type": "function"
    },
    {
      "inputs": [
        {
          "internalType": "address",
          "name": "",
          "type": "address"
        }
      ],
      "name": "userVeMPHCheckpointed",
      "outputs": [
        {
          "internalType": "uint256",
          "name": "",
          "type": "uint256"
        }
      ],
      "stateMutability": "view",
      "type": "function"
    },
    {
      "inputs": [
        {
          "internalType": "address",
          "name": "",
          "type": "address"
        }
      ],
      "name": "userVeMPHEndpointCheckpointed",
      "outputs": [
        {
          "internalType": "uint256",
          "name": "",
          "type": "uint256"
        }
      ],
      "stateMutability": "view",
      "type": "function"
    },
    {
      "inputs": [
        {
          "internalType": "address",
          "name": "",
          "type": "address"
        }
      ],
      "name": "userYieldPerTokenPaid",
      "outputs": [
        {
          "internalType": "uint256",
          "name": "",
          "type": "uint256"
        }
      ],
      "stateMutability": "view",
      "type": "function"
    },
    {
      "inputs": [],
      "name": "yieldCollectionPaused",
      "outputs": [
        {
          "internalType": "bool",
          "name": "",
          "type": "bool"
        }
      ],
      "stateMutability": "view",
      "type": "function"
    },
    {
      "inputs": [],
      "name": "yieldDuration",
      "outputs": [
        {
          "internalType": "uint256",
          "name": "",
          "type": "uint256"
        }
      ],
      "stateMutability": "view",
      "type": "function"
    },
    {
      "inputs": [],
      "name": "yieldPerVeMPH",
      "outputs": [
        {
          "internalType": "uint256",
          "name": "",
          "type": "uint256"
        }
      ],
      "stateMutability": "view",
      "type": "function"
    },
    {
      "inputs": [],
      "name": "yieldPerVeMPHStored",
      "outputs": [
        {
          "internalType": "uint256",
          "name": "",
          "type": "uint256"
        }
      ],
      "stateMutability": "view",
      "type": "function"
    },
    {
      "inputs": [],
      "name": "yieldRate",
      "outputs": [
        {
          "internalType": "uint256",
          "name": "",
          "type": "uint256"
        }
      ],
      "stateMutability": "view",
      "type": "function"
    },
    {
      "inputs": [
        {
          "internalType": "address",
          "name": "",
          "type": "address"
        }
      ],
      "name": "yields",
      "outputs": [
        {
          "internalType": "uint256",
          "name": "",
          "type": "uint256"
        }
      ],
      "stateMutability": "view",
      "type": "function"
    }
  ],
  "transactionHash": "0x9ad93c71191d3ff69f107ca3abebec7c38c1456996cb5a0661f6ad3cc9aa10cc",
  "args": [
    "0x56f34826Cc63151f74FA8f701E4f73C5EAae52AD",
    "0x8888801aF4d980682e47f1A9036e589479e835C5",
    "0x90523c113517A59f6BEBC123b75612Aea9FD3140",
    "0x0f17c89Ae8eDF5F8AD78D4af5518DC238bb62624"
  ],
  "numDeployments": 1,
  "solcInputHash": "4965f8c9a7bf13ed501782ae1bb4db5e",
  "bytecode": "0x608060405262093a80600a556000600c819055600f8190556010556016805460ff191690553480156200003157600080fd5b50604051620027053803806200270583398101604081905262000054916200019e565b836001600160a01b038116620000b05760405162461bcd60e51b815260206004820152601960248201527f4f776e657220616464726573732063616e6e6f74206265203000000000000000604482015260640160405180910390fd5b600080546001600160a01b0319166001600160a01b03831690811782556040805192835260208301919091527fb532073b38c83145e3e5135377a08bf9aab55bc0fd7c1179cd4fb995d2a5159c910160405180910390a15060016002819055600580546001600160a01b03199081166001600160a01b0396871690811790925560048054821690921790915560038054821693861693909317909255426008556006805490921692841692909217905591166000908152600b60205260409020805460ff19169091179055620001fb565b80516001600160a01b03811681146200019957600080fd5b919050565b60008060008060808587031215620001b557600080fd5b620001c08562000181565b9350620001d06020860162000181565b9250620001e06040860162000181565b9150620001f06060860162000181565b905092959194509250565b6124fa806200020b6000396000f3fe608060405234801561001057600080fd5b50600436106102c75760003560e01c80638da5cb5b1161017b578063c8f33c91116100d8578063ebe2b12b1161008c578063fc939bb111610071578063fc939bb11461060b578063ff7cc34a14610613578063fff6cae91461061c57600080fd5b8063ebe2b12b146105e2578063f8b67dc3146105eb57600080fd5b8063de02bab7116100bd578063de02bab714610599578063e172cf21146105b9578063e9218ff6146105c257600080fd5b8063c8f33c9114610570578063dc6663c71461057957600080fd5b8063a4bc8dd51161012f578063ad1148cb11610114578063ad1148cb14610548578063bdacb30314610555578063c2c4c5c11461056857600080fd5b8063a4bc8dd514610505578063a875f4721461052857600080fd5b8063941d9f6511610160578063941d9f65146104cc578063948e25a2146104df5780639f8a835a146104f257600080fd5b80638da5cb5b1461049957806391519bda146104b957600080fd5b806342c92f6e1161022957806374ea0b98116101dd5780637c262871116101c25780637c262871146104755780638697256b1461047d5780638980f11f1461048657600080fd5b806374ea0b981461045a57806379ba50971461046d57600080fd5b806353a47bb71161020e57806353a47bb71461042957806356d9fff3146104495780636999ac931461045157600080fd5b806342c92f6e146103f657806350fe98ac1461040957600080fd5b806319aec6d21161028057806338359fc21161026557806338359fc21461039657806338803d49146103db5780633c6b16ab146103e357600080fd5b806319aec6d21461036b57806331ca208c1461037357600080fd5b80630d8ab459116102b15780630d8ab459146102fb57806314b30537146103235780631627540c1461035657600080fd5b80628cc262146102cc57806305cfb058146102f2575b600080fd5b6102df6102da3660046121e0565b610624565b6040519081526020015b60405180910390f35b6102df600f5481565b61030e6103093660046121e0565b610818565b604080519283526020830191909152016102e9565b6103466103313660046121e0565b60116020526000908152604090205460ff1681565b60405190151581526020016102e9565b6103696103643660046121e0565b610914565b005b6102df610a3a565b6103466103813660046121e0565b60156020526000908152604090205460ff1681565b6005546103b69073ffffffffffffffffffffffffffffffffffffffff1681565b60405173ffffffffffffffffffffffffffffffffffffffff90911681526020016102e9565b6102df610a58565b6103696103f13660046121fb565b610a9e565b6103696104043660046121e0565b610bf6565b6102df6104173660046121e0565b600e6020526000908152604090205481565b6001546103b69073ffffffffffffffffffffffffffffffffffffffff1681565b6102df610ced565b6102df60095481565b6103696104683660046121fb565b610cfb565b610369610e95565b6102df610fe0565b6102df60105481565b610369610494366004612214565b611201565b6000546103b69073ffffffffffffffffffffffffffffffffffffffff1681565b6103696104c736600461224c565b61131c565b6103696104da3660046121e0565b6113d6565b6103696104ed36600461227c565b6114cd565b6103696105003660046121e0565b6115a1565b6103466105133660046121e0565b600b6020526000908152604090205460ff1681565b6102df6105363660046121e0565b600d6020526000908152604090205481565b6016546103469060ff1681565b6103696105633660046121e0565b6115ad565b610369611697565b6102df60085481565b6006546103b69073ffffffffffffffffffffffffffffffffffffffff1681565b6102df6105a73660046121e0565b60136020526000908152604090205481565b6102df600a5481565b6004546103b69073ffffffffffffffffffffffffffffffffffffffff1681565b6102df60075481565b6102df6105f93660046121e0565b60126020526000908152604090205481565b6102df6116a2565b6102df600c5481565b6103696116c2565b73ffffffffffffffffffffffffffffffffffffffff811660009081526011602052604081205460ff1661065957506000919050565b60008061066584610818565b9092509050620f42408261072e5773ffffffffffffffffffffffffffffffffffffffff851660009081526014602052604090205482116106aa57506000949350505050565b73ffffffffffffffffffffffffffffffffffffffff85166000908152601460205260408120546106db908490611771565b73ffffffffffffffffffffffffffffffffffffffff871660009081526014602052604081205491925090610710904290611771565b905061072981610723620f4240856117bc565b90611871565b925050505b73ffffffffffffffffffffffffffffffffffffffff85166000908152601260205260408120548085111561076457809150610776565b610773600261072387846118b3565b91505b5073ffffffffffffffffffffffffffffffffffffffff86166000908152600e602052604090205461080e906108086107b9620f4240670de0b6b3a76400006122c8565b73ffffffffffffffffffffffffffffffffffffffff8a166000908152600d6020526040902054610723908790610802906107fb906107f5610a58565b90611771565b88906117bc565b906117bc565b906118b3565b9695505050505050565b6003546040517f70a0823100000000000000000000000000000000000000000000000000000000815273ffffffffffffffffffffffffffffffffffffffff838116600483015260009283928392909116906370a0823190602401602060405180830381865afa15801561088f573d6000803e3d6000fd5b505050506040513d601f19601f820116820180604052508101906108b39190612305565b73ffffffffffffffffffffffffffffffffffffffff85166000908152601360205260409020549250905081158015906108ec5750814210155b156108fa576000925061090e565b81421061090a576000925061090e565b8092505b50915091565b60005473ffffffffffffffffffffffffffffffffffffffff1633146109c0576040517f08c379a000000000000000000000000000000000000000000000000000000000815260206004820152602f60248201527f4f6e6c792074686520636f6e7472616374206f776e6572206d6179207065726660448201527f6f726d207468697320616374696f6e000000000000000000000000000000000060648201526084015b60405180910390fd5b600180547fffffffffffffffffffffffff00000000000000000000000000000000000000001673ffffffffffffffffffffffffffffffffffffffff83169081179091556040519081527f906a1c6bd7e3091ea86693dd029a831c19049ce77f1dce2ce0bab1cacbabce22906020015b60405180910390a150565b6000610a53600a546009546117bc90919063ffffffff16565b905090565b600060105460001415610a6c5750600c5490565b610a53610a95601054610723670de0b6b3a76400006108026009546108026008546107f5610ced565b600c54906118b3565b336000908152600b602052604090205460ff16610b17576040517f08c379a000000000000000000000000000000000000000000000000000000000815260206004820152601660248201527f53656e646572206e6f742077686974656c69737465640000000000000000000060448201526064016109b7565b600454610b3c9073ffffffffffffffffffffffffffffffffffffffff1633308461192c565b610b446116c2565b6007544210610b6357600a54610b5b908290611871565b600955610ba6565b600754600090610b739042611771565b90506000610b8c600954836117bc90919063ffffffff16565b600a54909150610ba09061072385846118b3565b60095550505b426008819055600a54610bb991906118b3565b6007556009546040805183815260208101929092527f6c07ee05dcf262f13abf9d87b846ee789d2f90fe991d495acd7d7fc109ee1f559101610a2f565b60005473ffffffffffffffffffffffffffffffffffffffff16331480610c33575060065473ffffffffffffffffffffffffffffffffffffffff1633145b610c99576040517f08c379a000000000000000000000000000000000000000000000000000000000815260206004820152601560248201527f4e6f74206f776e6572206f722074696d656c6f636b000000000000000000000060448201526064016109b7565b73ffffffffffffffffffffffffffffffffffffffff166000908152600b6020526040902080547fffffffffffffffffffffffffffffffffffffffffffffffffffffffffffffff00811660ff90911615179055565b6000610a53426007546119c7565b60005473ffffffffffffffffffffffffffffffffffffffff16331480610d38575060065473ffffffffffffffffffffffffffffffffffffffff1633145b610d9e576040517f08c379a000000000000000000000000000000000000000000000000000000000815260206004820152601560248201527f4e6f74206f776e6572206f722074696d656c6f636b000000000000000000000060448201526064016109b7565b6007541580610dae575060075442115b610e60576040517f08c379a000000000000000000000000000000000000000000000000000000000815260206004820152605660248201527f50726576696f7573207969656c6420706572696f64206d75737420626520636f60448201527f6d706c657465206265666f7265206368616e67696e672074686520647572617460648201527f696f6e20666f7220746865206e657720706572696f6400000000000000000000608482015260a4016109b7565b600a8190556040518181527fce653f06b9044b00e7d9d01b9b4228e84812092cb6a38371889bef19370d21f790602001610a2f565b60015473ffffffffffffffffffffffffffffffffffffffff163314610f3c576040517f08c379a000000000000000000000000000000000000000000000000000000000815260206004820152603560248201527f596f75206d757374206265206e6f6d696e61746564206265666f726520796f7560448201527f2063616e20616363657074206f776e657273686970000000000000000000000060648201526084016109b7565b6000546001546040805173ffffffffffffffffffffffffffffffffffffffff93841681529290911660208301527fb532073b38c83145e3e5135377a08bf9aab55bc0fd7c1179cd4fb995d2a5159c910160405180910390a160018054600080547fffffffffffffffffffffffff000000000000000000000000000000000000000090811673ffffffffffffffffffffffffffffffffffffffff841617909155169055565b600060028054141561104e576040517f08c379a000000000000000000000000000000000000000000000000000000000815260206004820152601f60248201527f5265656e7472616e637947756172643a207265656e7472616e742063616c6c0060448201526064016109b7565b6002805560165460ff16156110bf576040517f08c379a000000000000000000000000000000000000000000000000000000000815260206004820152601a60248201527f5969656c6420636f6c6c656374696f6e2069732070617573656400000000000060448201526064016109b7565b336110c9816119dd565b3360009081526015602052604090205460ff1615611143576040517f08c379a000000000000000000000000000000000000000000000000000000000815260206004820152601b60248201527f4164647265737320686173206265656e20677265796c6973746564000000000060448201526064016109b7565b336000908152600e6020526040902054915081156111e657336000818152600e60205260408120556005546111919173ffffffffffffffffffffffffffffffffffffffff9091169084611c4b565b6005546040805184815273ffffffffffffffffffffffffffffffffffffffff909216602083015233917f3998039806f6db7e5d83a5371638cc47dd2e9ae500d5d561d95ec6381f53e3cd910160405180910390a25b50336000908152601460205260409020429055600160025590565b60005473ffffffffffffffffffffffffffffffffffffffff1633148061123e575060065473ffffffffffffffffffffffffffffffffffffffff1633145b6112a4576040517f08c379a000000000000000000000000000000000000000000000000000000000815260206004820152601560248201527f4e6f74206f776e6572206f722074696d656c6f636b000000000000000000000060448201526064016109b7565b6000546112c990839073ffffffffffffffffffffffffffffffffffffffff1683611c4b565b6040805173ffffffffffffffffffffffffffffffffffffffff84168152602081018390527f55350610fe57096d8c0ffa30beede987326bccfcb0b4415804164d0dd50ce8b1910160405180910390a15050565b60005473ffffffffffffffffffffffffffffffffffffffff16331480611359575060065473ffffffffffffffffffffffffffffffffffffffff1633145b6113bf576040517f08c379a000000000000000000000000000000000000000000000000000000000815260206004820152601560248201527f4e6f74206f776e6572206f722074696d656c6f636b000000000000000000000060448201526064016109b7565b600982905580156113d2576113d26116c2565b5050565b60005473ffffffffffffffffffffffffffffffffffffffff16331480611413575060065473ffffffffffffffffffffffffffffffffffffffff1633145b611479576040517f08c379a000000000000000000000000000000000000000000000000000000000815260206004820152601560248201527f4e6f74206f776e6572206f722074696d656c6f636b000000000000000000000060448201526064016109b7565b73ffffffffffffffffffffffffffffffffffffffff16600090815260156020526040902080547fffffffffffffffffffffffffffffffffffffffffffffffffffffffffffffff00811660ff90911615179055565b60005473ffffffffffffffffffffffffffffffffffffffff1633148061150a575060065473ffffffffffffffffffffffffffffffffffffffff1633145b611570576040517f08c379a000000000000000000000000000000000000000000000000000000000815260206004820152601560248201527f4e6f74206f776e6572206f722074696d656c6f636b000000000000000000000060448201526064016109b7565b601680547fffffffffffffffffffffffffffffffffffffffffffffffffffffffffffffff0016911515919091179055565b6115aa816119dd565b50565b60005473ffffffffffffffffffffffffffffffffffffffff163314806115ea575060065473ffffffffffffffffffffffffffffffffffffffff1633145b611650576040517f08c379a000000000000000000000000000000000000000000000000000000000815260206004820152601560248201527f4e6f74206f776e6572206f722074696d656c6f636b000000000000000000000060448201526064016109b7565b600680547fffffffffffffffffffffffff00000000000000000000000000000000000000001673ffffffffffffffffffffffffffffffffffffffff92909216919091179055565b6116a0336119dd565b565b6000610a53601054610723620f4240600f546117bc90919063ffffffff16565b6116ca610a58565b600c55600354604080517f18160ddd000000000000000000000000000000000000000000000000000000008152905173ffffffffffffffffffffffffffffffffffffffff909216916318160ddd916004808201926020929091908290030181865afa15801561173d573d6000803e3d6000fd5b505050506040513d601f19601f820116820180604052508101906117619190612305565b60105561176c610ced565b600855565b60006117b383836040518060400160405280601e81526020017f536166654d6174683a207375627472616374696f6e206f766572666c6f770000815250611dbb565b90505b92915050565b6000826117cb575060006117b6565b60006117d783856122c8565b9050826117e4858361231e565b146117b3576040517f08c379a000000000000000000000000000000000000000000000000000000000815260206004820152602160248201527f536166654d6174683a206d756c7469706c69636174696f6e206f766572666c6f60448201527f770000000000000000000000000000000000000000000000000000000000000060648201526084016109b7565b60006117b383836040518060400160405280601a81526020017f536166654d6174683a206469766973696f6e206279207a65726f000000000000815250611e11565b6000806118c08385612359565b9050838110156117b3576040517f08c379a000000000000000000000000000000000000000000000000000000000815260206004820152601b60248201527f536166654d6174683a206164646974696f6e206f766572666c6f77000000000060448201526064016109b7565b6040805173ffffffffffffffffffffffffffffffffffffffff85811660248301528416604482015260648082018490528251808303909101815260849091019091526020810180517bffffffffffffffffffffffffffffffffffffffffffffffffffffffff167f23b872dd000000000000000000000000000000000000000000000000000000001790526119c1908590611e59565b50505050565b60008183106119d657816117b3565b5090919050565b6119e56116c2565b6119ee81611f6a565b73ffffffffffffffffffffffffffffffffffffffff8181166000818152601260205260408082205460035491517f70a0823100000000000000000000000000000000000000000000000000000000815260048101949094529391929116906370a0823190602401602060405180830381865afa158015611a72573d6000803e3d6000fd5b505050506040513d601f19601f82011682018060405250810190611a969190612305565b73ffffffffffffffffffffffffffffffffffffffff84811660008181526012602052604080822085905560035490517fcbf9fe5f0000000000000000000000000000000000000000000000000000000081526004810193909352939450929091169063cbf9fe5f906024016040805180830381865afa158015611b1d573d6000803e3d6000fd5b505050506040513d601f19601f82011682018060405250810190611b419190612371565b60208082015173ffffffffffffffffffffffffffffffffffffffff8716600090815260139092526040909120559050828210611b9c576000611b838385611771565b600f54909150611b9390826118b3565b600f5550611bbd565b6000611ba88484611771565b600f54909150611bb89082611771565b600f55505b73ffffffffffffffffffffffffffffffffffffffff841660009081526011602052604090205460ff166119c15773ffffffffffffffffffffffffffffffffffffffff8416600090815260116020908152604080832080547fffffffffffffffffffffffffffffffffffffffffffffffffffffffffffffff001660011790556014909152902042905550505050565b6040805173ffffffffffffffffffffffffffffffffffffffff8481166024830152604480830185905283518084039091018152606490920183526020820180517bffffffffffffffffffffffffffffffffffffffffffffffffffffffff167fa9059cbb000000000000000000000000000000000000000000000000000000001790529151600092839290871691611ce29190612423565b6000604051808303816000865af19150503d8060008114611d1f576040519150601f19603f3d011682016040523d82523d6000602084013e611d24565b606091505b5091509150818015611d4e575080511580611d4e575080806020019051810190611d4e919061243f565b611db4576040517f08c379a000000000000000000000000000000000000000000000000000000000815260206004820152601f60248201527f5472616e7366657248656c7065723a205452414e534645525f4641494c45440060448201526064016109b7565b5050505050565b60008184841115611df9576040517f08c379a00000000000000000000000000000000000000000000000000000000081526004016109b7919061245c565b506000611e0684866124ad565b9150505b9392505050565b60008183611e4c576040517f08c379a00000000000000000000000000000000000000000000000000000000081526004016109b7919061245c565b506000611e06848661231e565b6000611ebb826040518060400160405280602081526020017f5361666545524332303a206c6f772d6c6576656c2063616c6c206661696c65648152508573ffffffffffffffffffffffffffffffffffffffff16611fcd9092919063ffffffff16565b805190915015611f655780806020019051810190611ed9919061243f565b611f65576040517f08c379a000000000000000000000000000000000000000000000000000000000815260206004820152602a60248201527f5361666545524332303a204552433230206f7065726174696f6e20646964206e60448201527f6f7420737563636565640000000000000000000000000000000000000000000060648201526084016109b7565b505050565b73ffffffffffffffffffffffffffffffffffffffff8116156115aa576000611f9182610624565b73ffffffffffffffffffffffffffffffffffffffff83166000908152600e6020908152604080832093909355600c54600d909152919020555050565b6060611fdc8484600085611fe4565b949350505050565b606082471015612076576040517f08c379a000000000000000000000000000000000000000000000000000000000815260206004820152602660248201527f416464726573733a20696e73756666696369656e742062616c616e636520666f60448201527f722063616c6c000000000000000000000000000000000000000000000000000060648201526084016109b7565b843b6120de576040517f08c379a000000000000000000000000000000000000000000000000000000000815260206004820152601d60248201527f416464726573733a2063616c6c20746f206e6f6e2d636f6e747261637400000060448201526064016109b7565b6000808673ffffffffffffffffffffffffffffffffffffffff1685876040516121079190612423565b60006040518083038185875af1925050503d8060008114612144576040519150601f19603f3d011682016040523d82523d6000602084013e612149565b606091505b5091509150612159828286612164565b979650505050505050565b60608315612173575081611e0a565b8251156121835782518084602001fd5b816040517f08c379a00000000000000000000000000000000000000000000000000000000081526004016109b7919061245c565b803573ffffffffffffffffffffffffffffffffffffffff811681146121db57600080fd5b919050565b6000602082840312156121f257600080fd5b6117b3826121b7565b60006020828403121561220d57600080fd5b5035919050565b6000806040838503121561222757600080fd5b612230836121b7565b946020939093013593505050565b80151581146115aa57600080fd5b6000806040838503121561225f57600080fd5b8235915060208301356122718161223e565b809150509250929050565b60006020828403121561228e57600080fd5b81356117b38161223e565b7f4e487b7100000000000000000000000000000000000000000000000000000000600052601160045260246000fd5b6000817fffffffffffffffffffffffffffffffffffffffffffffffffffffffffffffffff048311821515161561230057612300612299565b500290565b60006020828403121561231757600080fd5b5051919050565b600082612354577f4e487b7100000000000000000000000000000000000000000000000000000000600052601260045260246000fd5b500490565b6000821982111561236c5761236c612299565b500190565b60006040828403121561238357600080fd5b6040516040810181811067ffffffffffffffff821117156123cd577f4e487b7100000000000000000000000000000000000000000000000000000000600052604160045260246000fd5b6040528251600f81900b81146123e257600080fd5b81526020928301519281019290925250919050565b60005b838110156124125781810151838201526020016123fa565b838111156119c15750506000910152565b600082516124358184602087016123f7565b9190910192915050565b60006020828403121561245157600080fd5b81516117b38161223e565b602081526000825180602084015261247b8160408501602087016123f7565b601f017fffffffffffffffffffffffffffffffffffffffffffffffffffffffffffffffe0169190910160400192915050565b6000828210156124bf576124bf612299565b50039056fea264697066735822122045efef6dc5e20f60ba5111f00077efa57cc89f020fc88006397b0fc158f95a1964736f6c634300080a0033",
  "devdoc": {
    "kind": "dev",
    "methods": {},
    "version": 1
  },
  "userdoc": {
    "kind": "user",
    "methods": {},
    "version": 1
  },
  "storageLayout": {
    "storage": [
      {
        "astId": 3196,
        "contract": "contracts/Staking/veMPHYieldDistributorV4.sol:veMPHYieldDistributorV4",
        "label": "owner",
        "offset": 0,
        "slot": "0",
        "type": "t_address"
      },
      {
        "astId": 3198,
        "contract": "contracts/Staking/veMPHYieldDistributorV4.sol:veMPHYieldDistributorV4",
        "label": "nominatedOwner",
        "offset": 0,
        "slot": "1",
        "type": "t_address"
      },
      {
        "astId": 4757,
        "contract": "contracts/Staking/veMPHYieldDistributorV4.sol:veMPHYieldDistributorV4",
        "label": "_status",
        "offset": 0,
        "slot": "2",
        "type": "t_uint256"
      },
      {
        "astId": 3386,
        "contract": "contracts/Staking/veMPHYieldDistributorV4.sol:veMPHYieldDistributorV4",
        "label": "veMPH",
        "offset": 0,
        "slot": "3",
        "type": "t_contract(IveMPH)1548"
      },
      {
        "astId": 3389,
        "contract": "contracts/Staking/veMPHYieldDistributorV4.sol:veMPHYieldDistributorV4",
        "label": "emittedToken",
        "offset": 0,
        "slot": "4",
        "type": "t_contract(ERC20)594"
      },
      {
        "astId": 3391,
        "contract": "contracts/Staking/veMPHYieldDistributorV4.sol:veMPHYieldDistributorV4",
        "label": "emitted_token_address",
        "offset": 0,
        "slot": "5",
        "type": "t_address"
      },
      {
        "astId": 3393,
        "contract": "contracts/Staking/veMPHYieldDistributorV4.sol:veMPHYieldDistributorV4",
        "label": "timelock_address",
        "offset": 0,
        "slot": "6",
        "type": "t_address"
      },
      {
        "astId": 3398,
        "contract": "contracts/Staking/veMPHYieldDistributorV4.sol:veMPHYieldDistributorV4",
        "label": "periodFinish",
        "offset": 0,
        "slot": "7",
        "type": "t_uint256"
      },
      {
        "astId": 3400,
        "contract": "contracts/Staking/veMPHYieldDistributorV4.sol:veMPHYieldDistributorV4",
        "label": "lastUpdateTime",
        "offset": 0,
        "slot": "8",
        "type": "t_uint256"
      },
      {
        "astId": 3402,
        "contract": "contracts/Staking/veMPHYieldDistributorV4.sol:veMPHYieldDistributorV4",
        "label": "yieldRate",
        "offset": 0,
        "slot": "9",
        "type": "t_uint256"
      },
      {
        "astId": 3405,
        "contract": "contracts/Staking/veMPHYieldDistributorV4.sol:veMPHYieldDistributorV4",
        "label": "yieldDuration",
        "offset": 0,
        "slot": "10",
        "type": "t_uint256"
      },
      {
        "astId": 3409,
        "contract": "contracts/Staking/veMPHYieldDistributorV4.sol:veMPHYieldDistributorV4",
        "label": "reward_notifiers",
        "offset": 0,
        "slot": "11",
        "type": "t_mapping(t_address,t_bool)"
      },
      {
        "astId": 3412,
        "contract": "contracts/Staking/veMPHYieldDistributorV4.sol:veMPHYieldDistributorV4",
        "label": "yieldPerVeMPHStored",
        "offset": 0,
        "slot": "12",
        "type": "t_uint256"
      },
      {
        "astId": 3416,
        "contract": "contracts/Staking/veMPHYieldDistributorV4.sol:veMPHYieldDistributorV4",
        "label": "userYieldPerTokenPaid",
        "offset": 0,
        "slot": "13",
        "type": "t_mapping(t_address,t_uint256)"
      },
      {
        "astId": 3420,
        "contract": "contracts/Staking/veMPHYieldDistributorV4.sol:veMPHYieldDistributorV4",
        "label": "yields",
        "offset": 0,
        "slot": "14",
        "type": "t_mapping(t_address,t_uint256)"
      },
      {
        "astId": 3423,
        "contract": "contracts/Staking/veMPHYieldDistributorV4.sol:veMPHYieldDistributorV4",
        "label": "totalVeMPHParticipating",
        "offset": 0,
        "slot": "15",
        "type": "t_uint256"
      },
      {
        "astId": 3426,
        "contract": "contracts/Staking/veMPHYieldDistributorV4.sol:veMPHYieldDistributorV4",
        "label": "totalVeMPHSupplyStored",
        "offset": 0,
        "slot": "16",
        "type": "t_uint256"
      },
      {
        "astId": 3430,
        "contract": "contracts/Staking/veMPHYieldDistributorV4.sol:veMPHYieldDistributorV4",
        "label": "userIsInitialized",
        "offset": 0,
        "slot": "17",
        "type": "t_mapping(t_address,t_bool)"
      },
      {
        "astId": 3434,
        "contract": "contracts/Staking/veMPHYieldDistributorV4.sol:veMPHYieldDistributorV4",
        "label": "userVeMPHCheckpointed",
        "offset": 0,
        "slot": "18",
        "type": "t_mapping(t_address,t_uint256)"
      },
      {
        "astId": 3438,
        "contract": "contracts/Staking/veMPHYieldDistributorV4.sol:veMPHYieldDistributorV4",
        "label": "userVeMPHEndpointCheckpointed",
        "offset": 0,
        "slot": "19",
        "type": "t_mapping(t_address,t_uint256)"
      },
      {
        "astId": 3442,
        "contract": "contracts/Staking/veMPHYieldDistributorV4.sol:veMPHYieldDistributorV4",
        "label": "lastRewardClaimTime",
        "offset": 0,
        "slot": "20",
        "type": "t_mapping(t_address,t_uint256)"
      },
      {
        "astId": 3446,
        "contract": "contracts/Staking/veMPHYieldDistributorV4.sol:veMPHYieldDistributorV4",
        "label": "greylist",
        "offset": 0,
        "slot": "21",
        "type": "t_mapping(t_address,t_bool)"
      },
      {
        "astId": 3449,
        "contract": "contracts/Staking/veMPHYieldDistributorV4.sol:veMPHYieldDistributorV4",
        "label": "yieldCollectionPaused",
        "offset": 0,
        "slot": "22",
        "type": "t_bool"
      }
    ],
    "types": {
      "t_address": {
        "encoding": "inplace",
        "label": "address",
        "numberOfBytes": "20"
      },
      "t_bool": {
        "encoding": "inplace",
        "label": "bool",
        "numberOfBytes": "1"
      },
      "t_contract(ERC20)594": {
        "encoding": "inplace",
        "label": "contract ERC20",
        "numberOfBytes": "20"
      },
      "t_contract(IveMPH)1548": {
        "encoding": "inplace",
        "label": "contract IveMPH",
        "numberOfBytes": "20"
      },
      "t_mapping(t_address,t_bool)": {
        "encoding": "mapping",
        "key": "t_address",
        "label": "mapping(address => bool)",
        "numberOfBytes": "32",
        "value": "t_bool"
      },
      "t_mapping(t_address,t_uint256)": {
        "encoding": "mapping",
        "key": "t_address",
        "label": "mapping(address => uint256)",
        "numberOfBytes": "32",
        "value": "t_uint256"
      },
      "t_uint256": {
        "encoding": "inplace",
        "label": "uint256",
        "numberOfBytes": "32"
      }
    }
  }
}