{
  "address": "0x0f17c89Ae8eDF5F8AD78D4af5518DC238bb62624",
  "abi": [
    {
      "name": "CommitOwnership",
      "inputs": [
        {
          "name": "admin",
          "type": "address",
          "indexed": false
        }
      ],
      "anonymous": false,
      "type": "event"
    },
    {
      "name": "ApplyOwnership",
      "inputs": [
        {
          "name": "admin",
          "type": "address",
          "indexed": false
        }
      ],
      "anonymous": false,
      "type": "event"
    },
    {
      "name": "Deposit",
      "inputs": [
        {
          "name": "provider",
          "type": "address",
          "indexed": true
        },
        {
          "name": "value",
          "type": "uint256",
          "indexed": false
        },
        {
          "name": "locktime",
          "type": "uint256",
          "indexed": true
        },
        {
          "name": "type",
          "type": "int128",
          "indexed": false
        },
        {
          "name": "ts",
          "type": "uint256",
          "indexed": false
        }
      ],
      "anonymous": false,
      "type": "event"
    },
    {
      "name": "Withdraw",
      "inputs": [
        {
          "name": "provider",
          "type": "address",
          "indexed": true
        },
        {
          "name": "value",
          "type": "uint256",
          "indexed": false
        },
        {
          "name": "ts",
          "type": "uint256",
          "indexed": false
        }
      ],
      "anonymous": false,
      "type": "event"
    },
    {
      "name": "Supply",
      "inputs": [
        {
          "name": "prevSupply",
          "type": "uint256",
          "indexed": false
        },
        {
          "name": "supply",
          "type": "uint256",
          "indexed": false
        }
      ],
      "anonymous": false,
      "type": "event"
    },
    {
      "name": "SmartWalletCheckerComitted",
      "inputs": [
        {
          "name": "future_smart_wallet_checker",
          "type": "address",
          "indexed": false
        }
      ],
      "anonymous": false,
      "type": "event"
    },
    {
      "name": "SmartWalletCheckerApplied",
      "inputs": [
        {
          "name": "smart_wallet_checker",
          "type": "address",
          "indexed": false
        }
      ],
      "anonymous": false,
      "type": "event"
    },
    {
      "name": "EmergencyUnlockToggled",
      "inputs": [
        {
          "name": "emergencyUnlockActive",
          "type": "bool",
          "indexed": false
        }
      ],
      "anonymous": false,
      "type": "event"
    },
    {
      "stateMutability": "nonpayable",
      "type": "constructor",
      "inputs": [
        {
          "name": "token_addr",
          "type": "address"
        },
        {
          "name": "_name",
          "type": "string"
        },
        {
          "name": "_symbol",
          "type": "string"
        },
        {
          "name": "_version",
          "type": "string"
        }
      ],
      "outputs": []
    },
    {
      "stateMutability": "nonpayable",
      "type": "function",
      "name": "commit_transfer_ownership",
      "inputs": [
        {
          "name": "addr",
          "type": "address"
        }
      ],
      "outputs": [],
      "gas": 38895
    },
    {
      "stateMutability": "nonpayable",
      "type": "function",
      "name": "apply_transfer_ownership",
      "inputs": [],
      "outputs": [],
      "gas": 41034
    },
    {
      "stateMutability": "nonpayable",
      "type": "function",
      "name": "commit_smart_wallet_checker",
      "inputs": [
        {
          "name": "addr",
          "type": "address"
        }
      ],
      "outputs": [],
      "gas": 41052
    },
    {
      "stateMutability": "nonpayable",
      "type": "function",
      "name": "apply_smart_wallet_checker",
      "inputs": [],
      "outputs": [],
      "gas": 43079
    },
    {
      "stateMutability": "nonpayable",
      "type": "function",
      "name": "toggleEmergencyUnlock",
      "inputs": [],
      "outputs": [],
      "gas": 43112
    },
    {
      "stateMutability": "nonpayable",
      "type": "function",
      "name": "recoverERC20",
      "inputs": [
        {
          "name": "token_addr",
          "type": "address"
        },
        {
          "name": "amount",
          "type": "uint256"
        }
      ],
      "outputs": [],
      "gas": 9372
    },
    {
      "stateMutability": "view",
      "type": "function",
      "name": "get_last_user_slope",
      "inputs": [
        {
          "name": "addr",
          "type": "address"
        }
      ],
      "outputs": [
        {
          "name": "",
          "type": "int128"
        }
      ],
      "gas": 5197
    },
    {
      "stateMutability": "view",
      "type": "function",
      "name": "user_point_history__ts",
      "inputs": [
        {
          "name": "_addr",
          "type": "address"
        },
        {
          "name": "_idx",
          "type": "uint256"
        }
      ],
      "outputs": [
        {
          "name": "",
          "type": "uint256"
        }
      ],
      "gas": 3000
    },
    {
      "stateMutability": "view",
      "type": "function",
      "name": "locked__end",
      "inputs": [
        {
          "name": "_addr",
          "type": "address"
        }
      ],
      "outputs": [
        {
          "name": "",
          "type": "uint256"
        }
      ],
      "gas": 2921
    },
    {
      "stateMutability": "nonpayable",
      "type": "function",
      "name": "checkpoint",
      "inputs": [],
      "outputs": [],
      "gas": 46462784
    },
    {
      "stateMutability": "nonpayable",
      "type": "function",
      "name": "deposit_for",
      "inputs": [
        {
          "name": "_addr",
          "type": "address"
        },
        {
          "name": "_value",
          "type": "uint256"
        }
      ],
      "outputs": [],
      "gas": 93110669
    },
    {
      "stateMutability": "nonpayable",
      "type": "function",
      "name": "create_lock",
      "inputs": [
        {
          "name": "_value",
          "type": "uint256"
        },
        {
          "name": "_unlock_time",
          "type": "uint256"
        }
      ],
      "outputs": [],
      "gas": 93112154
    },
    {
      "stateMutability": "nonpayable",
      "type": "function",
      "name": "increase_amount",
      "inputs": [
        {
          "name": "_value",
          "type": "uint256"
        }
      ],
      "outputs": [],
      "gas": 93111575
    },
    {
      "stateMutability": "nonpayable",
      "type": "function",
      "name": "increase_unlock_time",
      "inputs": [
        {
          "name": "_unlock_time",
          "type": "uint256"
        }
      ],
      "outputs": [],
      "gas": 93112222
    },
    {
      "stateMutability": "nonpayable",
      "type": "function",
      "name": "withdraw",
      "inputs": [],
      "outputs": [],
      "gas": 46643617
    },
    {
      "stateMutability": "view",
      "type": "function",
      "name": "balanceOf",
      "inputs": [
        {
          "name": "addr",
          "type": "address"
        }
      ],
      "outputs": [
        {
          "name": "",
          "type": "uint256"
        }
      ]
    },
    {
      "stateMutability": "view",
      "type": "function",
      "name": "balanceOf",
      "inputs": [
        {
          "name": "addr",
          "type": "address"
        },
        {
          "name": "_t",
          "type": "uint256"
        }
      ],
      "outputs": [
        {
          "name": "",
          "type": "uint256"
        }
      ]
    },
    {
      "stateMutability": "view",
      "type": "function",
      "name": "balanceOfAt",
      "inputs": [
        {
          "name": "addr",
          "type": "address"
        },
        {
          "name": "_block",
          "type": "uint256"
        }
      ],
      "outputs": [
        {
          "name": "",
          "type": "uint256"
        }
      ],
      "gas": 867563
    },
    {
      "stateMutability": "view",
      "type": "function",
      "name": "totalSupply",
      "inputs": [],
      "outputs": [
        {
          "name": "",
          "type": "uint256"
        }
      ]
    },
    {
      "stateMutability": "view",
      "type": "function",
      "name": "totalSupply",
      "inputs": [
        {
          "name": "t",
          "type": "uint256"
        }
      ],
      "outputs": [
        {
          "name": "",
          "type": "uint256"
        }
      ]
    },
    {
      "stateMutability": "view",
      "type": "function",
      "name": "totalSupplyAt",
      "inputs": [
        {
          "name": "_block",
          "type": "uint256"
        }
      ],
      "outputs": [
        {
          "name": "",
          "type": "uint256"
        }
      ],
      "gas": 1393843
    },
    {
      "stateMutability": "view",
      "type": "function",
      "name": "totalFXSSupply",
      "inputs": [],
      "outputs": [
        {
          "name": "",
          "type": "uint256"
        }
      ],
      "gas": 5353
    },
    {
      "stateMutability": "view",
      "type": "function",
      "name": "totalFXSSupplyAt",
      "inputs": [
        {
          "name": "_block",
          "type": "uint256"
        }
      ],
      "outputs": [
        {
          "name": "",
          "type": "uint256"
        }
      ],
      "gas": 426135
    },
    {
      "stateMutability": "nonpayable",
      "type": "function",
      "name": "changeController",
      "inputs": [
        {
          "name": "_newController",
          "type": "address"
        }
      ],
      "outputs": [],
      "gas": 38175
    },
    {
      "stateMutability": "view",
      "type": "function",
      "name": "token",
      "inputs": [],
      "outputs": [
        {
          "name": "",
          "type": "address"
        }
      ],
      "gas": 3048
    },
    {
      "stateMutability": "view",
      "type": "function",
      "name": "supply",
      "inputs": [],
      "outputs": [
        {
          "name": "",
          "type": "uint256"
        }
      ],
      "gas": 3078
    },
    {
      "stateMutability": "view",
      "type": "function",
      "name": "locked",
      "inputs": [
        {
          "name": "arg0",
          "type": "address"
        }
      ],
      "outputs": [
        {
          "name": "amount",
          "type": "int128"
        },
        {
          "name": "end",
          "type": "uint256"
        }
      ],
      "gas": 5857
    },
    {
      "stateMutability": "view",
      "type": "function",
      "name": "epoch",
      "inputs": [],
      "outputs": [
        {
          "name": "",
          "type": "uint256"
        }
      ],
      "gas": 3138
    },
    {
      "stateMutability": "view",
      "type": "function",
      "name": "point_history",
      "inputs": [
        {
          "name": "arg0",
          "type": "uint256"
        }
      ],
      "outputs": [
        {
          "name": "bias",
          "type": "int128"
        },
        {
          "name": "slope",
          "type": "int128"
        },
        {
          "name": "ts",
          "type": "uint256"
        },
        {
          "name": "blk",
          "type": "uint256"
        },
        {
          "name": "fxs_amt",
          "type": "uint256"
        }
      ],
      "gas": 12657
    },
    {
      "stateMutability": "view",
      "type": "function",
      "name": "user_point_history",
      "inputs": [
        {
          "name": "arg0",
          "type": "address"
        },
        {
          "name": "arg1",
          "type": "uint256"
        }
      ],
      "outputs": [
        {
          "name": "bias",
          "type": "int128"
        },
        {
          "name": "slope",
          "type": "int128"
        },
        {
          "name": "ts",
          "type": "uint256"
        },
        {
          "name": "blk",
          "type": "uint256"
        },
        {
          "name": "fxs_amt",
          "type": "uint256"
        }
      ],
      "gas": 12902
    },
    {
      "stateMutability": "view",
      "type": "function",
      "name": "user_point_epoch",
      "inputs": [
        {
          "name": "arg0",
          "type": "address"
        }
      ],
      "outputs": [
        {
          "name": "",
          "type": "uint256"
        }
      ],
      "gas": 3443
    },
    {
      "stateMutability": "view",
      "type": "function",
      "name": "slope_changes",
      "inputs": [
        {
          "name": "arg0",
          "type": "uint256"
        }
      ],
      "outputs": [
        {
          "name": "",
          "type": "int128"
        }
      ],
      "gas": 3373
    },
    {
      "stateMutability": "view",
      "type": "function",
      "name": "controller",
      "inputs": [],
      "outputs": [
        {
          "name": "",
          "type": "address"
        }
      ],
      "gas": 3288
    },
    {
      "stateMutability": "view",
      "type": "function",
      "name": "transfersEnabled",
      "inputs": [],
      "outputs": [
        {
          "name": "",
          "type": "bool"
        }
      ],
      "gas": 3318
    },
    {
      "stateMutability": "view",
      "type": "function",
      "name": "emergencyUnlockActive",
      "inputs": [],
      "outputs": [
        {
          "name": "",
          "type": "bool"
        }
      ],
      "gas": 3348
    },
    {
      "stateMutability": "view",
      "type": "function",
      "name": "name",
      "inputs": [],
      "outputs": [
        {
          "name": "",
          "type": "string"
        }
      ],
      "gas": 13680
    },
    {
      "stateMutability": "view",
      "type": "function",
      "name": "symbol",
      "inputs": [],
      "outputs": [
        {
          "name": "",
          "type": "string"
        }
      ],
      "gas": 11433
    },
    {
      "stateMutability": "view",
      "type": "function",
      "name": "version",
      "inputs": [],
      "outputs": [
        {
          "name": "",
          "type": "string"
        }
      ],
      "gas": 11463
    },
    {
      "stateMutability": "view",
      "type": "function",
      "name": "decimals",
      "inputs": [],
      "outputs": [
        {
          "name": "",
          "type": "uint256"
        }
      ],
      "gas": 3468
    },
    {
      "stateMutability": "view",
      "type": "function",
      "name": "future_smart_wallet_checker",
      "inputs": [],
      "outputs": [
        {
          "name": "",
          "type": "address"
        }
      ],
      "gas": 3498
    },
    {
      "stateMutability": "view",
      "type": "function",
      "name": "smart_wallet_checker",
      "inputs": [],
      "outputs": [
        {
          "name": "",
          "type": "address"
        }
      ],
      "gas": 3528
    },
    {
      "stateMutability": "view",
      "type": "function",
      "name": "admin",
      "inputs": [],
      "outputs": [
        {
          "name": "",
          "type": "address"
        }
      ],
      "gas": 3558
    },
    {
      "stateMutability": "view",
      "type": "function",
      "name": "future_admin",
      "inputs": [],
      "outputs": [
        {
          "name": "",
          "type": "address"
        }
      ],
      "gas": 3588
    }
  ],
  "transactionHash": "0xa9cfe6fc7afa482d68f00bd9cab5d30ad291f4cb56acd8dbd24a1da9a5d12b86",
  "args": [
    "0x3E09E828c716c5e2BC5034EeD7d5eC8677ffba18",
    "Vote-escrowed MPH",
    "veMPH",
    "veMPH_1.0.0"
  ],
  "numDeployments": 1,
  "bytecode": "0x6f7fffffffffffffffffffffffffffffff604052608061349461014039602061349460c03960c05160a01c1561003457600080fd5b6060602060206134940160c03960c051613494016101c0396040602060206134940160c03960c05160040135111561006b57600080fd5b6040602060406134940160c03960c05161349401610240396020602060406134940160c03960c0516004013511156100a257600080fd5b6040602060606134940160c03960c051613494016102a0396020602060606134940160c03960c0516004013511156100d957600080fd5b3360115561014051600055436003600460c052602060c02060c052602060c0200155426002600460c052602060c02060c052602060c020015560006004600460c052602060c02060c052602060c02001553360085560016009556020610380600463313ce5676103205261033c610140515afa61015557600080fd5b601f3d1161016257600080fd5b600050610380516103005260ff61030051111561017e57600080fd5b61030051600e556101c080600b60c052602060c020602082510161012060006003818352015b826101205160200211156101b7576101d9565b61012051602002850151610120518501555b81516001018083528114156101a4575b50505050505061024080600c60c052602060c020602082510161012060006002818352015b8261012051602002111561021157610233565b61012051602002850151610120518501555b81516001018083528114156101fe575b5050505050506102a080600d60c052602060c020602082510161012060006002818352015b8261012051602002111561026b5761028d565b61012051602002850151610120518501555b8151600101808352811415610258575b50505050505061347c56600436101561000d576121b1565b600035601c526f7fffffffffffffffffffffffffffffff604052600051341561003557600080fd5b636b441a408114156100955760043560a01c1561005157600080fd5b601154331461005f57600080fd5b600435601255600435610140527f2f56810a6bf40af059b96d3aea4db54081f378029a518390491093a7b67032e96020610140a1005b636a1c05ae8114156100fe5760115433146100af57600080fd5b60125461014052600061014051186100c657600080fd5b6101405160115561014051610160527febee2d5739011062cb4f14113f3b36bf0ffe3da5c0568f64189d1012a11891056020610160a1005b6357f901e281141561015e5760043560a01c1561011a57600080fd5b601154331461012857600080fd5b600435600f55600f54610140527f25ae06665d3dcefda7253511ee45f88500aab9b3ea061845a747baad51121c1e6020610140a1005b638e5b490f8114156101ae57601154331461017857600080fd5b600f54601055601054610140527f5000294582547ee919f4908d785ff270cd38f6cc318e730199ae00c65548f2ee6020610140a1005b6388c2b3e38114156101ff5760115433146101c857600080fd5b600a5415600a55600a54610140527feab47e2228a51fa30e80a103a8e0105cb452653bb433513d6bf11e3e3f3637a36020610140a1005b638980f11f8114156102805760043560a01c1561021b57600080fd5b601154331461022957600080fd5b6000546004351861023957600080fd5b60206101e0604463a9059cbb61014052601154610160526024356101805261015c60006004355af161026a57600080fd5b601f3d1161027757600080fd5b6000506101e050005b637c74a1748114156102f35760043560a01c1561029c57600080fd5b600660043560e05260c052604060c0205461014052600161014051633b9aca0081106102c757600080fd5b600560043560e05260c052604060c02060c052602060c0200160c052602060c020015460005260206000f35b63da020a188114156103505760043560a01c1561030f57600080fd5b6002602435633b9aca00811061032457600080fd5b600560043560e05260c052604060c02060c052602060c0200160c052602060c020015460005260206000f35b63adc635898114156103915760043560a01c1561036c57600080fd5b6001600260043560e05260c052604060c02060c052602060c020015460005260206000f35b63c2c4c5c181141561041f5760403661014037604036610180376101405161016051610180516101a05160006101c0526101e061014080518252806020015182602001525050610220610180805182528060200151826020015250506102405161022051610200516101e0516101c05160065801612298565b6101a052610180526101605261014052600050005b633a46273e8114156105d9576013541561043857600080fd5b600160135560043560a01c1561044d57600080fd5b610140600260043560e05260c052604060c0208060c052602060c02054825260018160c052602060c02001548260200152505060006024351161048f57600080fd5b6000610140511315156104e1576308c379a06101805260206101a05260166101c0527f4e6f206578697374696e67206c6f636b20666f756e64000000000000000000006101e0526101c050606461019cfd5b4261016051111515610557576308c379a06101805260206101a05260246101c0527f43616e6e6f742061646420746f2065787069726564206c6f636b2e20576974686101e0527f6472617700000000000000000000000000000000000000000000000000000000610200526101c050608461019cfd5b6101405161016051604060046101803760006101c0526101e0600260043560e05260c052604060c0208060c052602060c02054825260018160c052602060c02001548260200152505060006102205261022051610200516101e0516101c0516101a0516101805160065801612c01565b61016052610140526000506000601355005b6365fc387381141561082357601354156105f257600080fd5b6001601355336101405261014051600658016121b7565b60005060243562093a808082049050905062093a80808202821582848304141761063257600080fd5b809050905090506101405261016060023360e05260c052604060c0208060c052602060c02054825260018160c052602060c02001548260200152505060006004351161067d57600080fd5b610160511515156106cd576308c379a06101a05260206101c05260196101e0527f5769746864726177206f6c6420746f6b656e7320666972737400000000000000610200526101e05060646101bcfd5b4261014051111515610743576308c379a06101a05260206101c05260266101e0527f43616e206f6e6c79206c6f636b20756e74696c2074696d6520696e2074686520610200527f6675747572650000000000000000000000000000000000000000000000000000610220526101e05060846101bcfd5b42630784ce0081818301101561075857600080fd5b8082019050905061014051111515156107b0576308c379a06101a05260206101c052601e6101e0527f566f74696e67206c6f636b2063616e2062652034207965617273206d61780000610200526101e05060646101bcfd5b610140516101605161018051336101a0526004356101c052610140516101e052610200610160805182528060200151826020015250506001610240526102405161022051610200516101e0516101c0516101a05160065801612c01565b6101805261016052610140526000506000601355005b634957677c8114156109c7576013541561083c57600080fd5b6001601355336101405261014051600658016121b7565b60005061014060023360e05260c052604060c0208060c052602060c02054825260018160c052602060c02001548260200152505060006004351161089657600080fd5b6000610140511315156108e8576308c379a06101805260206101a05260166101c0527f4e6f206578697374696e67206c6f636b20666f756e64000000000000000000006101e0526101c050606461019cfd5b426101605111151561095e576308c379a06101805260206101a05260246101c0527f43616e6e6f742061646420746f2065787069726564206c6f636b2e20576974686101e0527f6472617700000000000000000000000000000000000000000000000000000000610200526101c050608461019cfd5b610140516101605133610180526004356101a05260006101c0526101e06101408051825280602001518260200152505060026102205261022051610200516101e0516101c0516101a0516101805160065801612c01565b61016052610140526000506000601355005b63eff7a612811415610c3257601354156109e057600080fd5b6001601355336101405261014051600658016121b7565b60005061014060023360e05260c052604060c0208060c052602060c02054825260018160c052602060c02001548260200152505060043562093a808082049050905062093a808082028215828483041417610a5157600080fd5b80905090509050610180524261016051111515610aad576308c379a06101a05260206101c052600c6101e0527f4c6f636b20657870697265640000000000000000000000000000000000000000610200526101e05060646101bcfd5b600061014051131515610aff576308c379a06101a05260206101c05260116101e0527f4e6f7468696e67206973206c6f636b6564000000000000000000000000000000610200526101e05060646101bcfd5b6101605161018051111515610b53576308c379a06101a05260206101c052601f6101e0527f43616e206f6e6c7920696e637265617365206c6f636b206475726174696f6e00610200526101e05060646101bcfd5b42630784ce00818183011015610b6857600080fd5b808201905090506101805111151515610bc0576308c379a06101a05260206101c052601e6101e0527f566f74696e67206c6f636b2063616e2062652034207965617273206d61780000610200526101e05060646101bcfd5b610140516101605161018051336101a05260006101c052610180516101e052610200610140805182528060200151826020015250506003610240526102405161022051610200516101e0516101c0516101a05160065801612c01565b6101805261016052610140526000506000601355005b633ccfd60b811415610ec35760135415610c4b57600080fd5b600160135561014060023360e05260c052604060c0208060c052602060c02054825260018160c052602060c0200154826020015250506101605142101515610c94576001610c98565b600a545b1515610ce3576308c379a06101805260206101a05260166101c0527f546865206c6f636b206469646e277420657870697265000000000000000000006101e0526101c050606461019cfd5b610140516000811215610cf557600080fd5b610180526101a06101408051825280602001518260200152505060006101605260006101405260023360e05260c052604060c02060c052602060c020610140805182558060200151600183015550506001546101e0526101e0516101805180821015610d6057600080fd5b808203905090506001556101405161016051610180516101a0516101c0516101e05133610200526102206101a08051825280602001518260200152505061026061014080518252806020015182602001525050610280516102605161024051610220516102005160065801612298565b6101e0526101c0526101a05261018052610160526101405260005060206102a0604463a9059cbb610200523361022052610180516102405261021c60006000545af1610e1b57600080fd5b601f3d11610e2857600080fd5b6000506102a051610e3857600080fd5b61018051610200524261022052337ff279e6a1f5e320cca91135676d9cb6e44ca8a08c0b88342bcdb1144f6511b5686040610200a26101e051610200526101e0516101805180821015610e8a57600080fd5b80820390509050610220527f5e2aa66efd74cce82b21852e317e5490d9ecc9e6bb953ae24d90851258cc2f5c6040610200a16000601355005b6370a08231811415610ed9574261014052610ef9565b62fdd58e811415610ef4576020602461014037600050610ef9565b6110b1565b60043560a01c15610f0957600080fd5b600660043560e05260c052604060c0205461016052610160511515610f3757600060005260206000f36110af565b61018061016051633b9aca008110610f4e57600080fd5b600560043560e05260c052604060c02060c052602060c020018060c052602060c02054825260018160c052602060c0200154826020015260028160c052602060c0200154826040015260038160c052602060c0200154826060015260048160c052602060c02001548260800152505061018080516101a051610140516101c05180821015610fdb57600080fd5b80820390509050604051811115610ff157600080fd5b8082028080600081121561100157195b607f1c1561100e57600080fd5b9050905090508082038080600081121561102457195b607f1c1561103157600080fd5b905090509050815250600061018051121561104d576000610180525b61018051600081121561105f57600080fd5b6102205261020051600361022051808202821582848304141761108157600080fd5b8090509050905081818301101561109757600080fd5b80820190509050610240526102405160005260206000f35b005b634ee2cd7e81141561161f5760043560a01c156110cd57600080fd5b4360243511156110dc57600080fd5b600061014052600660043560e05260c052604060c020546101605261018060006080818352015b6101605161014051101515611117576111d9565b610140516101605181818301101561112e57600080fd5b80820190509050600181818301101561114657600080fd5b808201905090506002808204905090506101a05260243560036101a051633b9aca00811061117357600080fd5b600560043560e05260c052604060c02060c052602060c0200160c052602060c02001541115156111aa576101a051610140526111c9565b6101a0516001808210156111bd57600080fd5b80820390509050610160525b8151600101808352811415611103575b505061018061014051633b9aca0081106111f257600080fd5b600560043560e05260c052604060c02060c052602060c020018060c052602060c02054825260018160c052602060c0200154826020015260028160c052602060c0200154826040015260038160c052602060c0200154826060015260048160c052602060c020015482608001525050600354610220526101405161016051610180516101a0516101c0516101e051610200516102205161024051602435610260526102205161028052610280516102605160065801612ea0565b6102e0526102405261022052610200526101e0526101c0526101a0526101805261016052610140526102e05161024052610260610240516c01431e0fae6d7217caa000000081106112fc57600080fd5b600460c052602060c020018060c052602060c02054825260018160c052602060c0200154826020015260028160c052602060c0200154826040015260038160c052602060c0200154826060015260048160c052602060c02001548260800152505060403661030037610220516102405110156114505761034061024051600181818301101561138a57600080fd5b808201905090506c01431e0fae6d7217caa000000081106113aa57600080fd5b600460c052602060c020018060c052602060c02054825260018160c052602060c0200154826020015260028160c052602060c0200154826040015260038160c052602060c0200154826060015260048160c052602060c0200154826080015250506103a0516102c0518082101561142057600080fd5b8082039050905061030052610380516102a0518082101561144057600080fd5b808203905090506103205261148b565b436102c0518082101561146257600080fd5b8082039050905061030052426102a0518082101561147f57600080fd5b80820390509050610320525b6102a05161034052600061030051181561150d576103408051610320516024356102c051808210156114bc57600080fd5b8082039050905080820282158284830414176114d757600080fd5b809050905090506103005180806114ed57600080fd5b82049050905081818301101561150257600080fd5b808201905090508152505b61018080516101a051610340516101c0518082101561152b57600080fd5b8082039050905060405181111561154157600080fd5b8082028080600081121561155157195b607f1c1561155e57600080fd5b9050905090508082038080600081121561157457195b607f1c1561158157600080fd5b90509050905081525061018051600081121561159c57600080fd5b610360526102005160036103605180820282158284830414176115be57600080fd5b809050905090508181830110156115d457600080fd5b80820190509050610380526000610180511215156115f35760016115fc565b60006102005110155b15611612576103805160005260206000f361161d565b600060005260206000f35b005b6318160ddd811415611635574261014052611656565b63bd85b039811415611651576020600461014037600050611656565b611784565b60035461016052610180610160516c01431e0fae6d7217caa0000000811061167d57600080fd5b600460c052602060c020018060c052602060c02054825260018160c052602060c0200154826020015260028160c052602060c0200154826040015260038160c052602060c0200154826060015260048160c052602060c0200154826080015250506101405161016051610180516101a0516101c0516101e0516102005161022061018080518252806020015182602001528060400151826040015280606001518260600152806080015182608001525050610140516102c0526102c0516102a0516102805161026051610240516102205160065801612faa565b61032052610200526101e0526101c0526101a0526101805261016052610140526103205160005260206000f35b63981b24d0811415611af85743600435111561179f57600080fd5b60035461014052610140516101605160043561018052610140516101a0526101a0516101805160065801612ea0565b6102005261016052610140526102005161016052610180610160516c01431e0fae6d7217caa0000000811061180257600080fd5b600460c052602060c020018060c052602060c02054825260018160c052602060c0200154826020015260028160c052602060c0200154826040015260038160c052602060c0200154826060015260048160c052602060c020015482608001525050600061022052610140516101605110156119a75761024061016051600181818301101561188f57600080fd5b808201905090506c01431e0fae6d7217caa000000081106118af57600080fd5b600460c052602060c020018060c052602060c02054825260018160c052602060c0200154826020015260028160c052602060c0200154826040015260038160c052602060c0200154826060015260048160c052602060c0200154826080015250506102a0516101e05118156119a2576004356101e0518082101561193257600080fd5b80820390509050610280516101c0518082101561194e57600080fd5b80820390509050808202821582848304141761196957600080fd5b809050905090506102a0516101e0518082101561198557600080fd5b80820390509050808061199757600080fd5b820490509050610220525b611a30565b436101e0511815611a30576004356101e051808210156119c657600080fd5b80820390509050426101c051808210156119df57600080fd5b8082039050905080820282158284830414176119fa57600080fd5b80905090509050436101e05180821015611a1357600080fd5b808203905090508080611a2557600080fd5b820490509050610220525b6101405161016051610180516101a0516101c0516101e0516102005161022051610240610180805182528060200151826020015280604001518260400152806060015182606001528060800151826080015250506101c05161022051818183011015611a9b57600080fd5b808201905090506102e0526102e0516102c0516102a05161028051610260516102405160065801612faa565b6103405261022052610200526101e0526101c0526101a0526101805261016052610140526103405160005260206000f35b63c3ad8956811415611b475760206101c060246370a0823161014052306101605261015c6000545afa611b2a57600080fd5b601f3d11611b3757600080fd5b6000506101c05160005260206000f35b634f8ab24f811415611c3357436004351115611b6257600080fd5b60035461014052610140516101605160043561018052610140516101a0526101a0516101805160065801612ea0565b6102005261016052610140526102005161016052610180610160516c01431e0fae6d7217caa00000008110611bc557600080fd5b600460c052602060c020018060c052602060c02054825260018160c052602060c0200154826020015260028160c052602060c0200154826040015260038160c052602060c0200154826060015260048160c052602060c0200154826080015250506102005160005260206000f35b633cebb823811415611c655760043560a01c15611c4f57600080fd5b6008543314611c5d57600080fd5b600435600855005b63fc0c546a811415611c7d5760005460005260206000f35b63047fc9aa811415611c955760015460005260206000f35b63cbf9fe5f811415611cff5760043560a01c15611cb157600080fd5b600260043560e05260c052604060c0206101408080808460c052602060c0205481525050602081019050808060018560c052602060c02001548152505060409050905060c05260c051610140f35b63900cf0cf811415611d175760035460005260206000f35b63d1febfb9811415611dd3576004356c01431e0fae6d7217caa00000008110611d3f57600080fd5b600460c052602060c020016101408080808460c052602060c0205481525050602081019050808060018560c052602060c020015481525050602081019050808060028560c052602060c020015481525050602081019050808060038560c052602060c020015481525050602081019050808060048560c052602060c02001548152505060a09050905060c05260c051610140f35b6328d09d47811415611ea45760043560a01c15611def57600080fd5b602435633b9aca008110611e0257600080fd5b600560043560e05260c052604060c02060c052602060c020016101408080808460c052602060c0205481525050602081019050808060018560c052602060c020015481525050602081019050808060028560c052602060c020015481525050602081019050808060038560c052602060c020015481525050602081019050808060048560c052602060c02001548152505060a09050905060c05260c051610140f35b63010ae757811415611eda5760043560a01c15611ec057600080fd5b600660043560e05260c052604060c0205460005260206000f35b6371197484811415611f0057600760043560e05260c052604060c0205460005260206000f35b63f77c4791811415611f185760085460005260206000f35b63bef97c87811415611f305760095460005260206000f35b63f8946485811415611f4857600a5460005260206000f35b6306fdde03811415611fed57600b8060c052602060c020610180602082540161012060006003818352015b82610120516020021115611f8657611fa8565b61012051850154610120516020028501525b8151600101808352811415611f73575b50505050505061018051806101a001818260206001820306601f82010390500336823750506020610160526040610180510160206001820306601f8201039050610160f35b6395d89b4181141561209257600c8060c052602060c020610180602082540161012060006002818352015b8261012051602002111561202b5761204d565b61012051850154610120516020028501525b8151600101808352811415612018575b50505050505061018051806101a001818260206001820306601f82010390500336823750506020610160526040610180510160206001820306601f8201039050610160f35b6354fd4d5081141561213757600d8060c052602060c020610180602082540161012060006002818352015b826101205160200211156120d0576120f2565b61012051850154610120516020028501525b81516001018083528114156120bd575b50505050505061018051806101a001818260206001820306601f82010390500336823750506020610160526040610180510160206001820306601f8201039050610160f35b63313ce56781141561214f57600e5460005260206000f35b638ff36fd181141561216757600f5460005260206000f35b637175d4f781141561217f5760105460005260206000f35b63f851a4408114156121975760115460005260206000f35b6317f7182a8114156121af5760125460005260206000f35b505b60006000fd5b61016052610140523261014051181561229257601054610180526000610180511815612228576020610220602463c23697a86101a052610140516101c0526101bc6000610180515af161220957600080fd5b601f3d1161221657600080fd5b60005061022051156122285761016051565b6308c379a06101a05260206101c05260256101e0527f536d61727420636f6e7472616374206465706f7369746f7273206e6f7420616c610200527f6c6f776564000000000000000000000000000000000000000000000000000000610220526101e05060846101bcfd5b61016051565b6101e0526101405261016052610180526101a0526101c052610180366102003760035461038052600061014051181561246557426101805111156122e257600061016051136122e5565b60005b1561236e5761016051630784ce008082058080600081121561230357195b607f1c1561231057600080fd5b905090509050610220526102205161018051428082101561233057600080fd5b8082039050905060405181111561234657600080fd5b8082028080600081121561235657195b607f1c1561236357600080fd5b905090509050610200525b426101c05111156123855760006101a05113612388565b60005b15612411576101a051630784ce00808205808060008112156123a657195b607f1c156123b357600080fd5b9050905090506102c0526102c0516101c05142808210156123d357600080fd5b808203905090506040518111156123e957600080fd5b808202808060008112156123f957195b607f1c1561240657600080fd5b9050905090506102a0525b60076101805160e05260c052604060c020546103405260006101c051181561246557610180516101c051141561244e576103405161036052612465565b60076101c05160e05260c052604060c02054610360525b6103a0600081526000816020015242816040015243816060015260008160800152506000610380511115612519576103a0610380516c01431e0fae6d7217caa000000081106124b357600080fd5b600460c052602060c020018060c052602060c02054825260018160c052602060c0200154826020015260028160c052602060c0200154826040015260038160c052602060c0200154826060015260048160c052602060c020015482608001525050612558565b60206104c060246370a0823161044052306104605261045c6000545afa61253f57600080fd5b601f3d1161254c57600080fd5b6000506104c051610420525b6103e051610440526104606103a0805182528060200151826020015280604001518260400152806060015182606001528060800151826080015250506000610500526103e05142111561261157670de0b6b3a76400004361040051808210156125c057600080fd5b8082039050905080820282158284830414176125db57600080fd5b80905090509050426103e051808210156125f457600080fd5b80820390509050808061260657600080fd5b820490509050610500525b6104405162093a808082049050905062093a80808202821582848304141761263857600080fd5b8090509050905061052052610540600060ff818352015b610520805162093a8081818301101561266757600080fd5b808201905090508152506000610560524261052051111561268c5742610520526126a3565b60076105205160e05260c052604060c02054610560525b6103a080516103c0516105205161044051808210156126c157600080fd5b808203905090506040518111156126d757600080fd5b808202808060008112156126e757195b607f1c156126f457600080fd5b9050905090508082038080600081121561270a57195b607f1c1561271757600080fd5b9050905090508152506103c08051610560518082018080600081121561273957195b607f1c1561274657600080fd5b90509050905081525060006103a05112156127625760006103a0525b60006103c05112156127755760006103c0525b6105205161044052610520516103e0526104c05161050051610520516104a051808210156127a257600080fd5b8082039050905080820282158284830414176127bd57600080fd5b80905090509050670de0b6b3a7640000808204905090508181830110156127e357600080fd5b80820190509050610400526103808051600181818301101561280457600080fd5b8082019050905081525042610520511415612865574361040052602061060060246370a0823161058052306105a05261059c6000545afa61284457600080fd5b601f3d1161285157600080fd5b60005061060051610420526128d7566128c7565b610380516c01431e0fae6d7217caa0000000811061288257600080fd5b600460c052602060c0200160c052602060c0206103a0805182558060200151600183015580604001516002830155806060015160038301558060800151600483015550505b815160010180835281141561264f575b50506103805160035560006101405118156129be576103c080516102c051610220518082038080600081121561290957195b607f1c1561291657600080fd5b9050905090508082018080600081121561292c57195b607f1c1561293957600080fd5b9050905090508152506103a080516102a051610200518082038080600081121561295f57195b607f1c1561296c57600080fd5b9050905090508082018080600081121561298257195b607f1c1561298f57600080fd5b90509050905081525060006103c05112156129ab5760006103c0525b60006103a05112156129be5760006103a0525b610380516c01431e0fae6d7217caa000000081106129db57600080fd5b600460c052602060c0200160c052602060c0206103a0805182558060200151600183015580604001516002830155806060015160038301558060800151600483015550506000610140511815612bfb5742610180511115612aba5761034080516102205180820180806000811215612a4f57195b607f1c15612a5c57600080fd5b905090509050815250610180516101c0511415612aa35761034080516102c05180820380806000811215612a8c57195b607f1c15612a9957600080fd5b9050905090508152505b6103405160076101805160e05260c052604060c020555b426101c0511115612b1957610180516101c0511115612b195761036080516102c05180820380806000811215612aec57195b607f1c15612af957600080fd5b9050905090508152506103605160076101c05160e05260c052604060c020555b60066101405160e05260c052604060c020546001818183011015612b3c57600080fd5b80820190509050610540526105405160066101405160e05260c052604060c02055426102e052436103005260026101405160e05260c052604060c02060c052602060c020546000811215612b8f57600080fd5b6103205261054051633b9aca008110612ba757600080fd5b60056101405160e05260c052604060c02060c052602060c0200160c052602060c0206102a0805182558060200151600183015580604001516002830155806060015160038301558060800151600483015550505b6101e051565b610200526101405261016052610180526101a0526101c0526101e0526102206101a080518252806020015182602001525050600154610260526102605161016051818183011015612c5157600080fd5b8082019050905060015561028061022080518252806020015182602001525050610220805161016051604051811115612c8957600080fd5b80820180806000811215612c9957195b607f1c15612ca657600080fd5b9050905090508152506000610180511815612cc45761018051610240525b60026101405160e05260c052604060c02060c052602060c020610220805182558060200151600183015550506101405161016051610180516101a0516101c0516101e05161020051610220516102405161026051610280516102a051610140516102c0526102e061028080518252806020015182602001525050610320610220805182528060200151826020015250506103405161032051610300516102e0516102c05160065801612298565b6102a05261028052610260526102405261022052610200526101e0526101c0526101a0526101805261016052610140526000506000610160511815612e0557602061038060646323b872dd6102c052610140516102e052306103005261016051610320526102dc60006000545af1612de857600080fd5b601f3d11612df557600080fd5b60005061038051612e0557600080fd5b610160516102c0526101e0516102e052426103005261024051610140517f4566dfc29f6f11d13a418c26a02bef7c28bae749d4de47e4e6a7cddea6730d5960606102c0a3610260516102c0526102605161016051818183011015612e6857600080fd5b808201905090506102e0527f5e2aa66efd74cce82b21852e317e5490d9ecc9e6bb953ae24d90851258cc2f5c60406102c0a161020051565b61018052610140526101605260006101a052610160516101c0526101e060006080818352015b6101c0516101a051101515612eda57612f98565b6101a0516101c051818183011015612ef157600080fd5b808201905090506001818183011015612f0957600080fd5b8082019050905060028082049050905061020052610140516003610200516c01431e0fae6d7217caa00000008110612f4057600080fd5b600460c052602060c0200160c052602060c0200154111515612f6957610200516101a052612f88565b61020051600180821015612f7c57600080fd5b808203905090506101c0525b8151600101808352811415612ec6575b50506101a05160005260005161018051565b610200526101405261016052610180526101a0526101c0526101e052610220610140805182528060200151826020015280604001518260400152806060015182606001528060800151826080015250506102605162093a808082049050905062093a80808202821582848304141761302157600080fd5b809050905090506102c0526102e0600060ff818352015b6102c0805162093a8081818301101561305057600080fd5b808201905090508152506000610300526101e0516102c051111561307b576101e0516102c052613092565b60076102c05160e05260c052604060c02054610300525b6102208051610240516102c05161026051808210156130b057600080fd5b808203905090506040518111156130c657600080fd5b808202808060008112156130d657195b607f1c156130e357600080fd5b905090509050808203808060008112156130f957195b607f1c1561310657600080fd5b9050905090508152506101e0516102c05114156131225761316a565b6102408051610300518082018080600081121561313b57195b607f1c1561314857600080fd5b9050905090508152506102c051610260525b8151600101808352811415613038575b5050600061022051121561317f576000610220525b61022051600081121561319157600080fd5b6102e0526102a05160036102e05180820282158284830414176131b357600080fd5b809050905090508181830110156131c957600080fd5b80820190509050610300526103005160005260005161020051565b61029861347c0361029860003961029861347c036000f3"
}