{
  "address": "0xf183287df9cB613c16989C16BF60537592fA736c",
  "abi": [
    {
      "name": "Deposit",
      "inputs": [
        {
          "name": "provider",
          "type": "address",
          "indexed": true
        },
        {
          "name": "value",
          "type": "uint256",
          "indexed": false
        },
        {
          "name": "locktime",
          "type": "uint256",
          "indexed": true
        },
        {
          "name": "type",
          "type": "int128",
          "indexed": false
        },
        {
          "name": "ts",
          "type": "uint256",
          "indexed": false
        }
      ],
      "anonymous": false,
      "type": "event"
    },
    {
      "name": "Withdraw",
      "inputs": [
        {
          "name": "provider",
          "type": "address",
          "indexed": true
        },
        {
          "name": "value",
          "type": "uint256",
          "indexed": false
        },
        {
          "name": "ts",
          "type": "uint256",
          "indexed": false
        }
      ],
      "anonymous": false,
      "type": "event"
    },
    {
      "name": "Supply",
      "inputs": [
        {
          "name": "prevSupply",
          "type": "uint256",
          "indexed": false
        },
        {
          "name": "supply",
          "type": "uint256",
          "indexed": false
        }
      ],
      "anonymous": false,
      "type": "event"
    },
    {
      "stateMutability": "nonpayable",
      "type": "constructor",
      "inputs": [
        {
          "name": "token_addr",
          "type": "address"
        },
        {
          "name": "_name",
          "type": "string"
        },
        {
          "name": "_symbol",
          "type": "string"
        },
        {
          "name": "_admin",
          "type": "address"
        }
      ],
      "outputs": []
    },
    {
      "stateMutability": "view",
      "type": "function",
      "name": "token",
      "inputs": [],
      "outputs": [
        {
          "name": "",
          "type": "address"
        }
      ]
    },
    {
      "stateMutability": "view",
      "type": "function",
      "name": "name",
      "inputs": [],
      "outputs": [
        {
          "name": "",
          "type": "string"
        }
      ]
    },
    {
      "stateMutability": "view",
      "type": "function",
      "name": "symbol",
      "inputs": [],
      "outputs": [
        {
          "name": "",
          "type": "string"
        }
      ]
    },
    {
      "stateMutability": "view",
      "type": "function",
      "name": "decimals",
      "inputs": [],
      "outputs": [
        {
          "name": "",
          "type": "uint256"
        }
      ]
    },
    {
      "stateMutability": "view",
      "type": "function",
      "name": "admin",
      "inputs": [],
      "outputs": [
        {
          "name": "",
          "type": "address"
        }
      ]
    },
    {
      "stateMutability": "nonpayable",
      "type": "function",
      "name": "commit_smart_wallet_checker",
      "inputs": [
        {
          "name": "addr",
          "type": "address"
        }
      ],
      "outputs": []
    },
    {
      "stateMutability": "nonpayable",
      "type": "function",
      "name": "apply_smart_wallet_checker",
      "inputs": [],
      "outputs": []
    },
    {
      "stateMutability": "view",
      "type": "function",
      "name": "get_last_user_slope",
      "inputs": [
        {
          "name": "addr",
          "type": "address"
        }
      ],
      "outputs": [
        {
          "name": "",
          "type": "int128"
        }
      ]
    },
    {
      "stateMutability": "view",
      "type": "function",
      "name": "user_point_history__ts",
      "inputs": [
        {
          "name": "_addr",
          "type": "address"
        },
        {
          "name": "_idx",
          "type": "uint256"
        }
      ],
      "outputs": [
        {
          "name": "",
          "type": "uint256"
        }
      ]
    },
    {
      "stateMutability": "view",
      "type": "function",
      "name": "locked__end",
      "inputs": [
        {
          "name": "_addr",
          "type": "address"
        }
      ],
      "outputs": [
        {
          "name": "",
          "type": "uint256"
        }
      ]
    },
    {
      "stateMutability": "nonpayable",
      "type": "function",
      "name": "checkpoint",
      "inputs": [],
      "outputs": []
    },
    {
      "stateMutability": "nonpayable",
      "type": "function",
      "name": "deposit_for",
      "inputs": [
        {
          "name": "_addr",
          "type": "address"
        },
        {
          "name": "_value",
          "type": "uint256"
        }
      ],
      "outputs": []
    },
    {
      "stateMutability": "nonpayable",
      "type": "function",
      "name": "create_lock",
      "inputs": [
        {
          "name": "_value",
          "type": "uint256"
        },
        {
          "name": "_unlock_time",
          "type": "uint256"
        }
      ],
      "outputs": []
    },
    {
      "stateMutability": "nonpayable",
      "type": "function",
      "name": "increase_amount",
      "inputs": [
        {
          "name": "_value",
          "type": "uint256"
        }
      ],
      "outputs": []
    },
    {
      "stateMutability": "nonpayable",
      "type": "function",
      "name": "increase_unlock_time",
      "inputs": [
        {
          "name": "_unlock_time",
          "type": "uint256"
        }
      ],
      "outputs": []
    },
    {
      "stateMutability": "nonpayable",
      "type": "function",
      "name": "withdraw",
      "inputs": [],
      "outputs": []
    },
    {
      "stateMutability": "view",
      "type": "function",
      "name": "balanceOf",
      "inputs": [
        {
          "name": "addr",
          "type": "address"
        }
      ],
      "outputs": [
        {
          "name": "",
          "type": "uint256"
        }
      ]
    },
    {
      "stateMutability": "view",
      "type": "function",
      "name": "balanceOf",
      "inputs": [
        {
          "name": "addr",
          "type": "address"
        },
        {
          "name": "_t",
          "type": "uint256"
        }
      ],
      "outputs": [
        {
          "name": "",
          "type": "uint256"
        }
      ]
    },
    {
      "stateMutability": "view",
      "type": "function",
      "name": "balanceOfAt",
      "inputs": [
        {
          "name": "addr",
          "type": "address"
        },
        {
          "name": "_block",
          "type": "uint256"
        }
      ],
      "outputs": [
        {
          "name": "",
          "type": "uint256"
        }
      ]
    },
    {
      "stateMutability": "view",
      "type": "function",
      "name": "totalSupply",
      "inputs": [],
      "outputs": [
        {
          "name": "",
          "type": "uint256"
        }
      ]
    },
    {
      "stateMutability": "view",
      "type": "function",
      "name": "totalSupply",
      "inputs": [
        {
          "name": "t",
          "type": "uint256"
        }
      ],
      "outputs": [
        {
          "name": "",
          "type": "uint256"
        }
      ]
    },
    {
      "stateMutability": "view",
      "type": "function",
      "name": "totalSupplyAt",
      "inputs": [
        {
          "name": "_block",
          "type": "uint256"
        }
      ],
      "outputs": [
        {
          "name": "",
          "type": "uint256"
        }
      ]
    },
    {
      "stateMutability": "view",
      "type": "function",
      "name": "supply",
      "inputs": [],
      "outputs": [
        {
          "name": "",
          "type": "uint256"
        }
      ]
    },
    {
      "stateMutability": "view",
      "type": "function",
      "name": "locked",
      "inputs": [
        {
          "name": "arg0",
          "type": "address"
        }
      ],
      "outputs": [
        {
          "name": "",
          "type": "tuple",
          "components": [
            {
              "name": "amount",
              "type": "int128"
            },
            {
              "name": "end",
              "type": "uint256"
            }
          ]
        }
      ]
    },
    {
      "stateMutability": "view",
      "type": "function",
      "name": "epoch",
      "inputs": [],
      "outputs": [
        {
          "name": "",
          "type": "uint256"
        }
      ]
    },
    {
      "stateMutability": "view",
      "type": "function",
      "name": "point_history",
      "inputs": [
        {
          "name": "arg0",
          "type": "uint256"
        }
      ],
      "outputs": [
        {
          "name": "",
          "type": "tuple",
          "components": [
            {
              "name": "bias",
              "type": "int128"
            },
            {
              "name": "slope",
              "type": "int128"
            },
            {
              "name": "ts",
              "type": "uint256"
            },
            {
              "name": "blk",
              "type": "uint256"
            }
          ]
        }
      ]
    },
    {
      "stateMutability": "view",
      "type": "function",
      "name": "user_point_history",
      "inputs": [
        {
          "name": "arg0",
          "type": "address"
        },
        {
          "name": "arg1",
          "type": "uint256"
        }
      ],
      "outputs": [
        {
          "name": "",
          "type": "tuple",
          "components": [
            {
              "name": "bias",
              "type": "int128"
            },
            {
              "name": "slope",
              "type": "int128"
            },
            {
              "name": "ts",
              "type": "uint256"
            },
            {
              "name": "blk",
              "type": "uint256"
            }
          ]
        }
      ]
    },
    {
      "stateMutability": "view",
      "type": "function",
      "name": "user_point_epoch",
      "inputs": [
        {
          "name": "arg0",
          "type": "address"
        }
      ],
      "outputs": [
        {
          "name": "",
          "type": "uint256"
        }
      ]
    },
    {
      "stateMutability": "view",
      "type": "function",
      "name": "slope_changes",
      "inputs": [
        {
          "name": "arg0",
          "type": "uint256"
        }
      ],
      "outputs": [
        {
          "name": "",
          "type": "int128"
        }
      ]
    },
    {
      "stateMutability": "view",
      "type": "function",
      "name": "future_smart_wallet_checker",
      "inputs": [],
      "outputs": [
        {
          "name": "",
          "type": "address"
        }
      ]
    },
    {
      "stateMutability": "view",
      "type": "function",
      "name": "smart_wallet_checker",
      "inputs": [],
      "outputs": [
        {
          "name": "",
          "type": "address"
        }
      ]
    }
  ],
  "transactionHash": "0xdb10e409c1871238773a4150bfe1534db9e5786d5ff5e0e22439304e512c8906",
  "args": [
    "0x3E09E828c716c5e2BC5034EeD7d5eC8677ffba18",
    "Vote-escrowed MPH",
    "veMPH",
    "0x56f34826Cc63151f74FA8f701E4f73C5EAae52AD"
  ],
  "numDeployments": 1,
  "bytecode": "0x60206126c66000396000518060a01c6126c15760405260206126e660003960005160406020826126c601600039600051116126c1576020816126c601600039600051806060526020820181816126c601608039505050602061270660003960005160206020826126c601600039600051116126c1576020816126c6016000396000518060c052602082016020816126c60160003960005160e05250505060206127266000396000518060a01c6126c15761010052346126c15761010051156126c157604051612536526101005161255652436007554260065560405163313ce567610140526020610140600461015c845afa610100573d600060003e3d6000fd5b60203d106126c1576101409050516101205260ff61012051116126c1576060518061257652600081601f0160051c600281116126c157801561015d57905b8060051b608001518160051b606001612536015260010181811861013e575b50505060c051806125d65260e0516125f65250610120516126165261253661018a61000039612636610000f36003361161000c57611722565b60003560e01c346125265763fc0c546a811861003e576004361861252657602061253660003960005160405260206040f35b6306fdde03811861009f5760043618612526576020806040528060400160206125766000396000518082526020820181612596823950508051806020830101601f82600003163682375050601f19601f825160200101169050810190506040f35b6395d89b4181186101075760043618612526576020806040528060400160206125d66000396000518082526020820160206125f6600039600051815250508051806020830101601f82600003163682375050601f19601f825160200101169050810190506040f35b63313ce567811861012e576004361861252657602061261660003960005160405260206040f35b63f851a4408118610155576004361861252657602061255660003960005160405260206040f35b6357f901e2811861019b5760243618612526576004358060a01c6125265760405260206125566000396000513318612526576040516c050c783eb9b5c840000000000755005b638e5b490f81186101df57600436186125265760206125566000396000513318612526576c050c783eb9b5c8400000000007546c050c783eb9b5c840000000000855005b637c74a17481186102615760243618612526576004358060a01c612526576040526c050c783eb9b5c84000000000056040516020526000526040600020546060526c050c783eb9b5c84000000000046040516020526000526040600020606051633b9ac9ff81116125265760021b810190506001810190505460805260206080f35b63da020a1881186102c35760443618612526576004358060a01c612526576040526c050c783eb9b5c84000000000046040516020526000526040600020602435633b9ac9ff81116125265760021b810190506002810190505460605260206060f35b63adc6358981186103045760243618612526576004358060a01c61252657604052600260405160205260005260406000206001810190505460605260206060f35b63c2c4c5c1811861032757600436186125265760a036604037610325611821565b005b633a46273e81186104d45760443618612526576004358060a01c612526576105e0526002600054181561252657600260005560026105e051602052600052604060002080546106005260018101546106205250602435156125265760016106005112156103f4576016610640527f4e6f206578697374696e67206c6f636b20666f756e64000000000000000000006106605261064050610640518061066001601f826000031636823750506308c379a061060052602061062052601f19601f61064051011660440161061cfd5b426106205111610489576024610640527f43616e6e6f742061646420746f2065787069726564206c6f636b2e2057697468610660527f64726177000000000000000000000000000000000000000000000000000000006106805261064050610640518061066001601f826000031636823750506308c379a061060052602061062052601f19601f61064051011660440161061cfd5b6105e0516103e0526024356104005260006104205260026105e0516020526000526040600020805461044052600181015461046052506000610480526104cd611f02565b6003600055005b6365fc3873811861070a5760443618612526576002600054181561252657600260005533604052610503611728565b60243562093a808104905062093a8081028162093a808204186125265790506105e052600233602052600052604060002080546106005260018101546106205250600435156125265761060051156105bb576019610640527f5769746864726177206f6c6420746f6b656e73206669727374000000000000006106605261064050610640518061066001601f826000031636823750506308c379a061060052602061062052601f19601f61064051011660440161061cfd5b426105e05111610650576026610640527f43616e206f6e6c79206c6f636b20756e74696c2074696d6520696e2074686520610660527f66757475726500000000000000000000000000000000000000000000000000006106805261064050610640518061066001601f826000031636823750506308c379a061060052602061062052601f19601f61064051011660440161061cfd5b42630784ce0081018181106125265790506105e05111156106d157601d610640527f566f74696e67206c6f636b2063616e20626520312079656172206d61780000006106605261064050610640518061066001601f826000031636823750506308c379a061060052602061062052601f19601f61064051011660440161061cfd5b336103e052600435610400526105e0516104205261060051610440526106205161046052600161048052610703611f02565b6003600055005b634957677c811861089d5760243618612526576002600054181561252657600260005533604052610739611728565b600233602052600052604060002080546105e05260018101546106005250600435156125265760016105e05112156107d1576016610620527f4e6f206578697374696e67206c6f636b20666f756e64000000000000000000006106405261062050610620518061064001601f826000031636823750506308c379a06105e052602061060052601f19601f6106205101166044016105fcfd5b426106005111610866576024610620527f43616e6e6f742061646420746f2065787069726564206c6f636b2e2057697468610640527f64726177000000000000000000000000000000000000000000000000000000006106605261062050610620518061064001601f826000031636823750506308c379a06105e052602061060052601f19601f6106205101166044016105fcfd5b336103e052600435610400526000610420526105e051610440526106005161046052600261048052610896611f02565b6003600055005b63eff7a6128118610b1b57602436186125265760026000541815612526576002600055336040526108cc611728565b600233602052600052604060002080546105e0526001810154610600525060043562093a808104905062093a8081028162093a808204186125265790506106205242610600511161097d57600c610640527f4c6f636b206578706972656400000000000000000000000000000000000000006106605261064050610640518061066001601f826000031636823750506308c379a061060052602061062052601f19601f61064051011660440161061cfd5b60016105e05112156109ef576011610640527f4e6f7468696e67206973206c6f636b65640000000000000000000000000000006106605261064050610640518061066001601f826000031636823750506308c379a061060052602061062052601f19601f61064051011660440161061cfd5b610600516106205111610a6257601f610640527f43616e206f6e6c7920696e637265617365206c6f636b206475726174696f6e006106605261064050610640518061066001601f826000031636823750506308c379a061060052602061062052601f19601f61064051011660440161061cfd5b42630784ce008101818110612526579050610620511115610ae357601d610640527f566f74696e67206c6f636b2063616e20626520312079656172206d61780000006106605261064050610640518061066001601f826000031636823750506308c379a061060052602061062052601f19601f61064051011660440161061cfd5b336103e05260006104005261062051610420526105e051610440526106005161046052600361048052610b14611f02565b6003600055005b633ccfd60b8118610d4657600436186125265760026000541815612526576002600055600233602052600052604060002080546103e0526001810154610400525061040051421015610bcd576016610420527f546865206c6f636b206469646e277420657870697265000000000000000000006104405261042050610420518061044001601f826000031636823750506308c379a06103e052602061040052601f19601f6104205101166044016103fcfd5b6103e0516000811261252657610420526103e05161044052610400516104605260006104005260006103e05260023360205260005260406000206103e05181556104005160018201555060015461048052610480516104205180820382811161252657905090506001553360405261044051606052610460516080526103e05160a0526104005160c052610c5f611821565b602061253660003960005163a9059cbb6104a052336104c052610420516104e05260206104a060446104bc6000855af1610c9e573d600060003e3d6000fd5b60203d10612526576104a0518060011c61252657610500526105009050511561252657337ff279e6a1f5e320cca91135676d9cb6e44ca8a08c0b88342bcdb1144f6511b568610420516104a052426104c05260406104a0a27f5e2aa66efd74cce82b21852e317e5490d9ecc9e6bb953ae24d90851258cc2f5c610480516104a052610480516104205180820382811161252657905090506104c05260406104a0a16003600055005b6370a082318118610d635760243618612526574261014052610d7d565b62fdd58e8118610f0c576044361861252657602435610140525b6004358060a01c6125265761012052600061016052426101405118610dc3576c050c783eb9b5c84000000000056101205160205260005260406000205461016052610e06565b61012051604052610140516060526c050c783eb9b5c840000000000561012051602052600052604060002054608052610dfd6101806122f0565b61018051610160525b61016051610e22576000610180526020610180610f0a56610f0a565b6c050c783eb9b5c840000000000461012051602052600052604060002061016051633b9ac9ff81116125265760021b8101905080546101805260018101546101a05260028101546101c05260038101546101e05250610180516101a051610140516101c051808203828111612526579050905080607f1c6125265780820280600f0b8118612526579050905080820380600f0b81186125265790509050610180527fffffffffffffffffffffffffffffffffffffffffffffffffffffffffffffffff6101805113610ef4576000610180525b6101805160008112612526576102005260206102005bf35b634ee2cd7e81186111e75760443618612526576004358060a01c6125265761012052436024351161252657610120516040526024356060526c050c783eb9b5c840000000000561012051602052600052604060002054608052610f70610160612228565b61016051610140526c050c783eb9b5c840000000000461012051602052600052604060002061014051633b9ac9ff81116125265760021b8101905080546101605260018101546101805260028101546101a05260038101546101c052506003546101e0526024356040526101e051606052610fec6102206120c8565b6102205161020052610200516c01431e0fae6d7217ca9fffffff81116125265760021b600401805461022052600181015461024052600281015461026052600381015461028052506040366102a0376101e051610200511061107b57436102805180820382811161252657905090506102a052426102605180820382811161252657905090506102c0526110fd565b61020051600181018181106125265790506c01431e0fae6d7217ca9fffffff81116125265760021b60040180546102e05260018101546103005260028101546103205260038101546103405250610340516102805180820382811161252657905090506102a052610320516102605180820382811161252657905090506102c0525b610260516102e0526102a05115611163576102e0516102c05160243561028051808203828111612526579050905080820281158383830414171561252657905090506102a0518015612526578082049050905080820182811061252657905090506102e0525b61016051610180516102e0516101a051808203828111612526579050905080607f1c6125265780820280600f0b8118612526579050905080820380600f0b811861252657905090506101605260006101605112156111cf5760006103005260206103006111e5566111e5565b6101605160008112612526576103005260206103005bf35b6318160ddd8118611204576004361861252657426101c05261121f565b63bd85b03981186112ee5760243618612526576004356101c0525b60006101e052426101c0511861123b576003546101e05261125c565b6101c051604052600354606052611253610200612178565b610200516101e0525b6101e0516112785760006102005260206102006112ec566112ec565b6101e0516c01431e0fae6d7217ca9fffffff81116125265760021b6004018054610200526001810154610220526002810154610240526003810154610260525060206102005160405261022051606052610240516080526102605160a0526101c05160c0526112e86102806123b8565b6102805bf35b63981b24d081186114fd5760243618612526574360043511612526576003546101c0526004356040526101c0516060526113296102006120c8565b610200516101e0526101e0516c01431e0fae6d7217ca9fffffff81116125265760021b600401805461020052600181015461022052600281015461024052600381015461026052506000610280526101c0516101e051106113f457436102605118156114b6576004356102605180820382811161252657905090504261024051808203828111612526579050905080820281158383830414171561252657905090504361026051808203828111612526579050905080156125265780820490509050610280526114b6565b6101e051600181018181106125265790506c01431e0fae6d7217ca9fffffff81116125265760021b60040180546102a05260018101546102c05260028101546102e05260038101546103005250610300516102605118156114b6576004356102605180820382811161252657905090506102e05161024051808203828111612526579050905080820281158383830414171561252657905090506103005161026051808203828111612526579050905080156125265780820490509050610280525b60206102005160405261022051606052610240516080526102605160a0526102405161028051808201828110612526579050905060c0526114f86102a06123b8565b6102a0f35b63047fc9aa811861151c57600436186125265760015460405260206040f35b63cbf9fe5f81186115615760243618612526576004358060a01c6125265760405260026040516020526000526040600020805460605260018101546080525060406060f35b63900cf0cf811861158057600436186125265760035460405260206040f35b63d1febfb981186115d45760243618612526576004356c01431e0fae6d7217ca9fffffff81116125265760021b600401805460405260018101546060526002810154608052600381015460a0525060806040f35b6328d09d47811861164a5760443618612526576004358060a01c612526576040526c050c783eb9b5c84000000000046040516020526000526040600020602435633b9ac9ff81116125265760021b8101905080546060526001810154608052600281015460a052600381015460c0525060806060f35b63010ae75781186116915760243618612526576004358060a01c612526576040526c050c783eb9b5c840000000000560405160205260005260406000205460605260206060f35b637119748481186116ca5760243618612526576c050c783eb9b5c840000000000660043560205260005260406000205460405260206040f35b638ff36fd181186116f55760043618612526576c050c783eb9b5c84000000000075460405260206040f35b637175d4f781186117205760043618612526576c050c783eb9b5c84000000000085460405260206040f35b505b60006000fd5b32604051181561181f576c050c783eb9b5c8400000000008546060526060511561179e5760605163c23697a860805260405160a052602060806024609c6000855af1611779573d600060003e3d6000fd5b60203d10612526576080518060011c6125265760c05260c09050511561179e5761181f565b60256080527f536d61727420636f6e7472616374206465706f7369746f7273206e6f7420616c60a0527f6c6f77656400000000000000000000000000000000000000000000000000000060c0526080506080518060a001601f826000031636823750506308c379a06040526020606052601f19601f6080510116604401605cfd5b565b6101403660e037600354610220526040511561195b57426080511161184757600061184f565b600160605112155b1561189757606051630784ce0081059050610100526101005160805142808203828111612526579050905080607f1c6125265780820280600f0b8118612526579050905060e0525b4260c051116118a75760006118af565b600160a05112155b156118f85760a051630784ce0081059050610180526101805160c05142808203828111612526579050905080607f1c6125265780820280600f0b81186125265790509050610160525b6c050c783eb9b5c84000000000066080516020526000526040600020546101e05260c0511561195b5760805160c05118611939576101e0516102005261195b565b6c050c783eb9b5c840000000000660c051602052600052604060002054610200525b604036610240374261028052436102a05261022051156119b657610220516c01431e0fae6d7217ca9fffffff81116125265760021b60040180546102405260018101546102605260028101546102805260038101546102a052505b610280516102c052610240516102e052610260516103005261028051610320526102a0516103405260006103605261028051421115611a4557436102a0518082038281116125265790509050670de0b6b3a7640000810281670de0b6b3a76400008204186125265790504261028051808203828111612526579050905080156125265780820490509050610360525b6102c05162093a808104905062093a8081028162093a8082041861252657905061038052600060ff905b806103a0526103805162093a8081018181106125265790506103805260006103c052426103805111611ac2576c050c783eb9b5c8400000000006610380516020526000526040600020546103c052611ac8565b42610380525b6102405161026051610380516102c051808203828111612526579050905080607f1c6125265780820280600f0b8118612526579050905080820380600f0b8118612526579050905061024052610260516103c05180820180600f0b81186125265790509050610260527fffffffffffffffffffffffffffffffffffffffffffffffffffffffffffffffff6102405113611b62576000610240525b7fffffffffffffffffffffffffffffffffffffffffffffffffffffffffffffffff6102605113611b93576000610260525b610380516102c05261038051610280526103405161036051610380516103205180820382811161252657905090508082028115838383041417156125265790509050670de0b6b3a76400008104905080820182811061252657905090506102a052610220516001810181811061252657905061022052426103805118611c2157436102a052611c6d56611c62565b610220516c01431e0fae6d7217ca9fffffff81116125265760021b6004016102405181556102605160018201556102805160028201556102a0516003820155505b600101818118611a6f575b50506102205160035560405115611d435761026051610180516101005180820380600f0b8118612526579050905080820180600f0b8118612526579050905061026052610240516101605160e05180820380600f0b8118612526579050905080820180600f0b81186125265790509050610240527fffffffffffffffffffffffffffffffffffffffffffffffffffffffffffffffff6102605113611d12576000610260525b7fffffffffffffffffffffffffffffffffffffffffffffffffffffffffffffffff6102405113611d43576000610240525b610220516c01431e0fae6d7217ca9fffffff81116125265760021b6004016102405181556102605160018201556102805160028201556102a05160038201555060405115611f0057426080511115611dfd576101e0516101005180820180600f0b811861252657905090506101e05260805160c05118611ddb576101e0516101805180820380600f0b811861252657905090506101e0525b6101e0516c050c783eb9b5c84000000000066080516020526000526040600020555b4260c0511115611e525760805160c0511115611e5257610200516101805180820380600f0b8118612526579050905061020052610200516c050c783eb9b5c840000000000660c0516020526000526040600020555b6c050c783eb9b5c8400000000005604051602052600052604060002054600181018181106125265790506103a0526103a0516c050c783eb9b5c8400000000005604051602052600052604060002055426101a052436101c0526c050c783eb9b5c840000000000460405160205260005260406000206103a051633b9ac9ff81116125265760021b810190506101605181556101805160018201556101a05160028201556101c0516003820155505b565b610440516104a052610460516104c0526001546104e0526104e0516104005180820182811061252657905090506001556104a051610500526104c051610520526104a0516104005180607f1c6125265780820180600f0b811861252657905090506104a0526104205115611f7957610420516104c0525b60026103e05160205260005260406000206104a05181556104c0516001820155506103e05160405261050051606052610520516080526104a05160a0526104c05160c052611fc5611821565b61040051156120395760206125366000396000516323b872dd610540526103e051610560523061058052610400516105a0526020610540606461055c6000855af1612015573d600060003e3d6000fd5b60203d1061252657610540518060011c612526576105c0526105c090505115612526575b6104c0516103e0517f4566dfc29f6f11d13a418c26a02bef7c28bae749d4de47e4e6a7cddea6730d596104005161054052610480516105605242610580526060610540a37f5e2aa66efd74cce82b21852e317e5490d9ecc9e6bb953ae24d90851258cc2f5c6104e051610540526104e051610400518082018281106125265790509050610560526040610540a1565b600060805260605160a05260006080905b8060c05260a051608051106120ed5761216e565b60805160a0518082018281106125265790509050600181018181106125265790508060011c905060e05260405160e0516c01431e0fae6d7217ca9fffffff81116125265760021b60040160038101905054111561215c5760e0516001810381811161252657905060a052612163565b60e0516080525b6001018181186120d9575b5050608051815250565b600060805260605160a05260006080905b8060c05260a0516080511061219d5761221e565b60805160a0518082018281106125265790509050600181018181106125265790508060011c905060e05260405160e0516c01431e0fae6d7217ca9fffffff81116125265760021b60040160028101905054111561220c5760e0516001810381811161252657905060a052612213565b60e0516080525b600101818118612189575b5050608051815250565b600060a05260805160c05260006080905b8060e05260c05160a0511061224d576122e6565b60a05160c0518082018281106125265790509050600181018181106125265790508060011c9050610100526060516c050c783eb9b5c8400000000004604051602052600052604060002061010051633b9ac9ff81116125265760021b810190506003810190505411156122d357610100516001810381811161252657905060c0526122db565b6101005160a0525b600101818118612239575b505060a051815250565b600060a05260805160c05260006080905b8060e05260c05160a05110612315576123ae565b60a05160c0518082018281106125265790509050600181018181106125265790508060011c9050610100526060516c050c783eb9b5c8400000000004604051602052600052604060002061010051633b9ac9ff81116125265760021b8101905060028101905054111561239b57610100516001810381811161252657905060c0526123a3565b6101005160a0525b600101818118612301575b505060a051815250565b60405160e052606051610100526080516101205260a051610140526101205162093a808104905062093a8081028162093a8082041861252657905061016052600060ff905b80610180526101605162093a8081018181106125265790506101605260006101a05260c0516101605111612452576c050c783eb9b5c8400000000006610160516020526000526040600020546101a05261245a565b60c051610160525b60e051610100516101605161012051808203828111612526579050905080607f1c6125265780820280600f0b8118612526579050905080820380600f0b8118612526579050905060e05260c05161016051186124b5576124e5565b610100516101a05180820180600f0b811861252657905090506101005261016051610120526001018181186123fd575b50507fffffffffffffffffffffffffffffffffffffffffffffffffffffffffffffffff60e0511361251657600060e0525b60e0516000811261252657815250565b600080fda165767970657283000304005b600080fd"
}